:1000000000000420750300005D0300005F03000092
:1000100061030000630300006503000000000000AE
:100020000000000000000000000000006703000066
:1000300069030000000000006B0300006D03000076
:100040006F0300006F030000352900006F030000FC
:100050006F0300006F0300006F0300006F030000D8
:100060006F0300006F0300006F0300006148000091
:100070006F0300006F0300006F0300006F030000B8
:100080006F0300006F0300006F0300006F030000A8
:100090006F0300006F0300006F0300006F03000098
:1000A0006F0300006F0300006F0300006F03000088
:1000B0006F0300006F03000000000000000000005C
:1000C0006F0300006F0300006F0300006F03000068
:1000D0006F0300006F0300006F0300006F03000058
:1000E0006F0300006F0300006F03000000000000BA
:1000F000000000006F030000000000006F0300001C
:1001000000000000000000000000000000000000EF
:1001100000000000000000000000000000000000DF
:1001200000000000000000000000000000000000CF
:1001300000000000000000000000000000000000BF
:1001400000000000000000000000000000000000AF
:10015000000000000000000000000000000000009F
:10016000000000000000000000000000000000008F
:10017000000000000000000000000000000000007F
:10018000000000000000000000000000000000006F
:10019000000000000000000000000000000000005F
:1001A000000000000000000000000000000000004F
:1001B000000000000000000000000000000000003F
:1001C000000000000000000000000000000000002F
:1001D000000000000000000000000000000000001F
:1001E000000000000000000000000000000000000F
:1001F00000000000000000000000000000000000FF
:10020000354936480A1A02D0072291438D463449AF
:1002100034480A1A06D00722914381F30988022242
:1002200082F3148830483149314A00F044F83148AB
:100230003149324A00F03FF831483249324A00F041
:100240003AF832483249334A00F035F832483349F7
:10025000334A00F030F833483349344A00F02BF881
:1002600033483449344A00F026F8344834490022EF
:1002700000F02CF833483449002200F027F83348C6
:100280003349091A082902DB002202604160314A21
:1002900090471F481F49884205D00268043003B4C4
:1002A000904703BCF7E700208646EC46002000217B
:1002B000294A9047FEE7884207D0521A05D00378B2
:1002C00001300B700131013AF9D17047884202D0F8
:1002D00002700130FAE770470000042000E00320BC
:1002E0000000042000000420A8720000000000208C
:1002F00074000020D0030000D0030000186200004A
:10030000A872000000000020000000205C620000D5
:100310005C6200005C6200005C6200005C620000E5
:100320005C6200005C6200005C620000A872000079
:100330001C73000074000020740000207400002072
:1003400080160020801600208416002084160020CD
:10035000843600209D0300000D460000FEE7FEE706
:10036000FEE7FEE7FEE7FEE7FEE7FEE7FEE7FEE765
:1003700000F002B8FFF7FCBF0F484FF007018843B9
:1003800085460E4880470E48016841F470010160BF
:10039000BFF34F8FBFF36F8FFFF732BF09480A4992
:1003A0000A4A884207D0521A05D0037801300B70F0
:1003B0000131013AF9D1704700000420914C00004E
:1003C00088ED00E05C6200000000002000000020DA
:1003D000004870477816002000B5A1B00590049140
:1003E00003920293049802F087F8039B1593029BF3
:1003F00016930023179300238DF860300023199380
:10040000229B1A9300231F930FA91F9B0822049875
:1004100002F04CF908231F93119B1293BDF8403052
:10042000ADF84C30BDF84230ADF84E3000238DF8B9
:1004300051309DF83C3003F00303DBB2012B26D191
:100440000F9BC3F395231C939DF83C30C3F3C20369
:10045000DBB28DF85030BDF83C30C3F38313DBB210
:100460001B931B9B9A0009A91F9B049802F01EF97D
:100470001B9B9B001F9A13441F9312AA09A915AB3B
:10048000009313461B9A1C9800F0CEFF2FE09DF8B6
:100490003C3003F00303DBB2022B28D1BDF83E3021
:1004A000C3F389139BB21E939DF83C30C3F3C20380
:1004B000DBB28DF850301E9B082B28BF08231D93FC
:1004C00007A91F9B1D9A049802F0F0F81F9A1D9B24
:1004D00013441F931E9A1D9BD31A1E9315AB12AA89
:1004E00007A81D9901F042F81E9B002BE3D1049848
:1004F00002F011F800BF21B05DF804FB00B583B035
:100500000190019B1B781A460C4B9B5C002B05D07D
:10051000019B0433184603F0E5FC0BE0019B1B78BC
:100520001A46064B9B5C002B04D1019B0C331846EA
:1005300002F060FE00BF03B05DF804FB740600200B
:1005400000B587B00390029113468DF80730002361
:100550000593039B1B781A46114B9B5C002B09D01B
:10056000039B04339DF807200299184603F01CFDF5
:1005700005900FE0039B1B781A46094B9B5C002BF0
:1005800008D1039B0C339DF807200299184602F00E
:10059000A9FE0590059B184607B05DF804FB00BF57
:1005A0007406002082B001900091034B01221A7062
:1005B00000BF02B0704700BFB400002030B58DB05E
:1005C00003468DF807301A4B02AC1D460FCD0FC401
:1005D00095E80F0084E80F00062302934FF0FF33E5
:1005E00003934FF0FF3304934FF0FF3305934FF025
:1005F000EB7308939DF80730002B01D00D4A00E003
:10060000002202AB19460C4802F026F90B900B9B16
:100610000A930A9B002B04D0084A43210A9801F050
:1006200069F8074A9DF80730137000BF0DB030BD60
:10063000C0620000A5050000000000205C62000010
:10064000B500002000B583B000238DF807309DF879
:1006500007301846FFF7B2FF00BF03B05DF804FB98
:1006600000B589B0039002910192019B8DF81F3073
:10067000124B00221A709DF81F301A46029910483A
:10068000FFF75EFF0690069B0593059B002B04D0A9
:100690000C4A5321059801F02DF800BF0A4B1B7836
:1006A000002B07D0054B1B78DBB283F00103DBB2D4
:1006B000002BF3D100BF09B05DF804FBB4000020AB
:1006C000000000205C620000B500002000B585B08D
:1006D00003900291054B00934023054A0299039829
:1006E000FFF77AFE00BF05B05DF804FB610600006D
:1006F0007400002082B0019000BF02B0704700007B
:1007000000B583B001900548FFF7F8FE0020FFF721
:1007100055FF00BF03B05DF804FB00BF00000020E0
:1007200082B00190019BDB6801225A7100BF02B0C8
:100730007047000000B583B04FF0FF330193FFF71F
:1007400081FF0421084800F08BFD0190019B002BE4
:1007500003DA0649482001F0C0F80348FFF7E0FF3C
:1007600000BF03B05DF804FB3862000000630000C6
:1007700000B583B001900091019B1B681B68009934
:100780000198984700BF03B05DF804FB00B583B043
:100790000190019B1B685B680198984700BF03B0FC
:1007A0005DF804FB00B583B00190019B1B689B685A
:1007B0000198984700BF03B05DF804FB82B0019038
:1007C0000B468DF80330019BDB689DF803201A71FE
:1007D00000BF02B0704782B00190019BDB681B79BB
:1007E000184602B0704782B00190019BDB6801227D
:1007F0005A7100BF02B0704782B00190019BDB6864
:100800005B79184602B0704700B585B00190009141
:100810000C4B01221A700C4801F0D2FD0390039B8F
:10082000002B01D0039B08E0084801F05FFF084A55
:10083000084BD31ADB0802930023184605B05DF875
:1008400004FB00BF20020020486200006863000033
:100850003862000018620000024A034BD31ADB081A
:1008600018467047386200001862000000B587B073
:1008700001900B468DF803309DF80330002B1FD0FC
:10088000FFF7EAFF04900023059313E0059B9B000C
:100890000E4A13440393039B1B881A46019B1B6853
:1008A0009A4204D1019B059A1A60002309E0059B36
:1008B00001330593059A049B9A42E7D3052300E090
:1008C0000023184607B05DF804FB00BF00000020BD
:1008D00000B585B001900B468DF803309DF80320DC
:1008E00001AB11461846FFF7C1FF0346002B07D1A5
:1008F000019BDB00054A13440393039B1B6800E044
:100900000023184605B05DF804FB00BF1862000024
:1009100084B001900B468DF80330019BDB00174A31
:10092000134402939DF80330013B032B1CD801A212
:1009300052F823F0450900004D0900005509000058
:100940005F09000002238DF80F3011E004238DF8B9
:100950000F300DE0029B1B798DF80F3008E0029BF1
:100960005B798DF80F3003E000238DF80F3000BF66
:100970009DF80F30184604B0704700BF18620000A1
:1009800084B00190009100238DF80F30019B1B78FB
:1009900003F00403DBB2002B24D0019B1B78C3F3CC
:1009A0000103DBB2012B02D0022B0CD017E0009B1D
:1009B0001B68019A1288C2F38312D2B213449A1CA4
:1009C000009B1A600BE0009B1B68019A5288C2F3DF
:1009D000891292B213449A1C009B1A6000BF012333
:1009E0008DF80F309DF80F30184604B070470000A6
:1009F00000B58BB00023ADF826303E4800F0FAFF7A
:100A00003D4800F0F7FF3D4B9B6804933C4B1B684F
:100A10000693049A069B134002339B00374A134403
:100A20000433089304AB19460898FFF7A9FF03465F
:100A3000002B09D0049A069B134002339B002F4AD7
:100A4000134404330893EDE700BF0023079311E03C
:100A5000049B5A1C0492069A1340079A920001A91B
:100A60000A44264902339B000B445B681360079BD2
:100A700001330793079B012BEAD99DF80430C3F398
:100A80000103DBB2012B10D0022B1CD1BDF80A30C0
:100A9000ADF82630BDF80630C3F389139BB203339B
:100AA0009A08049B1344049313E0BDF80A30ADF890
:100AB0002630BDF80430C3F38313DBB21A46049B1F
:100AC0001344049305E00F494FF4C27000F005FF92
:100AD00000BF094800F09AFF0590059B002B02D04B
:100AE000049B064A9360BDF8263018460BB05DF8AB
:100AF00004FB00BF3806002034060020200200203E
:100B00001C0000207863000000B585B00021074874
:100B100000F0F9FE0390039B0293029B83F3100302
:100B20000193019B184605B05DF804FB3C060020CC
:100B300000B589B00390029101920093039B1B0CB6
:100B40000793FFF7E1FF0690FFF786FE0246079B3B
:100B5000934204D3214940F2A91000F0BEFE069B47
:100B60001904009B5A1C0A9B1340079A0A431C490C
:100B700002339B000B445A60009A0A9B13400233D5
:100B80009B00174A134404330593039B03F00703A8
:100B9000D9B2059A137861F3C5031370019B03F072
:100BA0000F03D9B2059A138861F389131380029B4E
:100BB000C3F31501059A136861F39F231360059A27
:100BC0001378012161F301031370059A13786FF311
:100BD0008203137000BF09B05DF804FB7863000066
:100BE0002002002000B58BB00390029113468DF8CF
:100BF0000730039B0233089301238DF81F30002038
:100C000000F024FE3E4B5A68029B1A603D4B1A6866
:100C10003B4B99683A4B5B68CB1A134401330993F9
:100C200014E00121384800F0B5FEFFF7E1FE059021
:100C30000599354800F0AEFE324B1A68304B996882
:100C40002F4B5B68CB1A134401330993089A099B15
:100C50009A42E6D89DF81F30002B48D00023049319
:100C60009DF80730002B17D09DF81030012262F359
:100C700001038DF810309DF8103043F004038DF817
:100C80001030039B03F00F03DAB2BDF8103062F3AB
:100C90008913ADF8103016E09DF81030022262F38F
:100CA00001038DF810309DF8103043F004038DF8E7
:100CB0001030039BC3F309039AB2BDF8123062F3FC
:100CC0008F13ADF812300E4B5A680E4B1B68134051
:100CD00002339B000A4A134404330693049A069B8A
:100CE0001A60074B5A68089B1344054A536000205A
:100CF00000F0C0FD9DF81F3018460BB05DF804FBF6
:100D0000200200201C0000203C06002000B58BB013
:100D100005900491039202931F4B1B68079306AB47
:100D2000012219460298FFF75DFF0346002B24D0ED
:100D3000069B023309930023089311E0089B9B0054
:100D4000039A1A44099B591C099107990B40126890
:100D5000124902339B000B445A60089B01330893ED
:100D6000089A029B9A42E9D3069A079B009313467E
:100D7000029A04990598FFF7DBFE084B1B78002BBD
:100D800005D000BF00F068F80346002BFAD100BF81
:100D90000BB05DF804FB00BF1C0000202002002007
:100DA00000B583B0019000910023002200990198C2
:100DB000FFF7ACFF00BF03B05DF804FB00B587B0E0
:100DC000039002910192019B059305AA01230299C8
:100DD0000398FFF79BFF00BF07B05DF804FB00B569
:100DE00087B00390029101920093019B0493009BB2
:100DF000059304AA022302990398FFF787FF00BF17
:100E000007B05DF804FB00B58BB00390029101922E
:100E10000093019B0593009B06930C9B07930D9BEE
:100E200008930E9B099305AA052302990398FFF7DF
:100E30006DFF00BF0BB05DF804FB0000054B9A6826
:100E4000044B5B689A420CBF01230023DBB21846B7
:100E5000704700BF2002002000B599B0FFF7EEFFF9
:100E60000346002B01D00023B9E19B4B0022C3F8BD
:100E70001824BFF34F8F00BF974B9B680493974B89
:100E80001B681093049A109B134002339B00924AF4
:100E90001344043311930023179300231693002364
:100EA0000F9304AB19461198FFF76AFD0346002B18
:100EB00019D0894BD3F81834002B14D1864B5A68BB
:100EC000049B9A4205D8844B5B68834A9360002355
:100ED00085E1049A109B134002339B007E4A134421
:100EE00004331193DDE70023159311E0049B5A1C92
:100EF0000492109A1340159A920001A90A44764967
:100F000002339B000B445B681360159B0133159300
:100F1000159B012BEAD99DF8043003F00303DBB2E3
:100F2000022B40F09C80BDF80630C3F389139BB2BE
:100F30000D93BDF80630C3F389139BB2502B28BF25
:100F400050239BB20C930C9BC3F309039AB2BDF8D8
:100F5000063062F38F13ADF806300C9B08330B9309
:100F60009DF80430C3F3C203DBB20F930B995C48C6
:100F700001F031FA1790179B002B00F0D3801798DF
:100F800001F0BAFA01A9169B0822179801F070FB2C
:100F9000169B08331693049BDA43109B13400133CE
:100FA0009B000A930C9A0A9B9A4242D90A9B002BF7
:100FB00008D0049A109B134002339B00464A134406
:100FC000043300E0474B08930A9B002B02D00A9B96
:100FD000DBB201E00C9BDBB28DF81F300A9B002BCB
:100FE00001D0404B00E0002306930A9B002B06D063
:100FF0000C9BDAB20A9BDBB2D31ADBB200E000230F
:101000008DF817309DF81F20169B0899179801F04E
:101010002FFB9DF81F30169A13441693069B002B46
:1010200016D09DF81720169B0699179801F020FB03
:101030000EE0049A109B134002339B00264A13448F
:1010400004330993169B0C9A0999179801F010FB29
:101050000D9B03339A08049B1344049362E09DF8AC
:10106000043003F00303DBB2012B5BD1BDF8043085
:10107000C3F38313DBB2062B28BF0623DAB2BDF815
:10108000043062F38913ADF80430BDF80430C3F3C3
:101090008313DBB202330E939DF80430C3F3C20313
:1010A000DBB20F930E9B9B0019460D4801F093F99C
:1010B0001790179B002B35D0179801F01DFA01A946
:1010C000169B0822179801F0D3FA169B0833169343
:1010D000002315931DE000BF200200201C0000200B
:1010E000486200002C020020049B5A1C0492109AB3
:1010F000134002339B003C4A1344191D169B0422E3
:10110000179801F0B5FA169B04331693159B01331B
:101110001593BDF80430C3F38313DBB21A46159B55
:101120009342E1D3179B002B39D02F4BD3F81034C7
:1011300014932D4BD3F81834002B1BD0179801F0C3
:10114000EAF946E000238DF84F301498FFF754FB7E
:101150000346002B02D001238DF84F309DF84F300D
:10116000002B03D017991498FFF702FB149BDB6840
:101170001B681493149B002BE4D1179801F0CBF952
:10118000002000F063FB184BD3F81834002B02D179
:10119000049B154A9360002000F06CFB19E0124B91
:1011A000D3F81034129306E01298FFF7FBFA129B63
:1011B000DB681B681293129B002BF5D10B4A0C4B7A
:1011C000D31ADB081B0443F002030A491846FFF751
:1011D000E7FDFFF733FE034683F00103DBB2184659
:1011E00019B05DF804FB00BF20020020306200004F
:1011F00018620000D863000000B585B00023039397
:1012000023E0164BD3F81034029301238DF80730F6
:101210000FE00298FFF7DFFA03461A46039B93425A
:1012200003D100238DF8073006E0029BDB681B68C2
:101230000293029B002BECD19DF80730002B01D0CC
:10124000039B07E0039B01330393039B092BD8DD2A
:101250004FF0FF33184605B05DF804FB2002002074
:1012600000B585B001900B468DF80330FFF7C4FF41
:101270000390039BB3F1FF3F01D1039B22E0039B4B
:10128000DBB219460198FFF799FA104BD3F81034E6
:10129000002B08D10D4A019BC2F81034019BDB687A
:1012A00000221A600DE0094BD3F81034DA68019B74
:1012B000DB6812681A60054BD3F81034DB68019ABA
:1012C0001A60039B184605B05DF804FB200200205D
:1012D00000B583B00C4BD3F8103401930A4B0122B4
:1012E0001A7009E00198FFF77EFA0198FFF74EFAAD
:1012F000019BDB681B680193019B002BF2D100BFAF
:1013000000BF03B05DF804FB2002002082B0019012
:10131000009100BF02B0704710B584B003900291F5
:10132000039BDB88002B0AD0039BDB881A461F4BEC
:10133000009313461E4A1F49029800F095FC039B38
:101340001B7A052B2ED0039B5B7A002B12D0039BBC
:101350009B881A46039B1B7A19461046FFF7D8FA5A
:1013600003461A46144B53F822301A461349029882
:1013700000F07AFC039B1B6819460298FFF7C6FF32
:10138000039B1B7A1A460E4B53F82240039B9B8803
:1013900000211846FFF79CFA0346224609490298A5
:1013A00000F062FC00BF04B010BD00BF0C64000080
:1013B0001C64000054640000340000206C640000D1
:1013C000200000207064000000B585B003900291F9
:1013D00013468DF80730039B1B7A052B0FD0039B18
:1013E0005B7A002B06D00D4B1B681A460C490298FD
:1013F00000F03AFC0B49029800F036FC07E09DF83B
:101400000730002B03D00749029800F02DFC02980A
:1014100000F008FC00BF05B05DF804FB34000020BC
:101420006C6400007C64000030B58BB007900691BE
:10143000059204930E9B1B7B8DF827300E9B002298
:101440001A730E990498FFF767FF059B062B7FD848
:1014500001A252F823F000BF751400007F140000B1
:101460008F140000A3140000C1140000E914000050
:101470001915000007990E9800F0F6FB69E0069B2D
:101480001B681A4607990E9800F0EEFB61E0069B78
:101490001A68069B04331B6807990E9800F0E4FB5A
:1014A00057E0069B1A68069B04331968069B0833AD
:1014B0001B6800930B4607990E9800F0D5FB48E097
:1014C000069B1968069B04331868069B08331B6843
:1014D000069A0C3212680192009303460A46079955
:1014E0000E9800F0C1FB34E0069B1868069B04339D
:1014F0001C68069B08331B68069A0C321268069912
:10150000103109680291019200932346024607991F
:101510000E9800F0A9FB1CE0069B1C68069B043398
:101520001D68069B08331B68069A0C3212680699E0
:1015300010310968069814300068039002910192F6
:1015400000932B46224607990E9800F08DFB00E091
:1015500000BF00220E990498FFF736FF0E9B9DF8FE
:1015600027201A7300BF0BB030BD00BF00B587B095
:101570000390029101920093029B082B60D8009B7C
:101580001B7B8DF81330009B00221A730099019881
:10159000FFF7C2FE0023059314E0059A029B9A42CE
:1015A00009D2039A059B13441B781A4626490098D2
:1015B00000F05AFB03E02549009800F055FB059B1D
:1015C00001330593059B072BE7D92149009800F0CB
:1015D0004BFB0023059326E0059A029B9A421BD2FF
:1015E000039A059B13441B788DF812309DF8123036
:1015F0007E2B0AD89DF81230184603F0EDFD034605
:10160000002B02D09DF8123000E02E231A4611491B
:10161000009800F029FB03E00F49009800F024FB3C
:10162000059B01330593059B072BD5D90122009912
:101630000198FFF7C9FE009B9DF813201A7300E084
:1016400000BF07B05DF804FB806400008864000000
:101650008C640000906400009464000086B00390E5
:101660000291019201238DF817309DF81730204A1E
:10167000039B13601E4A029B53601D4A019B9360AB
:10168000039B44F20102934212D0039B44F20202F4
:10169000934220D1019B164AD360154BDB681B682F
:1016A000134A9361124BDB685B68114AD36112E005
:1016B000019B0F4A13610E4B1B699B680C4A5361D7
:1016C0000B4B1B691B680A4A9361094B1B695B68DA
:1016D000074AD36100BF72B600BF00BF9DF8173044
:1016E000DBB2002BFAD162B600BF00BF06B0704774
:1016F0004006002000B583B002900091019244F2B0
:10170000010071466A4600F003F803B000BD00BF57
:1017100030B58BB007900691059272B600BFFFF707
:10172000D7FD00BFFFF798FB0346002BFAD1079BBC
:1017300044F20102934216D0079B44F20202934204
:101740003ED1059B09932C4A2C4BD31ADB081B0472
:1017500043F00100099B5B681A46099B1B682849F6
:10176000FFF73DFB39E0059B0893234A234BD31A2F
:10177000DB081B0443F00104089B9D68089B9B68E1
:10178000184600F0D1FF03461846089B5B681946CF
:10179000089B1B68069A02920193009103462A4611
:1017A00018492046FFF72FFB134A144BD31ADB08C6
:1017B0001B0443F0010314491846FFF7F1FA0CE04B
:1017C0000D4A0E4BD31ADB081B0443F00103069AA3
:1017D0000E491846FFF7F2FA00BF0D4B1B6803F0E5
:1017E0000103002B00D000BE059A06990798FFF769
:1017F00035FF00BF0BB030BD306200001862000042
:1018000098640000B4640000DC640000F064000030
:10181000F0ED00E072B600BF034B1B680133024AD3
:10182000136000BF704700BF60060020064B1B68B6
:10183000013B054A1360044B1B68002B01D162B6C3
:1018400000BF00BF704700BF6006002000B583B036
:10185000019000F025F80346012B03D004494320F2
:1018600000F03BF8FFF7D6FF00BF03B05DF804FBC4
:101870000865000000B583B003468DF8073000F01E
:101880000FF80346012B03D00449512000F025F83E
:10189000FFF7CCFF00BF03B05DF804FB0865000054
:1018A00084B0EFF305830193019BC3F30803039313
:1018B000039B002B0DD1EFF314830093009B029345
:1018C000029B03F00103002B0CBF01230023DBB2BA
:1018D00000E00123184604B0704700B585B0034608
:1018E0000091ADF80630BDF806300293009B0393DB
:1018F00002AB1A46002144F20200FFF709FF00BFC5
:1019000005B05DF804FB10B487B001900091019B15
:10191000009A53E8004F104643E8000191F0000F91
:10192000F7D1059404900391059B184607B05DF824
:10193000044B704710B487B001900091019B009A4E
:1019400053E8004F44EA020043E8000191F0000F21
:10195000F6D1059404900391049B184607B05DF8F6
:10196000044B704710B487B001900091019B009A1E
:1019700053E8004F04EA020043E8000191F0000F31
:10198000F6D1059404900391059B184607B05DF8C5
:10199000044B704710B487B001900091019B009AEE
:1019A00053E8004F04EB020043E8000191F0000F00
:1019B000F6D1059404900391049B184607B05DF896
:1019C000044B704710B487B001900091019B009ABE
:1019D00053E8004FA4EB020043E8000191F0000F30
:1019E000F6D1059404900391049B184607B05DF866
:1019F000044B704700B583B0019001210198FFF7B7
:101A000099FF0346184603B05DF804FB00B583B0A8
:101A1000019000210198FFF7A5FF0346184603B087
:101A20005DF804FB00B583B001900B468DF80330E0
:101A3000019B002B03D10849E820FFF74EFF019BD3
:101A4000DA689DF803300199098A01FB03F3134416
:101A5000184603B05DF804FB6865000000B583B06C
:101A600001900091019B002B03D10849F520FFF75D
:101A700034FF009B019AD2689B1A019A128AB3FB29
:101A8000F2F3DBB2184603B05DF804FB68650000B2
:101A900000B585B00190019B002B01D10E234CE0D5
:101AA000019B1B68002B03D12649FF20FFF715FF80
:101AB000019B5B68002B04D122494FF48070FFF733
:101AC0000CFF019B9B68002B04D11E4940F20110C2
:101AD000FFF703FF019BDB68002B04D119494FF48A
:101AE0008170FFF7FAFE019B1B8A002B04D1154978
:101AF00040F20310FFF7F1FE019B9A68019B5B68BF
:101B0000D31A8DF80F30019B1B68019A52681A6036
:101B100007E0019B1A681368591C11609DF80F209B
:101B20001A709DF80F305A1E8DF80F20002BF0D13F
:101B3000019B1B6800221A710023184605B05DF84E
:101B400004FB00BF6865000000B585B00190019BF3
:101B5000002B04D11C494FF49270FFF7BEFE002306
:101B600003930020FFF772FE019B1B681A68019B1C
:101B70005B689A421FD9019B1B681A68013A1A6078
:101B80001B681B7819460198FFF74CFF0390019BD7
:101B90009A68019B1B681B68D31A8DF80B30019B58
:101BA0001B681B799DF80B209A4204D9019B1B6886
:101BB0009DF80B201A710020FFF75CFE039B18466E
:101BC00005B05DF804FB00BF6865000010B584B087
:101BD00001900091019B002B04D1114940F2471064
:101BE000FFF77BFE009B002B04D10D494FF4A4703E
:101BF000FFF773FE009B03930020FFF727FE019B76
:101C00001B681C68621C1A6003990198FFF726FF85
:101C1000034623700020FFF72DFE00BF04B010BD67
:101C20006865000000B583B00190019B002B03D1D3
:101C30000C493120FFF751FE019B9B68002B0CD013
:101C4000019B5B69019A1069019A1168019A926877
:101C50009847019B00229A6000E000BF03B05DF846
:101C600004FB00BFC46500000EB400B584B0019051
:101C7000019B002B03D118494220FFF72EFE019B48
:101C80005B69002B03D114494320FFF726FE019B1B
:101C90001B68002B03D110494420FFF71EFE019B57
:101CA0005B68002B03D10C494520FFF716FE059B0E
:101CB000002B0AD00023039306AB039303AB1A4611
:101CC0000599019800F0B8F900E000BF04B05DF894
:101CD00004EB03B0704700BFC465000000B583B0DB
:101CE00001900B468DF803309DF803300A2B03D189
:101CF0000D210198FFF7F2FF019B1A68019B9B6879
:101D0000581C0199886013449DF803201A70019BA8
:101D10009A68019B5B689A4202D30198FFF782FFA1
:101D200000BF03B05DF804FB00B587B003900291DB
:101D30000192009300230593009B03F00103002B05
:101D400024D00BE0029B01330293059B01330593E2
:101D50009DF8133019460398FFF7C0FF029B1B78CC
:101D60008DF813309DF81330002BEBD106E0019B6A
:101D7000013B019320210398FFF7B0FF019A059BD7
:101D80009A422ED9019B002BF1D12AE0029B002B15
:101D90000BD0029803F07FFA059006E0019B013B0F
:101DA000019320210398FFF799FF019A059B9A421E
:101DB0000FD9019B002BF1D10BE0029B0133029361
:101DC000059B013305939DF8133019460398FFF7DF
:101DD00085FF029B1B788DF813309DF81330002B84
:101DE000EBD100BF07B05DF804FB000000B589B07F
:101DF0000390029101920093029B079301230693A3
:101E000007E0079A019BB2FBF3F30793069B0133AC
:101E10000693079A019B9A42F3D2009A069B9A4234
:101E200001D9009B06930B9B03F00103002B22D1E9
:101E30000A9B002B1FD00B9B03F00203002B06D044
:101E4000009B002B03D130238DF8173002E02023B4
:101E50008DF8173008E00A9B013B0A939DF8173074
:101E600019460398FFF73AFF0A9B002B03D0069A06
:101E70000A9B9A42EFD301230793009B012B03D9BE
:101E8000009B013B009309E0029A079BB2FBF3F32E
:101E90000493049A019B9A4200D205E0079B019AA1
:101EA00002FB03F30793E8E7029A079BB2FBF3F305
:101EB0000493049B079A02FB03F3029AD31A02933A
:101EC000154A049B13441B7819460398FFF706FF35
:101ED000079A019BB2FBF3F30793079B002BE3D117
:101EE0000B9B03F00103002B11D00A9B002B0ED09B
:101EF00006E00A9B013B0A9320210398FFF7EEFEC0
:101F00000A9B002B03D0069A0A9B9A42F1D300BF8A
:101F100009B05DF804FB00BF6C66000000B589B035
:101F20000590049103920293049B002BB8BF5B427F
:101F300006930123079307E0039B069A92FBF3F3B2
:101F40000693079B01330793039B069A9A42F3DAA1
:101F5000029A079B9A4201D9029B07930A9B002B86
:101F60000AD0049B002B04DB0B9B03F00403002B23
:101F700002D00A9B013B0A930B9B03F00203002B48
:101F800002D0029B002B16D00B9B03F00103002B09
:101F900011D10A9B002B0ED006E00A9B013B0A934D
:101FA00020210598FFF79AFE0A9B002B03D0079A81
:101FB0000A9B9A42F1D3049B002B07DA049B5B42F5
:101FC00004932D210598FFF789FE08E00B9B03F091
:101FD0000403002B03D02B210598FFF77FFE0B9BFA
:101FE00003F00203002B19D00B9B03F00103002B1D
:101FF00014D1029B002B11D10A9B002B0ED006E0BE
:102000000A9B013B0A9330210598FFF767FE0A9B64
:10201000002B03D0079A0A9B9A42F1D304990B9B99
:1020200001930A9B0093029B039A0598FFF7DEFE3B
:1020300000BF09B05DF804FB00B58FB005900491B6
:102040000392059B002B04D1B64940F25220FFF7C2
:1020500044FC059B5B69002B04D1B2494FF4157019
:10206000FFF73BFC059B1B68002B04D1AD4940F2F8
:102070005520FFF732FC059B5B68002B04D1A94972
:1020800040F25620FFF729FC049B002B00F09381BF
:10209000049B1B788DF83730049B013304939DF823
:1020A0003730002B00F07E819DF83730252B40F033
:1020B0006D8100230A9301230C93049B1B788DF8F8
:1020C00037309DF83730302B0DD0302B1BDC2B2BCD
:1020D00011D02D2B17D10A9B43F001030A93049BC7
:1020E0000133049312E00A9B43F002030A93049B1A
:1020F000013304930AE00A9B43F004030A93049B10
:102100000133049302E000230C9300BF0C9B002BCF
:10211000D3D1002309939DF837302A2B0CD1039B90
:102120001B68191D039A11601B68099A13440993CF
:10213000049B013304931AE0049B1B788DF837301D
:102140009DF837302F2B12D99DF83730392B0ED808
:10215000049B01330493099A13469B0013445B00CC
:102160001A469DF837301344303B0993D3E70023D8
:102170000B93049B1B788DF837309DF837302E2B4E
:102180001DD1049B01330493049B1B788DF83730D9
:102190009DF837302F2B12D99DF83730392B0ED8B8
:1021A000049B013304930B9A13469B0013445B007A
:1021B0001A469DF837301344303B0B93E4E7049BF9
:1021C0001B788DF837309DF837306C2B03D09DF895
:1021D0003730682B07D1049B01330493049B1B7891
:1021E0008DF83730EFE79DF83730252B00F0C480AD
:1021F000252BC0F2C680782B00F3C380582BC0F289
:10220000C080583B202B00F2BC8001A252F823F082
:10221000FF220000832300008323000083230000AB
:102220008323000083230000832300008323000016
:1022300083230000832300008323000095220000F5
:10224000B7220000832300008323000083230000C3
:1022500083230000B72200008323000083230000B3
:1022600083230000832300008323000083230000D6
:10227000452300008323000083230000292300005E
:1022800083230000DB22000083230000832300005F
:10229000FF220000039B1B68191D039A11601B6835
:1022A0000C930C9B8DF81F309DF81F301946059834
:1022B000FFF714FD66E0039B1B68191D039A11606C
:1022C0001B680C930A9B0193099B00930B9B0A22AA
:1022D0000C990598FFF722FE54E0039B1B68191D1B
:1022E000039A11601B680C930C990A9B0193099B3C
:1022F00000930B9B0A220598FFF778FD42E0039BB1
:102300001B68191D039A11601B680C930C990A9B9A
:102310000193099B00930B9B10220598FFF766FD24
:1023200030E000BF14660000039B1B68191D039A70
:1023300011601B6808930A9B099A08990598FFF792
:10234000F3FC1FE0039B1B68191D039A11601B68B7
:102350000C9330210598FFF7C1FC78210598FFF711
:10236000BDFC0C990023019308230093082310223D
:102370000598FFF73BFD05E025210598FFF7AEFC2A
:1023800000E000BF049B0133049305E09DF8373063
:1023900019460598FFF7A2FC049B1B78002B7FF4DD
:1023A00077AE00E000BF059B1B7B002B04D0059897
:1023B000FFF738FC00E000BF0FB05DF804FB00BF82
:1023C00000B583B001900198FFF762FB0346184601
:1023D00003B05DF804FB00B58BB001900091019B48
:1023E0001B8A043B0793009A079B1344DA1C079B44
:1023F000B2FBF3F38DF81B300198FFF7A5FB0590B6
:10240000059B002B01D1002338E0059B00221A71A7
:10241000059B01225A71079B9AB2059BDA80059BA6
:1024200009939DF81B30013B0493099B019A1A60A4
:10243000002308931DE00198FFF786FB0390039BA0
:10244000002B0ED0059B5B790133DAB2059B5A71E4
:10245000099B039A1A60039B019A1A60039B0993D4
:1024600004E0059800F00EF8002307E0089B013314
:102470000893089A049B9A42DDD3059B18460BB03B
:102480005DF804FB00B58BB00190019B0793079B9F
:102490005B798DF81B30019B08939DF81B30013B45
:1024A00005930023099305E0089B1B680893099B8B
:1024B00001330993099A059B9A42F5D3089B1B683F
:1024C0000493019B0893002309930BE0089B1B686E
:1024D000039308990498FFF779FB039B0893099BE2
:1024E000013309939DF81B30099A9A42EED300BF3D
:1024F00000BF0BB05DF804FB00B585B00190019BF7
:102500000393039B043301211846FFF743FA00BFEE
:1025100005B05DF804FB00B587B00190019B059301
:10252000059B043301211846FFF74CFA0346039339
:1025300003AB0493049B1B78002B02D10198FFF797
:10254000A1FF00BF07B05DF804FB000000B591B02B
:102550000390029101920093039B002B03D1434906
:10256000B620FFF7BAF9039B0993039B0F93099BCE
:10257000DB881A46099B5B7903FB02F3043B089353
:10258000009A089B9A4203D33849C420FFF7A5F963
:10259000099BDB880793009B1A1D079BB2FBF3F393
:1025A0000E93009B0433079AB3FBF2F2079901FBE9
:1025B00002F29B1A0D93019B1A68009B1344089A20
:1025C0009A4203D2089A009BD31A01E0019B1B6830
:1025D0000C93019B0C9A1A6005E00F9B1B680F93EC
:1025E0000E9B013B0E930E9B002BF6D100230B9309
:1025F000079A0D9BD31A0A930A9A0C9B934228BF01
:1026000013460A932AE0029A0B9B134406930F9AEF
:102610000D9B1344043305939DF84830002B05D0DF
:102620000A9A0599069802F00DFE04E00A9A0699A6
:10263000059802F007FE00230D930F9B1B680F9374
:102640000C9A0A9BD31A0C930B9A0A9B13440B9374
:10265000079A0C9B934228BF13460A930C9B002BAE
:10266000D1D100BF00BF11B05DF804FB7C66000053
:1026700000B589B00590049103920293039B0793E0
:1026800007AA00230093029B04990598FFF75EFFB9
:10269000079B039A9A4203D00349F620FFF71DF9DE
:1026A00000BF09B05DF804FB7C66000000B589B08E
:1026B0000590049103920293039B079307AA0123B9
:1026C0000093029B04990598FFF740FF079B039A2C
:1026D0009A4204D004494FF48070FFF7FEF800BF1F
:1026E00009B05DF804FB00BF7C66000082B0019079
:1026F000019B9B6800229A60019B9B6800221A61E3
:10270000019B9B6800225A61019B9B680022DA6052
:10271000019B9B6800225A60019B9B6800221A6003
:1027200000BF02B07047000000B585B0019001986D
:1027300000F00EF80390039B002B01D0039B00E0F8
:10274000024B184605B05DF804FB00BFD8660000D8
:1027500086B00190164B0593164B04931FE0049A24
:10276000059BD31ADB10DA0F13445B10DB00059ACC
:1027700013440393039B1B680293029A019B9A42A2
:1027800002D9039B04930AE0029A019B9A4203D266
:10279000039B0833059302E0039B5B6804E0059A02
:1027A000049B9A42DBD30023184606B0704700BF53
:1027B000AC6A0000C46B000000B589B001900091C4
:1027C000009B0793019B1B788DF80C30019B5B6885
:1027D0000493019B9B68DBB28DF81430019BDB688E
:1027E0000693074A079B52F823300649079A51F887
:1027F000221003AA1046984700BF09B05DF804FBF9
:10280000640600206C06002000B589B0019000919C
:10281000009B0793019B1B788DF80C30019B5B6834
:102820000493019B9B68DBB28DF81430019BDB683D
:102830000693074A079B52F823300649079A51F836
:10284000221003AA1046984700BF09B05DF804FBA8
:10285000640600206C06002030B58FB00390029112
:102860000192039B1B780C932C490C9B019A41F815
:102870002320029B1A692A490C9B41F823200C9BB8
:10288000012B07D1029B5B7F002B03D125497620CA
:10289000FFF723F8029B5B7F1946234A0C9B1344E6
:1028A0000A461A70029B04AC1D460FCD0FC495E872
:1028B0000F0084E80F000C9B089300230D93039BEB
:1028C0001B781A46184B9B5C002B0DD0039B181DE0
:1028D000019B002B01D0154A00E0002204AB1946F1
:1028E00001F09AFA0D9014E0039B1B781A460E4BE8
:1028F0009B5C002B0DD1039B03F10C00019B002B73
:1029000001D00B4A00E0002204AB194600F008FC9D
:102910000D900D9B18460FB030BD00BF640600201F
:102920006C060020C46B000074060020B92700006C
:102930000928000008B5064B1B68002B03D1054988
:102940005120FEF7CAFF024B1B68984700BF08BD25
:1029500078060020206C000082B00190019B044AA0
:10296000934201D1034B00E00023184602B07047A8
:10297000002000407806002000B587B0019000914B
:10298000019B002B03D118497720FEF7A6FF019881
:10299000FFF7E2FF0590059B002B1ED000238DF86A
:1029A00013300020FEF752FF059B1B79002B03D04C
:1029B00001238DF8133005E0059B009A1A60059BF2
:1029C00001221A710020FEF755FF9DF81330002BED
:1029D00003D011230393039B02E000230393039B83
:1029E000184607B05DF804FB206C000000B585B008
:1029F0000190019B002B03D10A499B20FEF76DFF3C
:102A00000198FFF7A9FF0390039B002B05D0039BC0
:102A100000221A60039B00221A7100BF05B05DF806
:102A200004FB00BF206C000082B003468DF8073025
:102A30009DF90730002B0CDB9DF8073003F01F02D7
:102A400005499DF907305B09012000FA02F241F8BF
:102A5000232000BF02B0704700E100E082B00346CF
:102A60008DF807309DF90730002B13DB9DF80730F8
:102A700003F01F0209499DF907305B09012000FAA4
:102A800002F2203341F82320BFF34F8F00BFBFF382
:102A90006F8F00BF00BF02B0704700BF00E100E0D1
:102AA00082B0034600918DF807309DF90730002B66
:102AB0000ADB009BDAB20C499DF907305201D2B211
:102AC0000B4483F800230BE0009BDAB207499DF822
:102AD000073003F00F03043B5201D2B20B441A76C5
:102AE00000BF02B0704700BF00E100E000ED00E071
:102AF00082B00190019B1B0B5BB2184602B070477D
:102B000000B583B003460A468DF8073013468DF8AA
:102B100006309DF80630072B03D908496B20FEF7D5
:102B2000DCFE9DF806209DF9073011461846FFF798
:102B3000B7FF00BF03B05DF804FB00BF786C000076
:102B400000B583B003468DF807309DF9073018466D
:102B5000FFF76AFF00BF03B05DF804FB00B583B068
:102B600003468DF807309DF907301846FFF776FFCA
:102B700000BF03B05DF804FB84B001900B46ADF8D4
:102B80000230BDF80230019A134400221A60BDF8E9
:102B90000230019A13441B680393039B00BF04B0E7
:102BA000704782B001900B46ADF80230BDF802309C
:102BB000019A13441B68002B14BF01230023DBB2CE
:102BC000184602B0704782B001900091019B009AB4
:102BD000C3F8042300BF02B0704782B00190009197
:102BE000019BD3F80423009B1340002B14BF012347
:102BF0000023DBB2184602B0704782B0019000910A
:102C0000019B009AC3F8082300BF02B0704784B04C
:102C10000190019BD3F880340393019B039AC3F87E
:102C20008024039B184604B0704782B00190019B3A
:102C30000422C3F8002500BF02B0704782B00190A3
:102C4000019B0022C3F8002500BF02B0704784B08A
:102C5000039002910192039B019AC3F81425039BF0
:102C6000029AC3F80C2500BF04B0704700B583B0CA
:102C700001904FF0FF324FF0FF310198FFF7E7FF6F
:102C800000BF03B05DF804FB82B00190019BD3F854
:102C90000C35184602B0704782B00190019BD3F802
:102CA0001435184602B0704782B00190019BD3F8EA
:102CB0000835184602B0704782B00190019BD3F8E6
:102CC0001035184602B0704784B00390029101920B
:102CD000039B029AC3F80825039B019AC3F81025A9
:102CE00000BF04B0704700B583B001904FF0FF32D1
:102CF0004FF0FF310198FFF7E7FF00BF03B05DF829
:102D000004FB82B00190019BD3F81835DBB2184662
:102D100002B0704782B001900B468DF803309DF8E9
:102D20000320019BC3F81C2500BF02B0704782B08E
:102D300001900B468DF803309DF80330019A13443F
:102D400001221A6000BF02B0704782B001900B46AA
:102D50008DF8033013468DF802309DF803209DF85E
:102D600002301343DBB21A46019BC3F86C2500BF47
:102D700002B0704782B001900091019B009AC3F8A5
:102D8000242500BF02B0704700B583B00190019BBD
:102D90001B68184600F0A4F80346002B04D10B4929
:102DA0004FF4F670FEF799FD019B1B681F2B02D8AC
:102DB0004FF0A04306E0019B1B6803F01F02019B3C
:102DC0001A60034B184603B05DF804FBA86C0000C2
:102DD0000003005000B585B00190084611461A4620
:102DE00003468DF803300B468DF8023013468DF8FC
:102DF000013001AB1846FFF7C7FF03909DF8032091
:102E00009DF802305B001A439DF801309B001A4385
:102E10009DF818301B0242EA03019DF81C301B0488
:102E2000019A1943039B02F5E07243F8221000BF98
:102E300005B05DF804FB00B585B003900023019355
:102E4000002300930023012201210398FFF7C2FF12
:102E500000BF05B05DF804FB00B585B003900B46DC
:102E60008DF80B309DF80B30002201920022009269
:102E7000002200210398FFF7ADFF00BF05B05DF809
:102E800004FB00B585B00390002301930023009359
:102E90000023012200210398FFF79CFF00BF05B02B
:102EA0005DF804FB00B585B0019001AB1846FFF753
:102EB0006BFF0390019B012202FA03F3194603986A
:102EC00000F004F800BF05B05DF804FB82B001908B
:102ED0000091019B009AC3F8082500BF02B070471B
:102EE00084B00190019B5B09029300230393029B32
:102EF000002B03D0029B012B04D007E04FF0FF33DF
:102F0000039303E04FF6FF73039300BF019B03F0AD
:102F10001F030193039A019B22FA03F303F00103B9
:102F2000002B14BF01230023DBB2184604B0704706
:102F300000B583B001900091009B1B68B3F1FF3F87
:102F400009D0009B1B681846FFF7ACFF009B1B686D
:102F50001846FFF770FF009B5B68B3F1FF3F05D099
:102F6000009B5B6800211846FFF776FF019B1A68FB
:102F7000009B9B6919461046FFF7FCFE019B1868F1
:102F8000009B597D009B1B7D1A46FFF7DEFE019BCF
:102F90001868009B1968009B5B681A46FFF757FE8C
:102FA000009B1B7D012B22D1009B9B68B3F1FF3F4F
:102FB00005D0009B9B6800211846FFF74DFF009B42
:102FC000DB68B3F1FF3F09D0009BDB681846FFF7D1
:102FD00069FF009BDB681846FFF72DFF019B18680F
:102FE000009BD968009B9B681A46FFF76DFE00BFE7
:102FF00003B05DF804FB000000B583B001900B4600
:103000008DF80330019B1B684FF48E711846FFF753
:10301000B3FD019B1B684FF4A2711846FFF7ACFD8E
:10302000019B1B680E491846FFF7CDFD019B1B68ED
:103030001846FFF75DFD03461A469DF80330194612
:103040001046FFF75DFD019B1B681846FFF750FD1A
:1030500003461846FFF774FD00BF03B05DF804FB9C
:103060008000020000B583B00190019B1B680849F5
:103070001846FFF7C2FD019B1B681846FFF738FD95
:1030800003461846FFF76AFD00BF03B05DF804FB76
:103090008402020000B587B00190019B1B681846AE
:1030A000FFF7F2FD0590019B1B681846FFF7F4FD42
:1030B0000490019B1B681846FFF7F6FD0390019BE7
:1030C0001B681846FFF7F8FD0290019B1B68184625
:1030D000FFF7CCFD019B1B681846FFF704FE059B1C
:1030E000B3F1FF3F02D00598FFF7CBFE049BB3F18D
:1030F000FF3F02D00498FFF7C4FE029BB3F1FF3FED
:1031000002D00298FFF7BDFE039BB3F1FF3F02D050
:103110000398FFF7B6FE00BF07B05DF804FB0000A0
:1031200000B587B0039002910192029B002B03D15E
:103130002D49AA20FEF7D1FB039B1B791A462C23AD
:1031400003FB02F3294A1344049300230593049BD1
:1031500093F82A30002B03D008230593059B3EE00B
:10316000039B1A68039B1B791946214B53F82130A6
:1031700019461046FFF700FC0346002B03D011232D
:103180000593059B2BE002990398FFF7D1FE049B62
:10319000019A5A60029B1A69049B1A60049B5B683F
:1031A000002B05D0029B1B7F19460398FFF724FFD5
:1031B000039B1B681846FFF738FD049B00229A61A9
:1031C000049B0022DA61049B002283F82920049BDF
:1031D00000225A61049B012283F82A20059B18468D
:1031E00007B05DF804FB00BFE06C00008006002023
:1031F000386D000000B585B00190019B1B791A461F
:103200002C2303FB02F3114A13440393019B1B6815
:103210001846FFF713FD039B5B68002B02D0019853
:10322000FFF720FF0198FFF735FF019B1B68184649
:10323000FFF7DCFB039B002283F82A20039B00227C
:103240005A6000BF05B05DF804FB00BF8006002097
:1032500000B585B0019000914FF48E710198FFF791
:103260008BFC009B9A68009B1B6A13441B788DF8AB
:103270000F30009B1B6A5A1C009B1A629DF80F308E
:1032800019460198FFF746FD00BF05B05DF804FB45
:1032900000B585B001900091009B5B69039316E037
:1032A000009B93F82830DBB2002B01D0002314E000
:1032B0004FF48E710198FFF774FC034683F001030D
:1032C000DBB2002BECD100990198FFF7C1FF009B06
:1032D0001B6A039A9A42EBD80123184605B05DF8A1
:1032E00004FB000000B587B0039002910192039B9C
:1032F0001B791A462C2303FB02F33C4A1344049324
:10330000049B93F82A30012B04D039494FF48C7078
:10331000FEF7E3FA029B002B04D1354940F2191065
:10332000FEF7DBFA019B002B04D131494FF48D707D
:10333000FEF7D3FA039800F05DF80346002B03D0A4
:1033400011230593059B4CE0049B019A5A61049B51
:10335000029A9A60049B00221A62049B002283F85E
:10336000282000230593039B1B684FF48E71184699
:10337000FFF702FC039B1B6808211846FFF7D7FCE8
:10338000039B1B6804991846FFF762FF049B5B6868
:10339000002B25D1039B1B6804991846FFF778FF83
:1033A000034683F00103DBB2002B02D00F23059309
:1033B00013E000BF039B1B684FF48E711846FFF7A4
:1033C000F0FB034683F00103DBB2002BF2D1039B39
:1033D0001B680C211846FFF7AAFC049B00225A61C7
:1033E000059B184607B05DF804FB00BF800600206F
:1033F000E06C000082B00190019B1B791946074ADE
:103400002C2303FB01F3134414331B68002B14BF5C
:1034100001230023DBB2184602B07047800600206B
:1034200010B582B001900091009B9B69002B08D1E0
:103430004FF484710198FFF79FFB0198FFF761FC3F
:1034400013E04FF484710198FFF796FB009BDA6854
:10345000009B5B6AD4180198FFF753FC0346237066
:10346000009B5B6A5A1C009B5A6202B010BD00B5FB
:1034700089B003900291019201238DF81030029BD4
:103480000693019B0593039B5B68039A116804AA4A
:103490001046984700BF09B05DF804FB00B587B03F
:1034A0000190009100238DF80830009B0493019B4C
:1034B0009B680393019B00225A61019B5B68019A00
:1034C000116802AA1046984700BF07B05DF804FBD8
:1034D00000B58BB0019000914FF400710198FFF797
:1034E0007CFB0346002B39D04FF492710198FFF713
:1034F00058FB0346002B31D04FF492710198FFF72F
:103500003BFB4FF401710198FFF777FB009B93F8A9
:10351000293083F00103DBB2002B03D00421019892
:10352000FFF705FC02238DF80C300198FFF76FFBC5
:1035300003460693009B9B690593009BDB680493FD
:10354000009B00229A61009B0022DA61009B5B686D
:10355000009A116803AA1046984752E00421019886
:10356000FFF73BFB0346002B4BD04FF484710198CF
:10357000FFF717FB0346002B43D000990198FFF794
:103580004FFF009B9A69009B5B6A9A4239D1009B6E
:10359000DB69002B19D0009BDB680993009B5B6AF9
:1035A0000893009BDA69009B9A61009B1A69009B53
:1035B000DA60009B0022DA61009B00225A62099ABD
:1035C00008990098FFF753FF1BE0009B93F8293000
:1035D00083F00103DBB2002B03D004210198FFF735
:1035E000A6FB4FF401710198FFF707FB009B002237
:1035F0009A61009B596A009BDB681A460098FFF7A6
:1036000036FF4FF48E710198FFF7CBFA0346002B7B
:1036100024D0009B5B690793009B1B6A079A9A4220
:103620000DD9009B93F82830DBB283F00103DBB2A5
:10363000002B04D000990198FFF70AFE0EE04FF42A
:103640008E710198FFF798FA009B5B69002B05D0FB
:10365000009B5B6919460098FFF720FF4FF4A271A9
:103660000198FFF79EFA0346002B1CD04FF4A2717D
:103670000198FFF781FA009B93F82930002B03D0C3
:1036800000210198FFF753FB009B9B69002B0AD098
:10369000009B00229A61009B596A009BDB681A46D6
:1036A0000098FFF7E4FE00BF0BB05DF804FB0000DC
:1036B00008B503490348FFF70BFF00BF08BD00BF73
:1036C000800600200020004082B003468DF80730BD
:1036D0009DF90730002B0CDB9DF8073003F01F022B
:1036E00005499DF907305B09012000FA02F241F813
:1036F000232000BF02B0704700E100E082B0034623
:103700008DF807309DF90730002B13DB9DF807304B
:1037100003F01F0209499DF907305B09012000FAF7
:1037200002F2203341F82320BFF34F8F00BFBFF3D5
:103730006F8F00BF00BF02B0704700BF00E100E024
:1037400082B0034600918DF807309DF90730002BB9
:103750000ADB009BDAB20C499DF907305201D2B264
:103760000B4483F800230BE0009BDAB207499DF875
:10377000073003F00F03043B5201D2B20B441A7618
:1037800000BF02B0704700BF00E100E000ED00E0C4
:1037900082B00190019B03F06043B3F1005F0CBF66
:1037A00001230023DBB2184602B0704782B00190BB
:1037B000019B1B0B5BB2184602B0704700B583B08B
:1037C00003460A468DF8073013468DF806309DF8FB
:1037D0000630072B03D908496B20FEF77EF89DF8C9
:1037E00006209DF9073011461846FFF7A9FF00BFD4
:1037F00003B05DF804FB00BF3C6D000000B583B072
:1038000003468DF807309DF907301846FFF75CFF37
:1038100000BF03B05DF804FB00B583B003468DF82C
:1038200007309DF907301846FFF768FF00BF03B067
:103830005DF804FB84B001900B46ADF80230BDF892
:103840000230019A134400221A60BDF80230019A36
:1038500013441B680393039B00BF04B0704782B0FE
:1038600001900B46ADF80230BDF80230019A1344C6
:103870001B68002B14BF01230023DBB2184602B0E3
:10388000704782B001900091019BD3F80022009B09
:10389000DB431A40019BC3F8002200BF02B070470F
:1038A00082B001900091019B009AC3F8042300BFED
:1038B00002B0704782B001900091019B009AC3F85A
:1038C000082300BF02B0704784B00190019BD3F879
:1038D00080340393019B039AC3F88024039B18460A
:1038E00004B0704782B00190019B0822C3F8002504
:1038F00000BF02B0704782B00190019B0022C3F864
:10390000002500BF02B0704784B00390029101927D
:10391000039B029AC3F80C25039B019AC3F8142554
:1039200000BF04B0704700B583B001904FF0FF3284
:103930004FF0FF310198FFF7E7FF00BF03B05DF8DC
:1039400004FB82B00190019BD3F80C35184602B0FD
:10395000704782B00190019BD3F81435184602B02D
:10396000704782B00190019BD3F80835184602B029
:10397000704782B00190019BD3F81035184602B011
:10398000704784B0039002910192039B029AC3F89E
:103990000825039B019AC3F8102500BF04B07047A7
:1039A00000B583B001904FF0FF324FF0FF31019826
:1039B000FFF7E7FF00BF03B05DF804FB82B00190A2
:1039C0000B468DF803309DF80330019A1344012211
:1039D0001A6000BF02B0704782B001900B468DF8AC
:1039E000033013468DF802309DF803209DF8023015
:1039F0001343DBB21A46019BC3F86C2500BF02B02B
:103A0000704782B001900091019B009AC3F8242571
:103A100000BF02B0704784B0039002910192029AF5
:103A2000039BC3F84425039B019AC3F8482500BFB4
:103A300004B0704782B00190019BD3F84C35184612
:103A400002B0704782B00190019BD3F83C35184614
:103A500002B0704700B583B00190019B1B68184607
:103A600000F0A4F80346002B04D10B494FF4F67084
:103A7000FDF733FF019B1B681F2B02D84FF0A043BB
:103A800006E0019B1B6803F01F02019B1A60034BB9
:103A9000184603B05DF804FB6C6D00000003005095
:103AA00000B585B00190084611461A4603468DF8C8
:103AB00003300B468DF8023013468DF8013001AB10
:103AC0001846FFF7C7FF03909DF803209DF80230CA
:103AD0005B001A439DF801309B001A439DF8183093
:103AE0001B0242EA03019DF81C301B04019A194392
:103AF000039B02F5E07243F8221000BF05B05DF8A9
:103B000004FB00B585B003900023019300230093CC
:103B10000023012201210398FFF7C2FF00BF05B077
:103B20005DF804FB00B585B003900B468DF80B30B3
:103B30009DF80B3000220192002200920022002109
:103B40000398FFF7ADFF00BF05B05DF804FB00B5BB
:103B500085B00390002301930023009300230122EA
:103B600000210398FFF79CFF00BF05B05DF804FB40
:103B700000B585B0019001AB1846FFF76BFF0390CD
:103B8000019B012202FA03F31946039800F004F89E
:103B900000BF05B05DF804FB82B001900091019B6D
:103BA000009AC3F8082500BF02B0704784B00190A6
:103BB000019B5B09029300230393029B002B03D01C
:103BC000029B012B04D007E04FF0FF33039303E087
:103BD0004FF6FF73039300BF019B03F01F03019394
:103BE000039A019B22FA03F303F00103002B14BF95
:103BF00001230023DBB2184604B0704700B583B040
:103C000001900091009B1B68B3F1FF3F09D0009B1E
:103C10001B681846FFF7ACFF009B1B681846FFF7B0
:103C200070FF009B5B68B3F1FF3F05D0009B5B68B2
:103C300000211846FFF776FF019B1A68009B9B69DD
:103C400019461046FFF7DDFE019B1868009B597D61
:103C5000009B1B7D1A46FFF7BFFE019B1868009B67
:103C60001968009B5B681A46FFF74EFE009B1B7DA0
:103C7000012B22D1009B9B68B3F1FF3F05D0009B35
:103C80009B6800211846FFF74DFF009BDB68B3F1EE
:103C9000FF3F09D0009BDB681846FFF769FF009BD8
:103CA000DB681846FFF72DFF019B1868009BD96859
:103CB000009B9B681A46FFF764FE00BF03B05DF8E7
:103CC00004FB000000B583B001900B468DF8033073
:103CD000019B1B684FF488711846FFF7ABFD019BF1
:103CE0001B684FF490711846FFF7A4FD019B1B68F9
:103CF0004FF492711846FFF79DFD019B1B684FF42E
:103D0000A2711846FFF796FD019B1B684FF4AC713A
:103D10001846FFF78FFD019B1B680F491846FFF7F8
:103D2000BFFD019B1B681846FFF740FD03461A467E
:103D30009DF8033019461046FFF740FD019B1B68B4
:103D40001846FFF733FD03461846FFF757FD00BF3F
:103D500003B05DF804FB00BF1003420000B583B060
:103D60000190019B1B6808491846FFF7A3FD019BC2
:103D70001B681846FFF71AFD03461846FFF74CFD6F
:103D800000BF03B05DF804FB1003420000B587B02C
:103D90000190019B1B681846FFF7D3FD0590019B1E
:103DA0001B681846FFF7D5FD0490019B1B68184659
:103DB000FFF7D7FD0390019B1B681846FFF7D9FD5D
:103DC0000290019B1B681846FFF7ADFD019B1B6825
:103DD0001846FFF7E5FD059BB3F1FF3F02D00598BC
:103DE000FFF7B5FE049BB3F1FF3F02D00498FFF745
:103DF000AEFE029BB3F1FF3F02D00298FFF7A7FE91
:103E0000039BB3F1FF3F02D00398FFF7A0FE00BF72
:103E100007B05DF804FB000000B587B00390029185
:103E20000192029B002B03D12B49CF20FDF755FDBA
:103E3000039B1B791A461346DB0013449B00274A59
:103E40001344049300230593049B93F82030002B24
:103E500003D008230593059B3AE0039B1A68039B54
:103E60001B7919461E4B53F8213019461046FEF7B0
:103E700083FD0346002B03D011230593059B27E008
:103E800002990398FFF7BAFE049B019A5A60029BBD
:103E90001A69049B1A60049B5B68002B05D0029B87
:103EA0001B7F19460398FFF70DFF039B1B681846FD
:103EB000FFF718FD049B00229A61049B0022DA613F
:103EC000049B00225A61049B012283F82020059B59
:103ED000184607B05DF804FBA46D0000AC06002096
:103EE000FC6D000000B585B00190019B1B791A465E
:103EF0001346DB0013449B002A4A13440393019B9F
:103F00001B680293039B5B68002B02D00198FFF7AC
:103F100025FF20210298FFF7B4FC039B9B69002B2F
:103F200008D04FF4A2710298FFF784FC0421029894
:103F3000FFF744FD4FF4AC710298FFF77BFC0C21B6
:103F40000298FFF73BFD00BF4FF4AC710298FFF7FA
:103F500086FC034683F00103DBB2002BF4D1039B04
:103F60009B69002B0AD04FF4A2710298FFF777FCEF
:103F7000034683F00103DBB2002BE5D10298FFF783
:103F8000BAFC0198FFF702FF0298FEF72FFD039B92
:103F9000002283F82020039B00225A6000BF05B056
:103FA0005DF804FBAC06002000B589B003900291D7
:103FB0000192039B1B791A461346DB0013449B00B6
:103FC000574A13440593059B93F82030012B04D0E6
:103FD000544940F25310FDF780FC029B002B04D1A2
:103FE00050494FF4AA70FDF778FC019B002B04D1D7
:103FF0004C4940F25510FDF770FC039B1B79002BD8
:1040000003D1019BB3F5803F04D346494FF4AB7015
:10401000FDF763FC0298FFF7BBFB034683F0010347
:10402000DBB2002B03D010230793079B73E00398A8
:1040300000F07AF80346002B03D011230793079B67
:1040400069E0059B019A5A61059B029A9A600023D8
:104050000793039B1B684FF490711846FFF7EAFB28
:10406000039B1B684FF4AC711846FFF7E3FB039BFF
:104070001868059B9968059B5B691A46FFF7CBFC9E
:10408000039B1B6808211846FFF798FC059B5B689B
:10409000002B3FD1039B1B684FF490711846FFF72C
:1040A000DEFB03468DF81B30039B1B684FF4AC719D
:1040B0001846FFF7D4FB03468DF81A309DF81B30E5
:1040C00083F00103DBB2002B06D09DF81A3083F099
:1040D0000103DBB2002BDDD19DF81A30002B02D09A
:1040E0000F23079313E0039B1B680C211846FFF76F
:1040F00065FC00BF039B1B684FF4AC711846FFF7CB
:10410000AEFB034683F00103DBB2002BF2D1059B2B
:1041100000225A61079B184609B05DF804FB00BFF6
:10412000AC060020A46D000082B00190019B1B79B9
:104130001946084A0B46DB000B449B00134414331A
:104140001B68002B14BF01230023DBB2184602B00A
:10415000704700BFAC06002000B589B00390029103
:10416000019201238DF81030029B0693019B059369
:10417000039B5B68039A116804AA1046984700BF26
:1041800009B05DF804FB00B587B0019000910023F1
:104190008DF80830009B0493019B9B680393019B5F
:1041A00000225A61019B5B68019A116802AA1046BD
:1041B000984700BF07B05DF804FB00B589B00190D7
:1041C00000914FF492710198FFF749FB0346002BD1
:1041D00022D04FF492710198FFF72CFB02238DF847
:1041E00008300198FFF770FB034605930198FFF72D
:1041F00029FC03460493009BDB680393009B002289
:104200009A61009B0022DA61009B5B68009A11684A
:1042100002AA104698473BE04FF488710198FFF7D7
:104220001EFB0346002B33D04FF488710198FFF733
:1042300001FB0198FFF706FC0790009B9B69079A1A
:104240009A4225D1009BDB69002B17D0009BDB68CD
:10425000069320210198FFF714FB009BDA69009B6D
:104260009A61009B1A69009BDA60009B0022DA6168
:10427000069A07990098FFF76FFF09E0009B00225C
:104280009A61009BDB681A4607990098FFF764FF64
:104290004FF4A2710198FFF7E2FA0346002B18D001
:1042A0004FF4A2710198FFF7C5FA009B9B69002BA0
:1042B0000FD0009B00229A61009B0022DA610198D6
:1042C000FFF7C0FB0146009BDB681A460098FFF72A
:1042D00043FF4FF490710198FFF7C1FA0346002B9A
:1042E00014D04FF490710198FFF7A4FA0C210198B3
:1042F000FFF764FB009B5B69002B07D00198FFF779
:1043000099FB034619460098FFF73DFF4FF4AC7147
:104310000198FFF7A4FA0346002B10D04FF4AC71BC
:104320000198FFF787FA009B5B69002B07D0019883
:10433000FFF780FB034619460098FFF724FF00BFF4
:1043400009B05DF804FB000008B503490348FFF716
:1043500034FF00BF08BD00BFAC06002000200040B5
:1043600082B003468DF807309DF90730002B0CDB37
:104370009DF8073003F01F0205499DF907305B09DE
:10438000012000FA02F241F8232000BF02B070477A
:1043900000E100E082B0034600918DF807309DF9FE
:1043A0000730002B0ADB009BDAB20C499DF907307D
:1043B0005201D2B20B4483F800230BE0009BDAB227
:1043C00007499DF8073003F00F03043B5201D2B2B6
:1043D0000B441A7600BF02B0704700BF00E100E056
:1043E00000ED00E000B585B00190019B002B0AD0E4
:1043F000074B43F001030393019B9B010293039B33
:104400000298984700E000BF05B05DF804FB00BFCC
:10441000506F000000B583B00190019B002B0AD0C3
:104420004FF47A70FFF7DEFF019B013B0193019B84
:10443000002BF5D100E000BF03B05DF804FB0000E5
:1044400008B5194B0022C3F81025174B0322C3F8F7
:104450000825164B164AC3F81025144B154AC3F805
:104460001425124B0122C3F80425134B0122C3F873
:104470004423114B0122C3F804230F4B0022C3F83D
:10448000082507210B20FFF785FF0B20FFF768FFAA
:10449000054B01221A60084B01229A60064B01224B
:1044A0001A6000BF08BD00BF0080004000F001405E
:1044B00000B100404080004000B00040034B0022AB
:1044C0001A60034B00221A7000BF70477416002058
:1044D00058000020F0B5BBB04FF0FF3339930023F4
:1044E0003893002337930123369321E03E4A369BCD
:1044F00052F82330399A9A4204D93B4A369B52F8F3
:1045000023303993384A369B52F82330389A9A42EE
:1045100004D2354A369B52F823303893324A369BC0
:1045200052F82330379A13443793369B013336932E
:10453000369BB3F57A7FD9DD379B07EE903AB8EE1C
:10454000677ADFED2A6AC7EE267ACDED357A379B9A
:1045500007EE903AB8EE677ADFED246AC7EE267A66
:10456000DFED236A87EEA67ADFED206AC6EE877A52
:10457000CDED347A9DED347ADFED1E6AC7EE267AF2
:10458000B7EE007A77EEC77A9FED1B7A67EE877AEF
:10459000CDED337A359800F08FFC04460D46349803
:1045A00000F08AFC06460F46339800F085FC024670
:1045B0000B4606A8CDE90423CDE90267CDE9004505
:1045C000389B399A0D4900F017FE0D4A0D4BD31A4E
:1045D000DB081B0443F0030306AA0B491846FCF74B
:1045E000EDFB00BF3BB0F0BDD006002000007A44D8
:1045F00000007A460000004700247449006E000065
:104600003062000018620000406E000000B585B006
:1046100000210020FCF7F8F80090009B002B04D04C
:10462000824A7D210098FDF765F8FCF783F8804AFF
:10463000804BD31ADB081B0443F003037E49184662
:10464000FCF7AEFB7A4A7B4BD31ADB081B0443F022
:1046500003037A491846FCF7A3FB4FF0804301227D
:10466000DA604FF080430022C3F818254FF08043F2
:104670000022C3F804214FF0804301229A6000BF5A
:104680004FF08043D3F80431002BF9D0684A694BCE
:10469000D31ADB081B0443F0030369491846FCF7EF
:1046A0007FFB684B00225A604FF080430022C3F822
:1046B00000214FF0804301221A6000BF4FF0804379
:1046C000D3F80031002BF9D0594A5A4BD31ADB08E2
:1046D0001B0443F003035C491846FCF761FBFFF73A
:1046E000AFFE0023039313E0FFF7E8FE00BF574B34
:1046F0001B78DBB283F00103DBB2002BF7D1FFF7AD
:10470000E9FE4FF4FA60FFF785FE039B0133039344
:10471000039B052BE8DD4FF080430022C3F80C21FA
:104720004FF0804301221A6100BF4FF08043D3F85D
:104730000C31002BF9D03E4A3E4BD31ADB081B0448
:1047400043F0030342491846FCF72AFB0023029377
:1047500013E0FFF7B3FE00BF3C4B1B78DBB283F0E6
:104760000103DBB2002BF7D1FFF7B4FE4FF4FA6080
:10477000FFF750FE029B01330293029B052BE8DDFD
:104780002B4A2C4BD31ADB081B0443F0030331499B
:104790001846FCF705FB4FF080430122DA604FF02A
:1047A00080430122C3F818254FF080430022C3F84C
:1047B00004214FF0804301229A6000BF4FF08043F4
:1047C000D3F80431002BF9D0194A1A4BD31ADB085D
:1047D0001B0443F0030320491846FCF7E1FA0023C9
:1047E000019313E0FFF76AFE00BF184B1B78DBB2A2
:1047F00083F00103DBB2002BF7D1FFF76BFE4FF420
:10480000FA60FFF707FE019B01330193019B052B23
:10481000E8DD074A074BD31ADB081B0443F0030308
:104820000E491846FCF7BCFAFEE700BF446E0000D4
:104830003062000018620000A06E0000A46E00004C
:10484000C86E000000B00040DC6E00005800002080
:10485000F86E00000C6F0000346F00003C6F000029
:1048600082B0184BD3F80031002B27D0154B002213
:10487000C3F80021144B1B78DBB283F00103DBB2D9
:10488000002B1BD0114BD3F840350193104B1B6804
:10489000019AD01A0F4B1B685A1C0E490A60014638
:1048A0000D4A42F823100A4A019B1360094B1B680A
:1048B000B3F57A7F02D9044B01221A7000BF02B00F
:1048C000704700BF00B0004058000020008000404A
:1048D0007816002074160020D0060020BFF34F8FFA
:1048E00000BF064BDB6803F4E0620449044B13434A
:1048F000CB60BFF34F8F00BF00BFFDE700ED00E0CE
:104900000400FA0582B0164B1B680193154B1B6817
:104910000093019B082B1FD1009B052B1AD801A2E5
:1049200052F823F03D49000041490000454900008C
:10493000494900004D4900005149000001230CE0A5
:1049400001230AE0012308E0012306E0012304E03B
:10495000012302E0012300E00023184602B0704763
:10496000300100103401001082B0164B1B68019317
:10497000154B1B680093019B082B1FD1009B052B37
:104980001AD801A252F823F0A1490000A54900005D
:10499000A9490000AD490000B1490000B549000037
:1049A00001230CE001230AE0012308E0012306E0D3
:1049B000012304E0012302E0012300E00023184664
:1049C00002B07047300100103401001082B0164B65
:1049D0001B680193154B1B680093019B082B1FD18B
:1049E000009B052B1AD801A252F823F0054A0000BB
:1049F000094A00000D4A0000114A0000154A000053
:104A0000194A000001230CE000230AE0002308E01B
:104A1000002306E0002304E0002302E0002300E07E
:104A20000023184602B07047300100103401001016
:104A300082B0164B1B680193154B1B680093019BBA
:104A4000082B1FD1009B052B1AD801A252F823F086
:104A5000694A00006D4A0000714A0000754A000072
:104A6000794A00007D4A000001230CE000230AE09F
:104A7000002308E0002306E0002304E0002302E016
:104A8000002300E00023184602B0704730010010F8
:104A90003401001082B0164B1B680193154B1B6844
:104AA0000093019B082B1FD1009B052B1AD801A254
:104AB00052F823F0CD4A0000D14A0000D54A000048
:104AC000D94A0000DD4A0000E14A000001230CE061
:104AD00000230AE0002308E0002306E0002304E0AE
:104AE000002302E0002300E00023184602B07047D4
:104AF000300100103401001082B0164B1B68019386
:104B0000154B1B680093019B082B1FD1009B052BA5
:104B10001AD801A252F823F0314B0000354B0000A7
:104B2000394B00003D4B0000414B0000454B00005D
:104B300001230CE000230AE0002308E0002306E044
:104B4000002304E0002302E0002300E000231846D5
:104B500002B07047300100103401001082B0164BD3
:104B60001B680193154B1B680093019B082B1FD1F9
:104B7000009B052B1AD801A252F823F0954B000098
:104B8000994B00009D4B0000A14B0000A54B00007D
:104B9000A94B000001230CE001230AE0012308E0F7
:104BA000012306E0012304E0012302E0012300E0E9
:104BB0000023184602B07047300100103401001085
:104BC00082B0164B1B680193154B1B680093019B29
:104BD000082B1FD1009B052B1AD801A252F823F0F5
:104BE000F94B0000FD4B0000014C0000054C00009B
:104BF000094C00000D4C000000230CE000230AE0EB
:104C0000002308E0002306E0012304E0012302E082
:104C1000012300E00023184602B070473001001065
:104C20003401001008B5FFF7CBFF0346002B07D077
:104C30004FF010234FF08042D3F80832C2F85835B5
:104C400000BF08BD00BF044BD3F80034002BFAD0DE
:104C500000BF00BF704700BF00E0014000B583B057
:104C60000190054A019BC2F80435FFF7EBFF00BF36
:104C700003B05DF804FB00BF00E00140024B034AB3
:104C80001A6000BF704700BF5C0000200090D00396
:104C900008B5FFF737FE0346002B0ED04FF08043D8
:104CA0000022C3F80C214FF080430022C3F81021EA
:104CB0004FF080430022C3F83825FFF755FE034626
:104CC000002B76D04FF08053734AD3F80434C2F8E7
:104CD00020354FF08053704AD3F80834C2F8243599
:104CE0004FF080536C4AD3F80C34C2F828354FF09B
:104CF0008053694AD3F81034C2F82C354FF08053F2
:104D0000654AD3F81434C2F830354FF08053624A04
:104D1000D3F81834C2F834354FF080535E4AD3F8D4
:104D20001C34C2F840354FF080535B4AD3F820342E
:104D3000C2F844354FF08053574AD3F82434C2F8B0
:104D400048354FF08053544AD3F82834C2F84C35D4
:104D50004FF08053504AD3F82C34C2F850354FF0FE
:104D600080534D4AD3F83034C2F854354FF0805355
:104D7000494AD3F83434C2F860354FF08053464A7C
:104D8000D3F83834C2F864354FF08053424AD3F830
:104D90003C34C2F868354FF080533F4AD3F8403472
:104DA000C2F86C354FF080533B4AD3F84434C2F814
:104DB0007035FFF70BFE0346002B02D0374B384A05
:104DC0001A60FFF735FE0346002B03D0354BFB225C
:104DD000C3F81825FFF75EFE0346002B0AD0324BBE
:104DE0001B6823F00F02314B1B6803F00F032E49A1
:104DF00013430B60FFF780FE0346002B03D02C4BC0
:104E00004FF400721A60FFF7A9FE0346002B0DD085
:104E10004FF08043D3F8003403F00103002B05D09A
:104E20004FF080436FF00102C3F80024214BD3F808
:104E30008830204A43F47003C2F88830BFF34F8FA4
:104E400000BFBFF36F8F00BFFFF7ECFE4FF01023E2
:104E5000D3F80032002B05DB4FF01023D3F80432D7
:104E6000002B15DA0120FFF7F9FE4FF01023122274
:104E7000C3F80022FFF7E6FE4FF010231222C3F81A
:104E80000422FFF7DFFE0020FFF7E8FEFFF726FD14
:104E9000FFF7F4FE00BF08BD00C000408C56004084
:104EA0004881030000F00040E40E0040580200106A
:104EB0004096024000ED00E0C0F3C75191B14200BE
:104EC0004FEA40704FEAD2014FEA310101F16051DF
:104ED000B2F17F4F38BF704701F1605118BF41F404
:104EE0000021704710F000410020704701F000429F
:104EF0008B1AA3F16051B1F5801F0ADBB1F17F6F0E
:104F000009D242EAC102C10071F1004142EB507086
:104F100070471046704701285B4113F5001F04D805
:104F200042F0FE4040F400007047C90041EA507072
:104F300040EA020040F4800040F08040704700BF2B
:104F400010EE100A4FEA4000B0F17F4F0CBF012075
:104F50000020704710EE100A41000020B1F17F4F91
:104F600018BF50EB0000704710EE100A00F0004030
:104F7000704700BFB0EEC00A704700BF00B510EE2A
:104F8000100A00F003F800EE100A00BD4FF07F4356
:104F9000B3EB400F22D9410008BF704703EA40023B
:104FA000120E7F3A14DB172AA8BF70474FF6FF7323
:104FB000C0F27F03D340184220EA030018BF10F06C
:104FC000004F08BF70474FF40001D14040187047B0
:104FD00010F0004F0CBF00200248704718BF024875
:104FE00070470000000080BF0000C07F00B5014690
:104FF00010EE100A00F003F800EE100A00BD4FF0AA
:105000007F43B3EB400F98BF704713EA400207D0CD
:10501000120E7E3A0A6020EA530040F07C5070473E
:105020000A6000F00040704700B5014610EE100A1B
:1050300000F003F800EE100A00BD4FF07F43B3EB21
:10504000400F98BF704713EA400204BF00F00040D1
:10505000704711EB1262DCBF00F000407047FF2A7E
:105060003CBF00EBC150704740004FEA330070472F
:105070007F2805D8034B185C034B5B5C18407047D6
:1050800000207047646F0000E46F0000A0F161032E
:10509000192B98BF20387047A0F14103192B98BFF6
:1050A000203070477F2805D8034B185C034B5B5CAE
:1050B0001840704700207047646F0000E46F0000E4
:1050C000A0F16103192B98BF20387047A0F141036C
:1050D000192B98BF203070477F299ABF017001209B
:1050E0006FF02E0070475AB10A787F2A0AD800B1B3
:1050F0000260002119605960501A18BF01207047E2
:10510000002070476FF02E0070470000002816DB6B
:10511000002817DD0022B7EE000A0C4B10F0010F3B
:105120001CBFD3ED007A20EE270A4010043300287C
:10513000F4DC4AB1F7EE007A87EE800A704740420D
:105140000122E8E7B7EE000A704700BFBC7100001B
:1051500038B504460846A26842B1236861685D1C00
:105160008D4208BF00208B4208D2D054E3682BB197
:1051700021686268914201D2214698472368013331
:10518000236038BD70B54C1E09D41646C5B22946F9
:105190003046FFF7DDFF013CB4F1FF3FF7D170BDB2
:1051A00010F0100F08D108B510F4007F14BF3020A4
:1051B0002020FFF7E7FF08BD70470028B8BF404236
:1051C0007047000008B5034B5B689B681B689847F5
:1051D00008BD00BF6000002008B50921FFF7F2FFFD
:1051E00008BD000000B5FBF7F3F8024B18445DF86A
:1051F00004FB00BF080000000EB400B586B007AA8B
:1052000052F8041B05920390002304936FF00043AF
:10521000029301A800F070F806B05DF804EB03B04B
:105220007047037853B159B10144034613F8012F75
:1052300012B18B42FAD10B46181A70470346FBE7AE
:105240000346F9E7844640EA010313F0030F18D13F
:105250008446202A0BD32DE9F007B1E8F807A0E82F
:10526000F807A2F12002202AF7D2BDE8F007042AAD
:1052700007D351F8043B40F8043BA2F10402042A8E
:10528000F7D2002A05D011F8013B00F8013B013AA2
:10529000F9D16046704700F1010110F0030F11D001
:1052A00010F8012B002A23D010F0030F0AD010F8B9
:1052B000012B002A1CD010F0030F03D010F8012B93
:1052C000002A15D02DE970004FF001324FF08033E5
:1052D00050F8044BA4EB020525EA04051D4000D15B
:1052E000F6E7A0F1040070BC10F8012B002AFBD1F6
:1052F000A0EB0100704700002DE9F04F2DED048B6D
:1053000089B083460392002303600D4615F8011B04
:10531000002900F0AE86DFEDA48A00F09CBE0026D6
:1053200007E05E2866D146F4805601E046F040066C
:1053300015462A4612F8010B3028F2D81F2838D912
:10534000A0F12003102B34D801A151F823F000BFA5
:105350002D530000B3530000B353000095530000D9
:10536000B3530000B3530000B35300009B5300003D
:10537000B3530000B3530000B3530000A153000027
:10538000B3530000A7530000B3530000B353000011
:10539000AD53000046F08006CAE746F40046C7E772
:1053A00046F02006C4E746F01006C1E746F4007652
:1053B000BEE72A281ED1039B191D03911F68002FE9
:1053C000BCBF7F4246F010061078AA1C27EAE7759A
:1053D0002E2824D00027742845D07A2843D06C2862
:1053E00000F0C2804C2800F0C580682800F0D3800F
:1053F00091463BE0A0F13003DBB2092B88BF0027C8
:10540000E4D8002707EB8707303800EB470712F88E
:10541000010BA0F13003DBB2092BF3D9D6E71078EA
:105420002A280AD1039B191D03911F685078023264
:10543000002FD0DB46F48076CDE70132A0F13003B7
:10544000DBB2092B88BF0027F4D8002707EB8707BA
:10545000303800EB470712F8010BA0F13003DBB244
:10546000092BF3D9E4E7914619F8010B782800F2EB
:105470008480DFE810F01006820082008200820043
:10548000820082008200820082008200820082000C
:1054900082008200820082008200820082008200FC
:1054A00082008200820082008200820082008200EC
:1054B00082008200820082008200820082008200DC
:1054C000A3008200820082008200820082008200AB
:1054D00082008200820082008200820082008200BC
:1054E00082008200820082008200820082008200AC
:1054F000820082008200820082008200820082009C
:10550000C401E101E6018200820082008200820083
:10551000820082008200820082008200820082007B
:105520008200820082001E018200820082008200CE
:10553000820082008200820082008200A900530162
:10554000C601E301E801820053018200820082006B
:105550008200B9004101040182008200CE00820075
:105560004C01820082002001914619F8010B46F09F
:1055700001067BE746F0010691460C4B1C68002CA7
:1055800000F0658503AB019300972B4632465946E0
:10559000A04700F05CBD1078682809D002F101092D
:1055A00046F0040662E700BF0000C8427C160020F7
:1055B00046F0080602F10209507857E725215846BF
:1055C000FFF7C6FD00F043BD039B1A1D03921C7834
:1055D000013D5A4629463046FFF7E2FD214658462E
:1055E000FFF7B6FDB0463AE016F0080F08D0DBF83A
:1055F0000020039B191D03911B681A7000F027BD42
:10560000039B1A1D03921B68DBF800201A6000F050
:105610001EBD039B1A1D03921C688C4B002C08BFF7
:105620001C4626F4007816F4807F23D039462046A5
:10563000FFF7F7FD0646AD1B5A4629464046FFF7E1
:10564000AFFD06F1FF3A56B12746344417F8011B67
:105650005846FFF77DFDBC42F8D14FF0FF3A18F0F5
:10566000100F00F0F4845A4629462020FFF78AFDE7
:1056700000F0EDBC2046FFF70EFE0646DBE7039B7D
:105680001A1D03921B6816F0800F0CBF0024232400
:1056900046F4807608271A46002B00F0B48404AB49
:1056A0004FF0000806F40050DFF8A4C1A64600F051
:1056B0006ABC46F4005616F0800F1BD043F2780403
:1056C00043F25803782818BF1C4616F4807F01D097
:1056D00026F4007616F4804F32D0039B1A1D0392F5
:1056E0001B6816F0040F1FD01BB2002B20DA5B42A0
:1056F0002D242DE00024E8E716F0800F0CBF0024D5
:10570000302416F4807FE5D026F40076E2E716F424
:10571000807F07D026F400760024DBE746F480463D
:105720000024D7E70024D5E716F0080FDDD0DBB260
:1057300016F0200F61D116F0400F18BF202407E0AB
:10574000039B1A1D03921B6816F0040F50D09BB2E6
:1057500016F4807F00F0E68326F40076583820287F
:1057600000F23B8401A252F820F000BF97560000DF
:10577000DB5F0000DB5F0000DB5F0000DB5F000041
:10578000DB5F0000DB5F0000DB5F0000DB5F000031
:10579000DB5F0000DB5F0000DB5F0000515F0000AB
:1057A000DB5F0000DB5F0000DB5F0000DB5F000011
:1057B000515F0000DB5F0000DB5F0000DB5F00008B
:1057C000DB5F0000DB5F0000295F000097560000F0
:1057D000DB5F0000DB5F0000DB5F0000DB5F0000E1
:1057E000515F0000DB5F0000DB5F000097560000A8
:1057F00016F0080FACD0DBB2AAE72B24A8E746F4DA
:10580000005646F48066039B073323F0070303F139
:1058100008020392D3E90001FFF768FB08EE100AC3
:1058200016F4807F16D0B7B906F44067B7F5406F1D
:1058300014BF002701270EE046F4005646F4006628
:10584000E1E746F4005646F44066DCE7D471000018
:10585000A87100000627B0EE480AFFF771FB002888
:1058600040F0BB80B0EE480AFFF774FB804600288A
:1058700040F0CC80B0EE480AFFF776FB002840F0FD
:10588000CE8018EE103A08EE103A07A800EE103A53
:10589000FFF7ACFB079B03EB4303CA4A82FB0312EF
:1058A000DB17C3EBA2030793B5EE408AF1EE10FAC3
:1058B00040F0BF8006F44064B4F5806F0AD0B4F5C0
:1058C000406F40F06E81079BBB4203DA13F1040F77
:1058D00080F2678107984042FFF718FC28EE008AA3
:1058E0008DED028AB5EE408AF1EE10FA36D0B0EEB8
:1058F000480AFFF725FB002840F0B180F2EE047A59
:10590000B4EEE78AF1EE10FA0FDB079B0133F2EEFB
:10591000047A1A4688EE278A0133B4EEE78AF1EE5C
:1059200010FAF6DA8DED028A0792DDED027AB7EE13
:10593000007AF4EEC77AF1EE10FA0FD5079B013B1F
:10594000F2EE046A1A4667EEA67A013BF4EEC77AD5
:10595000F1EE10FAF6D4CDED027A079227B1B4F544
:10596000406F08BF07F1FF377842FFF7CFFBF6EE35
:10597000007A60EE277A9DED027A77EE877AB2EEB2
:10598000047AF4EEC77AF1EE10FA80F28180B0EE7C
:10599000678A002F00F0918006F40863B3F5006F6A
:1059A0007ED026F4006302937B1DED1A013D16F4B0
:1059B000805F00F0F380079A834B83FB0213A3EB15
:1059C000E27303EB4303D31A0233042B00F2E480A7
:1059D000DFE803F099DA9699DA00B5EEC08AF1EEC5
:1059E00010FA0CD416F4005F784C794B08BF1C46B3
:1059F00016F0200F08BF013426F4807611E616F465
:105A0000005F744C744B08BF1C46F5E716F4005F4A
:105A1000724C734B08BF1C4626F4807601E646F0B4
:105A20006006F1EE487A17EE903A2CE7079B0133B7
:105A3000079307980130FFF769FBB4EEC08AF1EED7
:105A400010FAF3DC02E0079B013B07930798FFF78E
:105A50005DFBB4EEC08AF1EE10FAF4D42AE7B5EE9D
:105A6000C08AF1EE10FA0CD416F4005F574C584B74
:105A700008BF1C4616F0200F08BF013426F48076BC
:105A8000CFE516F4005F534C534B08BF1C46F5E7B7
:105A9000079B01330793B2EE047A87EE878A78E793
:105AA000092FA8BF09273846FFF730FB60EE087AB8
:105AB000FCEEE77A17EE903A4BB926F400630293B6
:105AC000053D16F080073FF472AF47466EE7454A42
:105AD000A2FB0312D20802EB8202B3EB420F7FF467
