:1000000000000420750300005D0300005F03000092
:1000100061030000630300006503000000000000AE
:100020000000000000000000000000006703000066
:1000300069030000000000006B0300006D03000076
:100040006F0300006F030000B51400006F03000091
:100050006F0300006F0300006F0300006F030000D8
:100060006F0300006F0300006F03000029210000F0
:100070006F0300006F0300006F0300006F030000B8
:100080006F0300006F0300006F0300006F030000A8
:100090006F0300006F0300006F0300006F03000098
:1000A0006F0300006F0300006F0300006F03000088
:1000B0006F0300006F03000000000000000000005C
:1000C0006F0300006F0300006F0300006F03000068
:1000D0006F0300006F0300006F0300006F03000058
:1000E0006F0300006F0300006F03000000000000BA
:1000F000000000006F030000000000006F0300001C
:1001000000000000000000000000000000000000EF
:1001100000000000000000000000000000000000DF
:1001200000000000000000000000000000000000CF
:1001300000000000000000000000000000000000BF
:1001400000000000000000000000000000000000AF
:10015000000000000000000000000000000000009F
:10016000000000000000000000000000000000008F
:10017000000000000000000000000000000000007F
:10018000000000000000000000000000000000006F
:10019000000000000000000000000000000000005F
:1001A000000000000000000000000000000000004F
:1001B000000000000000000000000000000000003F
:1001C000000000000000000000000000000000002F
:1001D000000000000000000000000000000000001F
:1001E000000000000000000000000000000000000F
:1001F00000000000000000000000000000000000FF
:10020000354936480A1A02D0072291438D463449AF
:1002100034480A1A06D00722914381F30988022242
:1002200082F3148830483149314A00F044F83148AB
:100230003149324A00F03FF831483249324A00F041
:100240003AF832483249334A00F035F832483349F7
:10025000334A00F030F833483349344A00F02BF881
:1002600033483449344A00F026F8344834490022EF
:1002700000F02CF833483449002200F027F83348C6
:100280003349091A082902DB002202604160314A21
:1002900090471F481F49884205D00268043003B4C4
:1002A000904703BCF7E700208646EC46002000217B
:1002B000294A9047FEE7884207D0521A05D00378B2
:1002C00001300B700131013AF9D17047884202D0F8
:1002D00002700130FAE770470000042000E00320BC
:1002E0000000042000000420E03C0000000000208A
:1002F00038000020D0030000D003000014370000B5
:10030000E03C000000000020000000205837000002
:1003100058370000583700005837000058370000A1
:10032000583700005837000058370000E03C000004
:10033000183D000038000020380000203800002060
:1003400014080020140800201808002018080020B5
:10035000182800209D030000891F0000FEE7FEE72B
:10036000FEE7FEE7FEE7FEE7FEE7FEE7FEE7FEE765
:1003700000F002B8FFF7FCBF0F484FF007018843B9
:1003800085460E4880470E48016841F470010160BF
:10039000BFF34F8FBFF36F8FFFF732BF09480A4992
:1003A0000A4A884207D0521A05D0037801300B70F0
:1003B0000131013AF9D1704700000420CD2100003D
:1003C00088ED00E058370000000000200000002009
:1003D000004870470C080020F0B595B01D46164641
:1003E00008460C4600F0C4FF1A9B0D93CDE9086542
:1003F00000252B46082205A920460A958DF82C5089
:100400000C9500F0D2FF079B0293069B03939DF887
:1004100014308DF8115003F00302012A1DD1BDF8EC
:100420001420059DC3F3C203C2F383168DF8103068
:10043000B20008230EA9204600F0B7FFC5F39525AA
:1004400008AB0093324602AB0EA9284600F084FBAD
:10045000204600F091FF15B0F0BD022AF8D1BDF89A
:100460001650C3F3C203C5F389158DF81030082761
:10047000082D2E4628BF08263B4632460EA92046A8
:1004800000F093FFAD1B08AB02AA31460EA837441B
:1004900000F0C6FB002DEBD1DAE7704707B5044B3F
:1004A0000093044A4023FFF797FF03B05DF804FB75
:1004B000090500003900002030B5104D0FCD89B07E
:1004C0006C460FC495E80F0084E80F004FF0FF332F
:1004D0000622CDE90023CDE9023309484FF0EB7342
:1004E00000226946069300F0A7FF08B100F0F4FB74
:1004F000044B00221A7009B030BD00BF583700000D
:10050000000000203800002038B50D4B0D4D0020B4
:1005100018700D4804782D5DD2B21C4665B10430C8
:1005200001F06CFC08B100F0D7FB084B1A7812B14F
:100530002378002BFBD038BD0C3001F003FAF1E733
:10054000790000201806002000000020380000205C
:1005500008B50848084A0378D35C33B1043001F089
:10056000C9FBBDE80840FFF7A7BF0C3001F08EF9CA
:10057000F7E700BF0000002018060020FFF79CBF2F
:1005800008B5FFF7FBFF0448042100F04FFA034BC6
:1005900001225A7108BD00BF34370000140000204A
:1005A000037813F0040216D003F00303012B03D0E9
:1005B000022B09D0012070470A6800880232C0F37C
:1005C000831002440A60F5E70B684288023303EBAC
:1005D00092130B60EEE71046704700002DE9F04FD4
:1005E000044685B0861C00200F46154600F0CCFB63
:1005F0003F4A51683960936803F580735B1A9246ED
:1006000002F21C4702F5836902F21448B34219D37F
:100610000020002D68D004F00F039B0143F0050378
:1006200063F30F00DAF80430DAB203321E444AF8FA
:1006300022000020CAF8046000F0A8FB012005B0E9
:10064000BDE8F08F0121384600F0C5FB484600F0B8
:10065000DAFB404600F0D7FBDAF808000090C0B2A1
:1006600003300AEB80006946FFF79AFF009B30BB1E
:10067000DAB20AEB8202D16801919A1C0133DBB233
:100680000AEB83030092D3F80CB001F00303012BB3
:1006900022D0022B15D08346404600F0B7FB10B1A4
:1006A000009BCAF808305946384600F094FBDAF847
:1006B0000830DAF8042003F580739B1AA6E7D8B255
:1006C000CEE7BDF80630C3F3891303334FEA1B4B63
:1006D00002EB93030093DFE7BDF80430C3F3831309
:1006E0004FEA1B4B1344F5E7A40544F0060099E7D5
:1006F0004C010020064B074810B501221A7000F08B
:10070000F0FD044610B9044800F059FE204610BD23
:100710004C01002044370000AC37000030B50A4CD3
:1007200071B10A4A0A49121BD20800239A4201D128
:10073000002030BD31F82350854202D00133F5E767
:10074000034654F83300F4E7143700003437000050
:1007500000000020094B013903EBC000032909D830
:10076000DFE801F00A0204060420704700797047B0
:10077000407970470020704702207047143700000E
:10078000034BD3E90130C31A58425841704700BFA8
:100790004C0100202DE9FF41FFF7F2FF054600283C
:1007A00040F0E280714CC4F81804BFF34F8FA36887
:1007B0000093DBB2033304EB83006946FFF7F0FEDE
:1007C000009B18B1D4F81824002A55D0DAB2991C2D
:1007D000013304EB8202DBB204EB8303D268DB68F3
:1007E000029302F00303022B019200914FD1BDF856
:1007F00006305F48C3F38917502F3E4628BF502666
:1008000066F38F1306F10801ADF8063000F081FDA4
:100810000546002800F0938000F0AAFD002301A9FE
:100820000822284600F0B7FD0099CB43DBB2013324
:10083000C9B20331B6EB830F4FEA830804EB8101A1
:1008400022D908234246A6EB0806284600F0A3FD5D
:10085000F6B2484908F108033246284600F09BFDED
:10086000009B033703EB97070097D4F81834002B4D
:1008700041D1D4F8106451E062689A4299D8A260DC
:10088000284604B0BDE8F08108233246E5E7012B95
:1008900055D1BDF804303648C3F38311062928BF6B
:1008A000062161F3891302318900ADF8043000F0AC
:1008B00030FD0546002842D000F05AFD00230822F2
:1008C00001A9284600F067FD0026BDF80420C2F308
:1008D0008312B300964203F10803C6D200994A1C62
:1008E000C9B20331009204EB81010422284600F0D2
:1008F00052FD0136E9E7284600F03EFDFFF740FFD4
:1009000080F00100C5B2BBE7F3685B7923B13368BF
:1009100029461B6830469847F3681E68002EF3D1BD
:10092000284600F029FD304600F02EFAD4F818349D
:100930000BB9009BA360002000F028FADEE7D4F892
:10094000104454B90C4B0D480D49C01AC00800049E
:1009500040F0020000F05CF8D0E7236820469B6876
:100960009847E3681C68ECE7002589E74C01002004
:100970004437000058010020143700002C370000D5
:10098000953700002DE9F34704460E46924601A92B
:10099000012218469946FFF721FE1B4F10B3019D17
:1009A0004FF00008AA1CC84508EB020123D11748E4
:1009B000002100F0EDF980F31000000440EA14403B
:1009C000E4006B1C04F03804DBB2EDB244F0010427
:1009D00007EB8303033544EA881444EA8624D8608D
:1009E00047F825403B781BB1FFF7D4FE0028FBD128
:1009F00002B0BDE8F087C9B207EB81015AF8283090
:100A0000CB6008F10108CEE74C010020680500200A
:100A100000231A46FFF7B6BF07B50123019201AACA
:100A2000FFF7B0FF03B05DF804FB000030B50F49DD
:100A3000D1F8102403460020144634B9DC68207134
:100A40004AB9C1F81034226030BDE4682579854286
:100A500006D02468F1E7D268116821601360F3E7DB
:100A600001300A28E8D14FF0FF30EDE74C010020BB
:100A7000084A38B50123D2F8104413701D4604B952
:100A800038BDE3685D71236820465B689847E3687A
:100A90001C68F4E74C01002007B503460846197AA4
:100AA000052911D05B7A2BB1094A0A49019000F05F
:100AB00007FA01980849019000F002FA019803B082
:100AC0005DF804EB00F0F1B9002AF8D0F2E700BFBE
:100AD000B8370000BD370000DD37000030B5C388EF
:100AE00085B004460D4633B1144A00921449154AA4
:100AF000284600F0E5F9217A05291DD0637A4BB12B
:100B0000A088FFF727FE104B104953F820202846F5
:100B100000F0D6F9227A0E4BA08853F822200392D7
:100B20000021FFF7FBFD039A0A490346284605B05A
:100B3000BDE8304000F0C4B905B030BDB8370000A2
:100B4000C8370000C037000044380000BD3700003F
:100B500068380000E03700002DE9F04385B01F46FB
:100B60000C9D002395F80C902B7306460C4690467E
:100B700029463846FFF7B2FFB8F1060F09D8DFE87B
:100B800008F00412181F283340003146284600F0B0
:100B900097F9002229463846FFF77EFF85F80C902A
:100BA00005B0BDE8F08322683146284600F088F998
:100BB000EFE7D4E900233146284600F081F9E8E761
:100BC000A36800933146D4E90023284600F078F961
:100BD000DFE7E3680193A36800933146D4E900237B
:100BE000284600F06DF9D4E723690293E368019386
:100BF000A36800933146D4E90023284600F060F949
:100C0000C7E76369039323690293E3680193A368C9
:100C100000933146D4E90023284600F051F9B8E7A3
:100C200008292DE9F74F80460E4617461C463CD84A
:100C3000002593F80C901D7319461046FFF74EFFE0
:100C4000DFF888A0DFF888B0AE4231D918F8052067
:100C50005946204600F034F90135082DF4D11949E0
:100C6000194DDFF870A0204600F02AF94FF0000B74
:100C70005E4522D918F80B207E2A05D8104601922D
:100C800001F028FD019A00B92E225146204600F0BD
:100C900017F90BF1010BBBF1080FE9D10122214635
:100CA0003846FFF7F9FE84F80C9003B0BDE8F08FEA
:100CB0005146204600F004F9CEE72946204600F0D0
:100CC000FFF8E6E7F4370000F2370000F0370000E5
:100CD000EA370000F63700001FB50021039001AA93
:100CE00044F20100CDE9011100F004F805B05DF80F
:100CF00004FB000010B572B6FFF7BAFEFFF74AFD1D
:100D00000028FBD1104B114C1149E41AE4082404CB
:100D100044F00100FFF77CFE0E4B1B68DB0700D59B
:100D200000BE0D4944F00200FFF772FEBFF34F8F83
:100D30000A490B4BCA6802F4E0621343CB60BFF36D
:100D40004F8F00BFFDE700BF143700002C370000B5
:100D50007C380000F0ED00E08838000000ED00E095
:100D60000400FA0572B6024A136801331360704733
:100D700004060020034A1368013B136003B962B6FE
:100D8000704700BF04060020FFF7ECBFFFF7F2BF7B
:100D900010B5034653E8000F0A4643E8002494F0D8
:100DA000000FF7D110BD10B5034653E8002F42EAFB
:100DB000010043E8000494F0000FF6D110BD10B517
:100DC000034653E8000F00EA010243E8002494F0D0
:100DD000000FF6D110BD10B5034653E8002F02EB0B
:100DE000010043E8000494F0000FF6D110BD10B5E7
:100DF000034653E8002FA2EB010043E8000494F0FF
:100E0000000FF6D110BD0121FFF7CDBF0021FFF784
:100E1000D6BF10B590B1D0E9012301689B1ADBB2AF
:100E20000A60013BDBB2FF2B026802D10020107187
:100E300010BD11684C1C14600B70F2E70E20F7E730
:100E400038B504460020FFF79FFF226863681168E9
:100E5000994213D9481E106011F8015CE368218A99
:100E600001FB0535A36811791B1ADBB2994200D248
:100E700013710020FFF78AFF284638BD0025F8E7E8
:100E800038B5054600200C46FFF77EFF2A68136838
:100E9000591C1160E968641A298AB4FBF1F41C70CA
:100EA000BDE838400020FFF771BF826810B50446E6
:100EB0002AB143690168006998470023A36010BD07
:100EC0000EB403B5039921B104AB01AA019300F05C
:100ED00077F802B05DF804EB03B070470A2938B523
:100EE00004460D4602D10D21FFF7F8FFA3682268E2
:100EF000591CA160D554D4E901329A4204D320464A
:100F0000BDE83840FFF7D1BF38BD00002DE9F84FEC
:100F10009846DDE90A43154682460F460A464FF0D9
:100F20000109AA420FD2C14538BFC14613F0010BD7
:100F300001D16CB900240126B8F1010F1BD908F1C9
:100F4000FF386E43F8E709F10109B2FBF5F2E8E773
:100F50009B070ED5B8F1000F0CBF30262026A14507
:100F6000E9D2013C31465046FFF7B8FF002CF6D1DC
:100F7000E0E72026F3E7B7FBF6F39D42E1D9DFF87F
:100F80003C80B7FBF6F3504618F8031006FB1377C6
:100F9000FFF7A4FF3346AB42B6FBF5F6F1D2BBF147
:100FA000000F02D00CB1A14501D3BDE8F88F20217C
:100FB0005046013CFFF792FFF4E700BF9538000070
:100FC0002DE9F74F054617468846002900F0428173
:100FD00018F8011B49B92B7B002B00F03B812846F8
:100FE00003B0BDE8F04FFFF760BF252940F0B780A0
:100FF000002698F800302D2B424608F1010823D036
:10100000302B24D02B2B25D000242A2B02F10101D8
:1010100023D13B681A1D1B683A601C440A461378AA
:101020002E2B26D101324FF0000A104610F8011B7A
:10103000A1F1300CBCF1090F1DD80A2303FB0A13E0
:10104000A3F1300A0246F0E746F00106D1E746F088
:101050000206CEE746F00406CBE711F8013CA3F107
:1010600030000928DBD80A2202FB0434303C0A464F
:10107000CBE74FF0000A12F8011B01F0FB006828D3
:101080009046F8D0782909D86F290CD8632962D006
:1010900022D8252963D0582900F0888098F800309C
:1010A000002B95D197E770390829F7D801A353F899
:1010B00021F000BF2F1200009D1000009D100000C5
:1010C000BD1100009D1000009B1100009D1000004C
:1010D0009D100000AD110000642901D06929DDD107
:1010E0003A68D2F80090111D89EAE9723960A2EBE2
:1010F000E9724FF0010B092A35DCD34538BFD346DE
:101100002CB1B9F1000F01DB720700D5013CB30728
:1011100002D5BAF1000F03D0F00701D44CBB002474
:10112000B9F1000F2DDAC9F100092D212846FFF78A
:10113000D5FE06F00302022A04D1BAF1000F01D154
:101140001CBB0024CDE9004653460A2249462846E6
:10115000FFF7DCFEA2E73B681A1D19783A602846C3
:10116000FFF7BCFE9AE70A230BF1010BB2FBF3F287
:10117000C1E7A345D4D220212846013CFFF7AEFEAB
:10118000CCE77107D5D52B21D0E7A345DAD23021A2
:101190002846013CFFF7A2FED2E73968CDE90046B8
:1011A0000A1D3A6053460A220968D0E739680A1DC9
:1011B0003A60CDE9004653461022F5E73B681A1D18
:1011C0003A6016F00106D3F8009028D1B9F1000F6B
:1011D00003D0484601F0DDFA0646B44200D904BB0C
:1011E00009F1FF3919F8011F00293FF457AF2846CC
:1011F000FFF774FEF6E728460136FFF76FFE19F891
:1012000006100029F7D1A642BFF448AF002C3FF4E6
:1012100045AF20212846013CFFF760FEF3E700269A
:10122000EDE720212846013CFFF758FED5E73B6853
:101230001A1D3A60302128461C68FFF74FFE7821BE
:101240002846FFF74BFE00220823CDE90032214655
:1012500010227CE703B0BDE8F08F00BF2DE9F84F06
:10126000B0F806A04579D2F800B09DF828900AFBA6
:1012700005F5043D88460BEB0301A94203F1040484
:1012800088BFA5EB030BB4FBFAF607460AFB16442E
:10129000C2F800B04EB9AAEB04055D4528BF5D4613
:1012A000BBF1000F04D1BDE8F88F3F68013EF1E7C4
:1012B000043408EB06003C442A46B9F1000F0DD077
:1012C0002146ABEB050B01F03BFADA452E443F68B3
:1012D00055464FF0000428BF5D46E1E70146204631
:1012E000EFE7FFF796BDF8B546790146721E054651
:1012F000002393422D6803D30024A64202D8F8BDF0
:101300000133F6E70F682846FFF7BAFD0134394686
:10131000F3E72DE9F843068ACD1C0746FFF790FD59
:10132000043E35440446B5FBF6F5F0B14FF4807346
:10133000EDB28380C680013D076081464FF0000812
:10134000A84512D23846FFF77BFD064648B16379BF
:101350000133637108F10108C9F800000760814694
:10136000EEE72046FFF7BFFF34462046BDE8F8838E
:1013700001210430FFF72FBD10B5012104460430D0
:10138000FFF735FD10F0FF0F04D12046BDE81040F7
:10139000FFF7A9BF10BD1FB503920022009203AA58
:1013A000FFF75CFF05B05DF804FB1FB50392012257
:1013B000009203AAFFF752FF05B05DF804FB8368B3
:1013C00000225A60C3E904229A60DA601A6070470A
:1013D0001FB503788DF800304368019383688DF85A
:1013E0000830C368054A0393054B684653F821301B
:1013F00052F82110984705B05DF804FB080600205C
:10140000100600201FB503788DF800304368019363
:1014100083688DF80830C368054A0393054B684616
:1014200053F8213052F82110984705B05DF804FBBD
:101430000806002010060020F0B5194B90F800C0F7
:10144000DFF86CE043F82C20164B16460A6943F887
:101450002C204B7F0EF80C300C4607460FCC89B081
:101460006D460FC594E80F0085E80F001EF80C309C
:10147000CDF810C04BB1002E0B4A694608BF32466A
:10148000381D00F059FB09B0F0BD002E074A69462F
:1014900008BF324607F10C0000F026F9F3E700BF61
:1014A0001006002008060020D113000005140000DB
:1014B00018060020014B1B68184700BF1C060020BF
:1014C00038B50B4B98420C4601D0002038BD0020A7
:1014D000FFF75AFC074B1D7915B901221C601A71E0
:1014E0000020FFF753FC002DEFD01120EEE700BFE6
:1014F000002000401C060020034B984201BF034B14
:1015000000221A601A717047002000401C0600205B
:101510000023435082B043580193019B02B07047AF
:101520000A4610B54FF48E71FFF7F2FF136A916807
:10153000C95C136A01331362C0F81C1510BD8B69B6
:101540000A4610B54FF4847123B9FFF7E1FFD0F8D4
:10155000183510BDFFF7DCFF536AD168D0F81805C5
:10156000C854536A01335362F3E700001FB50123E7
:101570008DF80030044BCDE90110D3E90012684624
:10158000904705B05DF804FB2406002030B54C48B8
:10159000D0F8043313F4007F85B005464DD0D0F861
:1015A0002431002B49D04FF49271FFF7B1FF4FF473
:1015B0000173C0F80833434B93F829200AB901227C
:1015C00042603F4902228DF80020D1F88024C1F802
:1015D000802403929A690292DA6801920022C3E998
:1015E00006226846D3E9001290473548D0F81C31EE
:1015F0005BB134494A690B6A9A420A464AD991F862
:101600002830002B46D1FFF78BFF2D48D0F844310E
:101610008BB14FF4A271FFF77BFF2A4B93F829207F
:101620000AB1012202609A692AB10022586AD96877
:101630009A61FFF79BFF05B030BDD5F804335B0717
:10164000D3D5D5F80831002BCFD01E4C1C482146ED
:10165000FFF775FF636AA2699A422346C5D1E26922
:10166000E1684AB12369E3600023606AA261E36133
:101670006362FFF77BFFB8E794F829200AB90122DB
:101680006A600F4A4FF40170C2F808030022586ADA
:101690009A61EEE70A484FF48E71FFF739FF5369FC
:1016A000002BB2D051690291002391688DF800306F
:1016B000019153616846D2E900139847A5E700BF3E
:1016C00000200040240600201F2886BF00F01F00D5
:1016D000044B4FF0A04300F5E070022243F82020B5
:1016E000704700BF000300502DE9F843614B0579B6
:1016F00091462C2202FB0532064692F82A200C461F
:101700009846002A40F0B1805B490068FFF7D8FE98
:101710000746002840F0AB8021684A1C10D01F29E2
:1017200087BF564A01F01F030B464FF0A04201202D
:10173000984003F5E073C2F80805032042F823003F
:101740006068431C0DD01F288BBF00F01F030346A9
:101750004A4A4FF0A04203F5E0734FF0000C42F804
:1017600023C03368A269C3F8242594F814C0627DAD
:10177000BCF1010F4CEA0202C3F86C25C3F8140552
:10178000C3F80C152BD1A168481C0DD01F298BBFA5
:1017900001F01F020A4639484FF0A04002F5E072FE
:1017A0004FF0000C40F822C0E068421C13D01F2804
:1017B00087BF324A00F01F0C84464FF0A0424FF022
:1017C000010E0EFA0CFE0CF5E07CC2F808E54FF0B5
:1017D000030E42F82CE0C3F80805C3F810152C23BB
:1017E0006B4308EB0302C2F80490226948F8032017
:1017F000B9F1000F21D03068247F4FF48E71FFF7CC
:1018000087FE4FF4A2713068FFF782FE32681C4BEE
:10181000C2F80433110B42F307326301002ADBB232
:101820001EDB1848841884F800330123520901F0A4
:101830001F0103FA01F140F8221033680422C3F8B3
:1018400000252C2303FB05830022C3E9062283F82D
:1018500029205A61012283F82A203846BDE8F883FE
:10186000094A01F00F015354E7E70827F5E711276C
:10187000F3E700BF240600208D1500000003005090
:101880008000020000E100E014ED00E02DE9F041ED
:1018900003680479284D0022C3F800252C2202FB9E
:1018A000045201465268A2B1244AC3F808231A0B15
:1018B00043F30733002B0CDB02F01F005B0901220E
:1018C000824020331E4840F82320BFF34F8FBFF3E0
:1018D0006F8F0B68D3F80C05D3F81485D3F808651F
:1018E000D3F810754FF0FF329042C3F81425C3F8B7
:1018F0000C25C3F80825C3F8102501D0FFF7E4FE36
:10190000B8F1FF3F02D04046FFF7DEFE7A1C02D05E
:101910003846FFF7D9FE731C02D03046FFF7D4FEDD
:101920000868FFF7E9FD2C2303FB0454002384F827
:101930002A306360BDE8F0812406002084020200A2
:1019400000E100E02DE9F047204F90F804904FF0BF
:101950002C0808FB097405466669002E34D16261C3
:101960000068A16026624FF48E7184F82860FFF74A
:10197000CFFD2868012383602146FFF7D1FD63680E
:10198000A0468BB92868D4F814A0236A9A4511D8C8
:101990002A68D2F81C31002BFBD00123D3602C2302
:1019A00003FB097300225A613046BDE8F08794F8C2
:1019B00028303BB9D0F81C31002BF8D04146FFF756
:1019C000AFFDE2E70F26EAE71126EDE72406002047
:1019D0000023435082B043580193019B02B07047EB
:1019E0001FB501238DF80030044BCDE90110D3E978
:1019F00000126846904705B05DF804FB50060020D1
:101A00001F2886BF00F01F00044B4FF0A04300F5D5
:101A1000E070022243F82020704700BF000300500E
:101A20007FB5434AD2F82461002E60D010464FF4AF
:101A30009271FFF7CDFF02238DF80030D2F8803489
:101A4000C2F880340393D2F83C350293394BDA68FC
:101A500001920022C3E906226846D3E900129047AA
:101A60003348D0F8443173B14FF4A271FFF7B0FF9F
:101A7000304B9A693AB10022C3E90622D968D0F8FE
:101A80003C05FFF7ADFF2A48D0F82031ABB14FF449
:101A90009071FFF79DFF0123C360264B5A6962B125
:101AA000D0F84C150291002299688DF80020019120
:101AB0005A616846D3E9001290471D48D0F8583162
:101AC0009BB14FF4AC71FFF783FF1A4B5A6962B1B7
:101AD000D0F84C150291002299688DF800200191F0
:101AE0005A616846D3E90012904704B070BDD2F83D
:101AF0001031002BB4D04FF488711046FFF768FF07
:101B00000C4BD2F83C0599698842A9D1DC69D968A7
:101B100064B1D2F8005225F02005C2F800521A69CB
:101B20009C61DA60DE61FFF75BFF99E79C61FAE791
:101B300000200040500600202DE9F843674B06794D
:101B40009146242202FB0632044692F820200D46DC
:101B50009846002A40F0BE8061490068FFF7B0FC5B
:101B60000746002840F0B8802868421C10D01F2883
:101B700087BF5C4A00F01F0303464FF0A0420121DB
:101B8000994003F5E073C2F80815032142F82310C9
:101B900069684B1C0DD01F298BBF01F01F030B463A
:101BA000504A4FF0A04203F5E0734FF0000C42F8AA
:101BB00023C02368AA69C3F8242595F814C06A7D58
:101BC000BCF1010F4CEA0202C3F86C25C3F80C0506
:101BD000C3F814152BD1A968481C0DD01F298BBF41
:101BE00001F01F020A463F484FF0A04002F5E072A4
:101BF0004FF0000C40F822C0E868421C13D01F28A8
:101C000087BF384A00F01F0C84464FF0A0424FF0C7
:101C1000010E0EFA0CFE0CF5E07CC2F808E54FF060
:101C2000030E42F82CE0C3F80805C3F8101524236E
:101C3000734308EB0302C2F804902A6948F80320B2
:101C4000B9F1000F30D020682A7F4FF48871FFF778
:101C5000BFFE20684FF49071FFF7BAFE20684FF482
:101C60009271FFF7B5FE20684FF4A271FFF7B0FE46
:101C70004FF4AC712068FFF7ABFE23681A49C3F834
:101C80000413190B43F307335201002BD2B21CDBB0
:101C90001648C51885F8002301225B0901F01F01D1
:101CA00002FA01F140F8231023680822C3F8002546
:101CB000242303FB06830022C3E906225A61012282
:101CC00083F820203846BDE8F883094B01F00F0166
:101CD0005A54E9E70827F5E71127F3E750060020F3
:101CE000211A0000000300501003420000E100E050
:101CF00014ED00E02DE9F0413D4E05790468242300
:101D000003FB056302465B68ABB13A4BC4F808338A
:101D100044F30733002B4FEA14310CDB01F01F00B2
:101D20005B09012181402033334840F82310BFF381
:101D30004F8FBFF36F8FD4F8003223F02003C4F825
:101D40000032242303FB05639B6933B14FF4A27176
:101D50002046FFF73DFE012363604FF4AC7120463F
:101D6000FFF736FE0123E360242303FB0563D4F869
:101D700058110029FBD0996919B1D4F844110029F0
:101D8000F5D00023C4F800351368D3F80C05D3F858
:101D90001485D3F80815D3F810754FF0FF32904230
:101DA000C3F80C25C3F81425C3F80825C3F810257B
:101DB00001D0FFF725FEB8F1FF3F02D04046FFF704
:101DC0001FFE7A1C02D03846FFF71AFE4B1C02D0C9
:101DD0000846FFF715FE2046FFF78EFB242303FB82
:101DE0000565002385F820306B60BDE8F08100BFF9
:101DF000500600201003420000E100E001F06043C3
:101E0000B3F1005F2DE9F041064638D11E4B07794A
:101E1000242505FB073598466C69002C31D16A6191
:101E20000068A9604FF49071FFF7D2FD4FF4AC71D8
:101E30003068FFF7CDFD33686A69A968C3F84415B7
:101E4000C3F8482501229A606A68AAB9D3F820210C
:101E5000D3F858411AB9002CF8D00F2407E0002C11
:101E6000FBD10122DA60D3F85821002AFBD02423C9
:101E700003FB078700237B612046BDE8F081102427
:101E8000FAE71124F8E700BF5006002070B52DEDE9
:101E9000028B2D4A0020B4B0012105464FF0FF34DB
:101EA000134652F82160A64238BF52F8214053F839
:101EB0002160AE4288BF53F8215053F821600131B0
:101EC00064293044EDD107EE900A9FED207AF8EEB8
:101ED000677A87EE878A9FED1E7AC8EE077AB7EE9B
:101EE000007AC7EE278A9FED1B7AFFEE007AE8EEB4
:101EF000877A9FED197A67EE877A17EE900A00F0DD
:101F000059FACDE9040118EE900A00F053FACDE930
:101F1000020118EE100A00F04DFA2B46CDE900013F
:101F200022460E4907A800F0E5FB0D4B0D480E496F
:101F3000C01AC008000407AA40F00300FEF76CFDB9
:101F400034B0BDEC028B70BD780600200000C842A2
:101F50000024744B0000003800247449B438000099
:101F6000143700002C370000BD37000038B5054D90
:101F70004FF4FA6445F001054FF47A40A847013C5C
:101F8000FAD138BD8039000000212DE9F04708461C
:101F9000FEF7B0FB08B1FEF79FFEFEF7F1FA544CD6
:101FA00054485549241AE408240444F003044FF02B
:101FB00080452046FEF72CFD0023C5F800310123A3
:101FC0002B60D5F80031002BFBD04C492046FEF7A2
:101FD0001FFD0023C5F804310123AB604FF08042A0
:101FE000D2F80431002BFBD020464549FEF710FD06
:101FF0004449454A45480023C1F810350323C1F838
:102000000835434BC2F81035A3F54353C2F81435D5
:102010000123C2F80435A2F5A032E025C2F844330A
:10202000C2F8043380F80B534FF400650560394E55
:10203000394D0B60374613604FF000094FF003082D
:10204000CA46C6F800A085F800902B78002BFCD07B
:10205000FFF71CFFFFF78AFFB8F10108F1D14FF03D
:1020600080430122C3F80C811A61D3F80C21002AA5
:10207000FBD02A492046FEF7CBFC4FF003084FF077
:102080000009C7F8009085F800902B78002BFCD051
:10209000FFF7FCFEFFF76AFFB8F10108F1D1204914
:1020A0002046FEF7B5FC4FF080430122DA60C3F80A
:1020B0001825C3F804819A60D3F80421002AFBD0C4
:1020C00018492046FEF7A4FC4FF003084FF0000922
:1020D000C7F8009085F800902B78002BFCD0FFF714
:1020E000D5FEFFF743FFB8F10108F1D1A4E700BF27
:1020F0002C37000014370000F238000013390000BC
:10210000263900000080004000F0014000E100E0BE
:1021100000B100400C0800201C00002037390000EE
:1021200049390000713900000F4BD3F8002170B518
:10213000C2B10E490022C3F800210B7893B90C4BB1
:102140000C48D3F840450C4B02681D686E1C1E609D
:102150000A4EA21A46F8252004601B68642B84BF2F
:1021600001230B7070BD00BF00B000401C000020B8
:1021700000800040740600200C0800207806002033
:10218000034B1868A0F1080358425841704700BF3C
:1021900030010010064B1B68082B06D1054B1B684D
:1021A000052B02D8044AD05C70470020704700BF5E
:1021B00030010010340100108C390000024AD2F8BE
:1021C0000034002BFBD0704700E0014010B5FFF752
:1021D000D7FF40B14FF080430022C3F80C21C3F871
:1021E0001021C3F83825FFF7CBFF002846D04FF069
:1021F0008052614BD2F80414C3F82015D2F80814A9
:10220000C3F82415D2F80C14C3F82815D2F810140A
:10221000C3F82C15D2F81414C3F83015D2F81814DA
:10222000C3F83415D2F81C14C3F84015D2F82014A2
:10223000C3F84415D2F82414C3F84815D2F828146A
:10224000C3F84C15D2F82C14C3F85015D2F830143A
:10225000C3F85415D2F83414C3F86015D2F8381402
:10226000C3F86415D2F83C14C3F86815D2F84014CA
:10227000C3F86C15D2F84424C3F87025FFF78AFF21
:1022800010B13E4B3E4A1A60FFF784FF18B13D4B38
:10229000FB22C3F81825FFF77DFF48B13A493B4BB5
:1022A0000A681B6822F00F0203F00F0313430B6050
:1022B000FFF770FF18B1364B4FF400721A60FFF74A
:1022C0005FFF48B14FF08043D3F80024D20744BFEA
:1022D0006FF00102C3F800242E4AD2F8883043F48C
:1022E0007003C2F88830BFF34F8FBFF36F8F2A4B54
:1022F0001B68082B0ED1294B1B68052B02D8284AD6
:10230000D35C3BB14FF01023D3F808224FF0804349
:10231000C3F858254FF01023D3F80022002A03DB1E
:10232000D3F80432002B22DA1E490123C1F8043508
:10233000FFF744FF4FF010201224C0F80042FFF7CF
:102340003DFFC0F80442FFF739FF0023C1F8043510
:10235000FFF734FFBFF34F8F0E49134BCA6802F4E7
:10236000E0621343CB60BFF34F8F00BFFDE70F4B1D
:102370000F4A1A6010BD00BF00C000408C560040DC
:102380004881030000F00040E40E004058020010B5
:102390004096024000ED00E03001001034010010D2
:1023A0008639000000E001400400FA05200000200A
:1023B0000090D003C0F3C75191B142004FEA407082
:1023C0004FEAD2014FEA310101F16051B2F17F4F82
:1023D00038BF704701F1605118BF41F400217047C8
:1023E00010F000410020704701F000428B1AA3F169
:1023F0006051B1F5801F0ADBB1F17F6F09D242EA6B
:10240000C102C10071F1004142EB507070471046AB
:10241000704701285B4113F5001F04D842F0FE40CD
:1024200040F400007047C90041EA507040EA0200E1
:1024300040F4800040F08040704700BF10EE100A6A
:102440004FEA4000B0F17F4F0CBF012000207047E1
:1024500010EE100A41000020B1F17F4F18BF50EB81
:102460000000704710EE100A00F00040704700BFF7
:10247000B0EEC00A704700BF00B510EE100A00F0C1
:1024800003F800EE100A00BD4FF07F43B3EB400F9E
:1024900022D9410008BF704703EA4002120E7F3A7A
:1024A00014DB172AA8BF70474FF6FF73C0F27F03F3
:1024B000D340184220EA030018BF10F0004F08BFB5
:1024C00070474FF40001D1404018704710F0004FA2
:1024D0000CBF00200248704718BF02487047000038
:1024E000000080BF0000C07F00B5014610EE100A5A
:1024F00000F003F800EE100A00BD4FF07F43B3EB8D
:10250000400F98BF704713EA400207D0120E7E3A80
:102510000A6020EA530040F07C5070470A6000F0E7
:102520000040704700B5014610EE100A00F003F8B5
:1025300000EE100A00BD4FF07F43B3EB400F98BF91
:10254000704713EA400204BF00F00040704711EBEF
:102550001262DCBF00F000407047FF2A3CBF00EB76
:10256000C150704740004FEA330070477F2805D8BC
:10257000034B185C034B5B5C1840704700207047AE
:10258000A0390000203A0000A0F16103192B98BF88
:1025900020387047A0F14103192B98BF20307047B5
:1025A0007F2805D8034B185C034B5B5C18407047D1
:1025B00000207047A0390000203A0000A0F161031C
:1025C000192B98BF20387047A0F14103192B98BFF1
:1025D000203070477F299ABF017001206FF02E00D4
:1025E00070475AB10A787F2A0AD800B102600021E8
:1025F00019605960501A18BF0120704700207047B9
:102600006FF02E0070470000002816DB002817DD51
:102610000022B7EE000A0C4B10F0010F1CBFD3EDE7
:10262000007A20EE270A401004330028F4DC4AB177
:10263000F7EE007A87EE800A704740420122E8E711
:10264000B7EE000A704700BFF83B000038B50446FB
:102650000846A26842B1236861685D1C8D4208BFCC
:1026600000208B4208D2D054E3682BB12168626805
:10267000914201D22146984723680133236038BD37
:1026800070B54C1E09D41646C5B229463046FFF730
:10269000DDFF013CB4F1FF3FF7D170BD10F0100F2A
:1026A00008D108B510F4007F14BF30202020FFF7B8
:1026B000E7FF08BD70470028B8BF404270470000E0
:1026C00008B5034B5B689B681B68984708BD00BF53
:1026D0002400002008B50921FFF7F2FF08BD000023
:1026E00000B5FDF775FE024B18445DF804FB00BF12
:1026F000080000000EB400B586B007AA52F8041B0B
:1027000005920390002304936FF00043029301A805
:1027100000F070F806B05DF804EB03B07047037882
:1027200053B159B10144034613F8012F12B18B4242
:10273000FAD10B46181A70470346FBE70346F9E740
:10274000844640EA010313F0030F18D18446202A7F
:102750000BD32DE9F007B1E8F807A0E8F807A2F1DC
:102760002002202AF7D2BDE8F007042A07D351F847
:10277000043B40F8043BA2F10402042AF7D2002AE9
:1027800005D011F8013B00F8013B013AF9D1604650
:10279000704700F1010110F0030F11D010F8012B68
:1027A000002A23D010F0030F0AD010F8012B002AC2
:1027B0001CD010F0030F03D010F8012B002A15D005
:1027C0002DE970004FF001324FF0803350F8044B88
:1027D000A4EB020525EA04051D4000D1F6E7A0F1AF
:1027E000040070BC10F8012B002AFBD1A0EB010003
:1027F000704700002DE9F04F2DED048B89B0834622
:102800000392002303600D4615F8011B002900F018
:10281000AE86DFEDA48A00F09CBE002607E05E28AD
:1028200066D146F4805601E046F0400615462A4639
:1028300012F8010B3028F2D81F2838D9A0F1200354
:10284000102B34D801A151F823F000BF2928000033
:10285000AF280000AF28000091280000AF2800003A
:10286000AF280000AF28000097280000AF28000024
:10287000AF280000AF2800009D280000AF2800000E
:10288000A3280000AF280000AF280000A9280000FE
:1028900046F08006CAE746F40046C7E746F0200641
:1028A000C4E746F01006C1E746F40076BEE72A28E2
:1028B0001ED1039B191D03911F68002FBCBF7F42CF
:1028C00046F010061078AA1C27EAE7752E2824D0B7
:1028D0000027742845D07A2843D06C2800F0C280A5
:1028E0004C2800F0C580682800F0D38091463BE07A
:1028F000A0F13003DBB2092B88BF0027E4D8002702
:1029000007EB8707303800EB470712F8010BA0F1FF
:102910003003DBB2092BF3D9D6E710782A280AD185
:10292000039B191D03911F6850780232002FD0DBE2
:1029300046F48076CDE70132A0F13003DBB2092BFB
:1029400088BF0027F4D8002707EB8707303800EB53
:10295000470712F8010BA0F13003DBB2092BF3D9C2
:10296000E4E7914619F8010B782800F28480DFE84B
:1029700010F0100682008200820082008200820035
:102980008200820082008200820082008200820037
:102990008200820082008200820082008200820027
:1029A0008200820082008200820082008200820017
:1029B000820082008200820082008200A3008200E6
:1029C00082008200820082008200820082008200F7
:1029D00082008200820082008200820082008200E7
:1029E00082008200820082008200820082008200D7
:1029F000820082008200820082008200C401E10124
:102A0000E601820082008200820082008200820051
:102A100082008200820082008200820082008200A6
:102A200082001E01820082008200820082008200F9
:102A30008200820082008200A9005301C601E301E6
:102A4000E801820053018200820082008200B90006
:102A50004101040182008200CE0082004C0182000C
:102A600082002001914619F8010B46F001067BE730
:102A700046F0010691460C4B1C68002C00F0658561
:102A800003AB019300972B4632465946A04700F00E
:102A90005CBD1078682809D002F1010946F00406EF
:102AA00062E700BF0000C8421008002046F0080698
:102AB00002F10209507857E725215846FFF7C6FD75
:102AC00000F043BD039B1A1D03921C78013D5A463A
:102AD00029463046FFF7E2FD21465846FFF7B6FD8E
:102AE000B0463AE016F0080F08D0DBF80020039B50
:102AF000191D03911B681A7000F027BD039B1A1D56
:102B000003921B68DBF800201A6000F01EBD039BD7
:102B10001A1D03921C688C4B002C08BF1C4626F41F
:102B2000007816F4807F23D039462046FFF7F7FD62
:102B30000646AD1B5A4629464046FFF7AFFD06F153
:102B4000FF3A56B12746344417F8011B5846FFF7A1
:102B50007DFDBC42F8D14FF0FF3A18F0100F00F0A5
:102B6000F4845A4629462020FFF78AFD00F0EDBC88
:102B70002046FFF70EFE0646DBE7039B1A1D039275
:102B80001B6816F0800F0CBF0024232446F48076C7
:102B900008271A46002B00F0B48404AB4FF000085D
:102BA00006F40050DFF8A4C1A64600F06ABC46F463
:102BB000005616F0800F1BD043F2780443F25803FE
:102BC000782818BF1C4616F4807F01D026F40076C2
:102BD00016F4804F32D0039B1A1D03921B6816F027
:102BE000040F1FD01BB2002B20DA5B422D242DE0F6
:102BF0000024E8E716F0800F0CBF0024302416F400
:102C0000807FE5D026F40076E2E716F4807F07D0D7
:102C100026F400760024DBE746F480460024D7E75C
:102C20000024D5E716F0080FDDD0DBB216F0200F38
:102C300061D116F0400F18BF202407E0039B1A1D36
:102C400003921B6816F0040F50D09BB216F4807FDD
:102C500000F0E68326F400765838202800F23B8402
:102C600001A252F820F000BF932B0000D7340000DF
:102C7000D7340000D7340000D7340000D734000028
:102C8000D7340000D7340000D7340000D734000018
:102C9000D7340000D73400004D340000D734000092
:102CA000D7340000D7340000D73400004D34000082
:102CB000D7340000D7340000D7340000D7340000E8
:102CC000D734000025340000932B0000D7340000D7
:102CD000D7340000D7340000D73400004D34000052
:102CE000D7340000D7340000932B000016F0080FF3
:102CF000ACD0DBB2AAE72B24A8E746F4005646F492
:102D00008066039B073323F0070303F10802039255
:102D1000D3E90001FFF768FB08EE100A16F4807F84
:102D200016D0B7B906F44067B7F5406F14BF002757
:102D300001270EE046F4005646F40066E1E746F44B
:102D4000005646F44066DCE7103C0000E43B00001F
:102D50000627B0EE480AFFF771FB002840F0BB8061
:102D6000B0EE480AFFF774FB8046002840F0CC80A4
:102D7000B0EE480AFFF776FB002840F0CE8018EE50
:102D8000103A08EE103A07A800EE103AFFF7ACFB35
:102D9000079B03EB4303CA4A82FB0312DB17C3EB17
:102DA000A2030793B5EE408AF1EE10FA40F0BF801F
:102DB00006F44064B4F5806F0AD0B4F5406F40F07B
:102DC0006E81079BBB4203DA13F1040F80F2678127
:102DD00007984042FFF718FC28EE008A8DED028A22
:102DE000B5EE408AF1EE10FA36D0B0EE480AFFF7A1
:102DF00025FB002840F0B180F2EE047AB4EEE78AB9
:102E0000F1EE10FA0FDB079B0133F2EE047A1A465B
:102E100088EE278A0133B4EEE78AF1EE10FAF6DA8B
:102E20008DED028A0792DDED027AB7EE007AF4EEBC
:102E3000C77AF1EE10FA0FD5079B013BF2EE046A58
:102E40001A4667EEA67A013BF4EEC77AF1EE10FA65
:102E5000F6D4CDED027A079227B1B4F5406F08BFE2
:102E600007F1FF377842FFF7CFFBF6EE007A60EE0E
:102E7000277A9DED027A77EE877AB2EE047AF4EE45
:102E8000C77AF1EE10FA80F28180B0EE678A002FE7
:102E900000F0918006F40863B3F5006F7ED026F44D
:102EA000006302937B1DED1A013D16F4805F00F074
:102EB000F380079A834B83FB0213A3EBE27303EBCC
:102EC0004303D31A0233042B00F2E480DFE803F05B
:102ED00099DA9699DA00B5EEC08AF1EE10FA0CD4C0
:102EE00016F4005F784C794B08BF1C4616F0200F93
:102EF00008BF013426F4807611E616F4005F744CA6
:102F0000744B08BF1C46F5E716F4005F724C734B18
:102F100008BF1C4626F4807601E646F06006F1EE16
:102F2000487A17EE903A2CE7079B013307930798EE
:102F30000130FFF769FBB4EEC08AF1EE10FAF3DC62
:102F400002E0079B013B07930798FFF75DFBB4EE98
:102F5000C08AF1EE10FAF4D42AE7B5EEC08AF1EE99
:102F600010FA0CD416F4005F574C584B08BF1C469F
:102F700016F0200F08BF013426F48076CFE516F452
:102F8000005F534C534B08BF1C46F5E7079B0133CA
:102F90000793B2EE047A87EE878A78E7092FA8BFF5
:102FA00009273846FFF730FB60EE087AFCEEE77A37
:102FB00017EE903A4BB926F400630293053D16F0E4
:102FC00080073FF472AF47466EE7454AA2FB031203
:102FD000D20802EB8202B3EB420F7FF460AF4049AC
:102FE000A1FB0323DB08013FE5D0A1FB0302D208CC
:102FF00002EB8202B3EB420FF2D050E74FF0010830
:1030000008E0F2EE047A27EE888A013A0792013D41
:103010004FF0020827EAE77716F0600F18BF05F1B6
:10302000FF350798FFF747FB6328C8BF05F1FF3559
:10303000F0EE487ABCEEC87A17EE104AB8EE478A2E
:1030400037EEC88A25EAE57A029B13F4047F00F084
:10305000D580029B13F0200F00F0DE8013F0400FAC
:1030600014BF2D212B215846FFF7F0FA029B13F0D5
:10307000100F00F0DB801B4E08F10055013D06EB00
:10308000C505EAE028EE888A023A0792023D4FF031
:103090000308BFE7D046BDE74FF00108BCE716F4D0
:1030A000806F3ED0079B0E2B3ADC0133FC1A092CB3
:1030B000A8BF092416F0800F16D0274631E000BFC4
:1030C0006766666656555555283C0000303C000042
:1030D000183C0000203C0000383C00003C3C000054
:1030E000CDCCCCCC403C0000BB426BD0F6EE009A7D
:1030F000B2EE049A2046FFF787FA28EE000A30EE77
:10310000290AFFF7B9F9F0EE490A00F085FAB5EEA1
:10311000400AF1EE10FA57D1013CEBD1274600E00E
:10312000474626F480630293079B7842A3F1080286
:103130008242C8BFA3F10900FFF766FA4FF0FF30E3
:10314000FFF7F0F938EE008AB0EE489A07980130A0
:10315000FFF75AFAB4EEC08AF1EE10FA02DB079BD1
:10316000013307930798002840DB09282EDCFCEE8A
:10317000C97A17EE904AB8EE678A39EE488A00237A
:10318000079320460021092C35D9DFF82CC44FF0D5
:10319000010808F10108FCE90223994208BF9042A6
:1031A000F7D207EB0803079A1344ED1A06F08003E1
:1031B0003B4318BF05F1FF3516F0600F18BF05F14E
:1031C000FF353FE72746ACE72746AAE7A0F109030A
:1031D0000793C0F10900FFF717FA29EE009AFCEEF9
:1031E000C97A17EE904A08EE108ACAE700240794BD
:1031F0004FF00108D5E74FF00108D2E7002D7FF727
:1032000028AF20255646013E29465846FFF71EFAAC
:10321000002EF8D1B2461CE7029B13F0400F3FF49A
:1032200025AF20215846FFF711FA1FE7BAF1000F2A
:103230003FF421AF30255646013E29465846FFF758
:1032400005FA002EF8D1B24615E74FF0300C614672
:103250005846FFF7FBF9B04515D0D5E90023A8463D
:10326000083D0021994208BF9442EED34FF0300C44
:103270000CF1010C5FFA8CFCA41A0021994208BFE2
:103280009442F5D2E3E7029B13F4006449D1002F86
:1032900055D1029B13F0800F40F07E81029B13F406
:1032A000806F2FD013F4005F14BF4521652158466D
:1032B000FFF7CCF9079B002BC0F294802B215846D6
:1032C000FFF7C4F90799632900F394800799B64C76
:1032D00084FB0132C917C1EBA2013031C9B2584693
:1032E000FFF7B4F9079B84FB0324D917C1EBA401B2
:1032F00001EB8101A3EB410303F13001C9B2584650
:10330000FFF7A4F9BAF1000F00F01F812024554601
:10331000013D21465846FFF799F9002DF8D1AA46FC
:1033200013E1079B002BB2DD3025013B07932946B3
:103330005846FFF78BF9079B002BF6DCA7E72E21F9
:103340005846FFF783F93D46092FA8BF092525EA0E
:10335000E5757F1B8CB10798281AFFF755F920EE09
:10336000088AFCEEC87A17EE904A7DB305F1005545
:10337000013D8E4B03EBC50519E02846FFF744F9E4
:1033800020EE088AFCEEC87A17EE904AEDE70CF1C1
:10339000010C5FFA8CFCA41A0021994208BF9442E8
:1033A000F5D261465846FFF751F946450ED0D5E9AA
:1033B0000023A846083D0021994208BF944202D349
:1033C0004FF0300CE3E74FF0300CEAE7002F3FF40A
:1033D00065AF3024013F21465846FFF737F9002FEB
:1033E000F8D15BE72D215846FFF730F9079B5B4288
:1033F000079367E76E4C84FB0132C917C1EB62117A
:103400003031C9B25846FFF721F9079A84FB0231DF
:10341000D317C3EB6113642101FB1323079355E713
:10342000012719E41A464FF00008002B55D004A9D3
:103430004FF0000803F00703303301F8013B08F1B7
:103440000108D2081346002AF4D146E019464FF08D
:103450000008002B41D04FF0000806F4004E4FF05A
:103460002C0ADFF858C17346A6461C4624E002F039
:103470000F01504C615C03F8011B08F101081209AF
:1034800006D00028F3D002F00F011CF80110F2E77B
:10349000744622E008AB03EB0800ACFB0132D20813
:1034A00002EB8203A1EB4303303300F8103C08F138
:1034B000010809290DD91146002CEBD008F00303AF
:1034C000032BE7D108AB434403F810AC08F1010823
:1034D000E0E7744601E04FF00008A7EB080727EA91
:1034E000E777ED1BA5EB0805FF2C0DD9023DC4F3D2
:1034F00007215846FFF7AAF8E1B25846FFF7A6F8A9
:1035000004E04FF00008E8E7002C4BD15A4629466A
:103510003046FFF7C3F85A4639463020FFF7B0F877
:10352000B8F1010A0ED404AB54461C4498462178E5
:1035300027465846FFF78AF8444504F1FF34F6D190
:103540004FF0FF3A16F0100F0BD14D4615F8011B46
:1035500069B125293FF461A95846FFF777F8A946D4
:10356000F3E75A4629462020FFF78AF8EDE7DBF813
:1035700008303BB1DBF80020DBF804108A423CBF86
:1035800000219954DBF8000009B0BDEC048BBDE8C4
:10359000F08F4FF0FF30F7E72E215846FFF756F82F
:1035A0003D46D6E6013DA7E767666666403C0000FB
:1035B0001F85EB51D43B0000483C0000CDCCCCCC67
:1035C000DFED137AB4EE670AF1EE10FA12D010EEC6
:1035D000102AC2F3C7537F3B11D4162B12DC0D49BE
:1035E00021FA03F322EA030207EE902A026030EE8A
:1035F000670A7047C0ED007AB0EE670A7047C0ED09
:10360000007A704780ED000AB0EE670A704700BF8D
:1036100000000000FFFF7F0000B52DED028BF5EEEE
:10362000400AF1EE10FA83B04BD0B0EE608AF0EEB3
:10363000408AFEF70DFF30B1B0EE680A03B0BDEC72
:10364000028B5DF804FBB0EE480AFEF701FF00288C
:1036500043D1F5EE408AF1EE10FAEDD0B0EE680AF3
:10366000FEF7ECFE00283FD1B0EE480AFEF7E6FE7A
:103670000028E1D1B0EE480AFEF7FAFEB0EE408A2B
:1036800088EE880A01A8FFF79BFFDDED017AF5EED1
:10369000C08AB0EE680AF1EE10FAA8EE670AB1EE41
:1036A000487A24DDB4EEC08AF1EE10FA98BF30EE0D
:1036B000480AB5EEC00AF1EE10FABFD530EE080A9E
:1036C000BCE7FFF70DF8114B9FED110A1B68036073
:1036D00003B0BDEC028B5DF804FBB0EE480A03B00A
:1036E000BDEC028B5DF804FB9FED090AA6E7B4EE82
:1036F000C70AF1EE10FA98BF30EE080AB5EEC00A1C
:10370000F1EE10FA9ADD30EE480A97E7F43B00003C
:043710000000C07F76
:10371400A538000000000000A938000000000000E7
:10372400AE38000000000000A637000000000303CC
:1037340078370000000000008437000014000020E7
:103744007C000020440100204C0100208400002063
:043754001800000059
:10375800FFFFFFFFFFFFFFFFFFFFFFFFFFFFFFFF71
:1037680000000000000000000000D6010601000073
:103778009D040000510500009B04000075617274EF
:103788005F6C6F675F6261636B656E640042616363
:103798006B656E647320666C757368656400617030
:1037A800700000006C0500207F000000EC05002080
:1037B8001B5B306D002573001B5B313B33316D00A3
:1037C80025734C6F67732064726F7070656420286E
:1037D80025642925730D0A003C25733E2025733A7C
:1037E8002000202530327800202020007C0025632E
:1037F800001B5B313B33306D001B5B313B33326D5B
:10380800001B5B313B33336D001B5B313B33346D45
:10381800001B5B313B33356D001B5B313B33366D31
:10382800001B5B313B33376D007761726E696E67E1
:1038380000696E666F00646562756700B8370000DE
:10384800F9370000C03700000138000009380000CF
:10385800113800001938000021380000293800000C
:1038680000000000823800003138000039380000BC
:103878003E380000466174616C206572726F720098
:1038880053797374656D20726573657400303132D5
:10389800333435363738394142434445465052531C
:1038A80000554152540055415254450052657375B4
:1038B8006C74733A204D696E2F4D61783A202569F2
:1038C8002F25692C204176673A20252E32662C2038
:1038D800467265713A20252E31662C204465765F44
:1038E80070706D3A20252E31660052432061636363
:1038F80075726163792074657374206578616D7081
:103908006C65207374617274656400484620637244
:10391800797374616C2073746172746564004C46C9
:1039280020636C6F636B20737461727465640052FA
:1039380043206F73632063616C69627261746564AC
:10394800004368616E67696E6720746F20657874DC
:1039580065726E616C20524320636C6F636B2073D9
:103968006F757263652E2E2E00446F6E6500000021
:1039780000000000000000000338FDD87047000078
:1039880000000101010000000000000043000000E9
:10399800504F53495800000020202020202020208C
:1039A80020682828282820202020202020202020A7
:1039B8002020202020202020481010101010101047
:1039C800101010101010101084848484848484844F
:1039D8008484101010101010108181818181810160
:1039E80001010101010101010101010101010101BF
:1039F800010101101010101010828282828282024E
:103A0800020202020202020202020202020202028E
:103A180002020210101010200007032004170201F0
:103A2800085710408000000094390000983A0000C0
:103A3800AC3B000053756E004D6F6E005475650009
:103A480057656400546875004672690053617400D4
:103A5800000000004A616E00466562004D61720018
:103A6800417072004D6179004A756E004A756C00AC
:103A780041756700536570004F6374004E6F7600A0
:103A88004465630000000000414D00504D000000F7
:103A9800D03B0000CC3B0000CC3B0000CC3B0000FE
:103AA800CC3B0000CC3B0000CC3B0000CC3B0000F2
:103AB800CC3B0000CC3B0000FFFFFFFFFFFFFFFFF8
:103AC800FFFFFFFFFFFF00000C3B00003C3A000037
:103AD800483B00005C3A0000903A0000F03A0000D1
:103AE800A03B0000FC3A0000256D2F25642F2579A6
:103AF800000000002561202562202565202554202E
:103B08002559000053756E646179004D6F6E6461CC
:103B1800790054756573646179005765646E6573DF
:103B280064617900546875727364617900467269DA
:103B380064617900536174757264617900000000F2
:103B48004A616E7561727900466562727561727953
:103B5800004D6172636800417072696C004D617953
:103B6800004A756E65004A756C7900417567757312
:103B7800740053657074656D626572004F63746F8D
:103B8800626572004E6F76656D62657200446563AA
:103B9800656D62657200000025483A254D3A255347
:103BA800000000006D250000892500009525000013
:103BB800A1250000BD250000C9250000D52500006D
:103BC800E3250000000000002E00000030313233F1
:103BD800343536373839616263646566303132337B
:103BE80034353637383941424344454621000000D0
:103BF800000020410000C84200401C4620BCBE4CCA
:103C0800CA1B0E5AAEC59D74286E756C6C290000CF
:103C18002D494E46000000002D696E660000000028
:103C28002B494E46000000002B696E66000000001C
:103C38004E414E006E616E00010000000000000061
:103C48000A000000000000006400000000000000FE
:103C5800E80300000000000010270000000000003A
:103C6800A08601000000000040420F000000000094
:103C7800809698000000000000E1F50500000000B3
:103C880000CA9A3B0000000000E40B540200000048
:103C980000E87648170000000010A5D4E8000000EE
:103CA80000A0724E1809000000407A10F35A000074
:103CB8000080C6A47E8D03000000C16FF286230039
:103CC80000008A5D78456301000064A7B3B6E00D83
:083CD8000000E8890423C78AFB
:103CE0000000000000200040000000000020004014
:103CF0000000000000000000FF00000001000000C4
:103D00000090D003303A0000303A0000303A000012
:083D1000303A0000303A0000D7
:040000030000037581
:00000001FF
