:1000000000000420750300005D0300005F03000092
:1000100061030000630300006503000000000000AE
:100020000000000000000000000000006703000066
:1000300069030000000000006B0300006D03000076
:100040006F0300006F030000B51400006F03000091
:100050006F0300006F0300006F0300006F030000D8
:100060006F0300006F0300006F03000065210000B4
:100070006F0300006F0300006F0300006F030000B8
:100080006F0300006F0300006F0300006F030000A8
:100090006F0300006F0300006F0300006F03000098
:1000A0006F0300006F0300006F0300006F03000088
:1000B0006F0300006F03000000000000000000005C
:1000C0006F0300006F0300006F0300006F03000068
:1000D0006F0300006F0300006F0300006F03000058
:1000E0006F0300006F0300006F03000000000000BA
:1000F000000000006F030000000000006F0300001C
:1001000000000000000000000000000000000000EF
:1001100000000000000000000000000000000000DF
:1001200000000000000000000000000000000000CF
:1001300000000000000000000000000000000000BF
:1001400000000000000000000000000000000000AF
:10015000000000000000000000000000000000009F
:10016000000000000000000000000000000000008F
:10017000000000000000000000000000000000007F
:10018000000000000000000000000000000000006F
:10019000000000000000000000000000000000005F
:1001A000000000000000000000000000000000004F
:1001B000000000000000000000000000000000003F
:1001C000000000000000000000000000000000002F
:1001D000000000000000000000000000000000001F
:1001E000000000000000000000000000000000000F
:1001F00000000000000000000000000000000000FF
:10020000354936480A1A02D0072291438D463449AF
:1002100034480A1A06D00722914381F30988022242
:1002200082F3148830483149314A00F044F83148AB
:100230003149324A00F03FF831483249324A00F041
:100240003AF832483249334A00F035F832483349F7
:10025000334A00F030F833483349344A00F02BF881
:1002600033483449344A00F026F8344834490022EF
:1002700000F02CF833483449002200F027F83348C6
:100280003349091A082902DB002202604160314A21
:1002900090471F481F49884205D00268043003B4C4
:1002A000904703BCF7E700208646EC46002000217B
:1002B000294A9047FEE7884207D0521A05D00378B2
:1002C00001300B700131013AF9D17047884202D0F8
:1002D00002700130FAE770470000042000E00320BC
:1002E0000000042000000420003D00000000002069
:1002F00038000020D0030000D00300001C370000AD
:10030000003D0000000000200000002060370000D9
:100310006037000060370000603700006037000081
:10032000603700006037000060370000003D0000CB
:10033000383D000038000020380000203800002040
:10034000241600202416002028160020281600203D
:10035000283600209D03000005200000FEE7FEE790
:10036000FEE7FEE7FEE7FEE7FEE7FEE7FEE7FEE765
:1003700000F002B8FFF7FCBF0F484FF007018843B9
:1003800085460E4880470E48016841F470010160BF
:10039000BFF34F8FBFF36F8FFFF732BF09480A4992
:1003A0000A4A884207D0521A05D0037801300B70F0
:1003B0000131013AF9D17047000004200522000004
:1003C00088ED00E060370000000000200000002001
:1003D000004870471C160020F0B595B01D46164623
:1003E00008460C4600F0C4FF1A9B0D93CDE9086542
:1003F00000252B46082205A920460A958DF82C5089
:100400000C9500F0D1FF079B0293069B03939DF888
:1004100014308DF8115003F00302012A1DD1BDF8EC
:100420001420059DC3F3C203C2F383168DF8103068
:10043000B20008230EA9204600F0B6FFC5F39525AB
:1004400008AB0093324602AB0EA9284600F086FBAB
:10045000204600F091FF15B0F0BD022AF8D1BDF89A
:100460001650C3F3C203C5F389158DF81030082761
:10047000082D2E4628BF08263B4632460EA92046A8
:1004800000F092FFAD1B08AB02AA31460EA837441C
:1004900000F0C8FB002DEBD1DAE7704707B5044B3D
:1004A0000093044A4023FFF797FF03B05DF804FB75
:1004B000F90400003900002030B50C4D0FCD89B093
:1004C0006C460FC495E80F0084E80F000623084827
:1004D00000930022694600F0AFFF08B100F002FC73
:1004E000044B00221A7009B030BD00BF6037000015
:1004F000000000203800002038B50D480D4C0E4D8E
:10050000002323700378EB5CD2B263B1043001F0B6
:1005100095FC08B100F0E6FB084B1A7812B123787D
:10052000002BFBD038BD0C3001F018FAF1E700BF0A
:10053000000000207900002018060020380000206C
:1005400008B50848084A0378D35C33B1043001F099
:10055000E5FBBDE80840FFF7AFBF0C3001F096F9AE
:10056000F7E700BF0000002018060020FFF7A4BF37
:1005700008B5FFF7FBFF0448042100F059FA034BCC
:1005800001225A7108BD00BF3C3700001400002052
:10059000037813F0040216D003F00303012B03D0F9
:1005A000022B09D0012070470A6800880232C0F38C
:1005B000831002440A60F5E70B684288023303EBBC
:1005C00092130B60EEE71046704700002DE9F04FE4
:1005D000DFF810A10F4685B00446861C00201546A2
:1005E00000F0D6FBDAF804203A60DAF8083003F5B8
:1005F00080739B1A0AF21C470AF583690AF21448B1
:10060000B34219D30020002D68D004F00F039B01E2
:1006100043F0050363F30F00DAF80430DAB2033273
:1006200033444AF822000020CAF8043000F0B2FB3C
:10063000012005B0BDE8F08F0121384600F0CFFB66
:10064000484600F0E4FB404600F0E1FBDAF8080021
:100650000090C0B203300AEB80006946FFF798FFB4
:10066000009B30BBDAB20AEB8202D16801919A1C7E
:100670000133DBB20AEB83030092D3F80CB001F034
:100680000303012B22D0022B15D08346404600F0F5
:10069000C1FB10B1009BCAF808305946384600F03B
:1006A0009EFBDAF80830DAF8042003F580739B1A11
:1006B000A6E7D8B2CEE7BDF80630C3F389130333FB
:1006C0004FEA1B4B02EB93030093DFE7BDF80430C6
:1006D000C3F383134FEA1B4B1344F5E7A40544F01F
:1006E000060099E74C010020064B074810B501228F
:1006F0001A7000F0F6FD044610B9044800F05EFEE2
:10070000204610BD4C0100204C370000B4370000DB
:1007100030B50A4C71B10A4A0A49121BD2080023AB
:100720009A4201D1002030BD31F82350854202D0D9
:100730000133F5E7034654F83300F4E71C370000B3
:100740003C37000000000020094B013903EBC000DA
:10075000032909D8DFE801F00A02040604207047E3
:100760000079704740797047002070470220704739
:100770001C370000034BD3E90130C31A58425841DB
:10078000704700BF4C0100202DE9FF41FFF7F2FF49
:100790000546002840F0E980754CC4F81804BFF302
:1007A0004F8FA3680093DBB2033304EB83006946E9
:1007B000FFF7EEFE009B18B1D4F81824002A5AD097
:1007C000DAB2991C013304EB8202DBB204EB83033F
:1007D000D268DB68029302F00303022B01920091BE
:1007E00054D1BDF806306348C3F38917502F3E46F5
:1007F00028BF502606F1080166F38F13C1F30901E3
:10080000ADF8063000F085FD0546002800F0988020
:1008100000F0AEFD0023082201A9284600F0BAFD31
:100820000099CB43DBB20133C9B20331B6EB830F7E
:100830004FEA830204EB810125D95FFA82F808238D
:10084000A6EB0806284600F0A5FDF6B208F108035D
:10085000494903F0FC033246284600F09BFD009B0B
:10086000033703EB97070097D4F81834002B43D1D4
:10087000D4F8106453E062689A4294D8A260284683
:1008800004B0BDE8F08108233246E5E7012B57D1DB
:10089000BDF804303748C3F38311062928BF062169
:1008A00061F38913023101F00F018900ADF80430C2
:1008B00000F02FFD0546002842D000F059FD00232E
:1008C000082201A9284600F065FD0026BDF8042095
:1008D000C2F38312B300964203F10803C4D2009915
:1008E0004A1CC9B20331009204EB8101042228465C
:1008F00000F050FD0136E9E7284600F03DFDFFF726
:1009000039FF80F00100C5B2B9E7F3685B7923B124
:10091000336829461B6830469847F3681E68002EE6
:10092000F3D1284600F028FD304600F031FAD4F823
:1009300018340BB9009BA360002000F02BFADEE70F
:10094000D4F8104454B90D4B0D480E49C01AC008D4
:10095000000440F0020000F05DF8D0E72368204674
:100960009B689847E3681C68ECE7002587E700BFB1
:100970004C0100204C370000580100201C370000BB
:10098000343700009D3700002DE9F34704460E463A
:10099000924601A9012218469946FFF717FE1B4F00
:1009A00010B3019D4FF00008AA1CC84508EB0201D6
:1009B00023D11748002100F0EFF980F31000000464
:1009C00040EA1440E4006B1C04F03804DBB2EDB2E2
:1009D00044F0010407EB8303033544EA881444EA36
:1009E0008624D86047F825403B781BB1FFF7CCFE42
:1009F0000028FBD102B0BDE8F087C9B207EB810146
:100A00005AF82830CB6008F10108CEE74C010020ED
:100A10006805002000231A46FFF7B6BF07B501237B
:100A2000019201AAFFF7B0FF03B05DF804FB0000DC
:100A300030B50F4CD4F8102403460020114631B9CC
:100A4000D96808714AB9C4F810340A6030BDC96861
:100A50000D79854206D00968F1E7D26814680C6008
:100A60001360F3E701300A28E8D14FF0FF30EDE7DB
:100A70004C01002038B5084B0125D3F810441D70F7
:100A800004B938BDE3685D71236820465B68984708
:100A9000E3681C68F4E700BF4C01002030B5C38850
:100AA00085B004460D4633B1144A00921449154AE4
:100AB000284600F009FA217A05291DD0637A4BB146
:100AC000A088FFF741FE104B104953F8202028461C
:100AD00000F0FAF9227A0E4BA08853F822200392F4
:100AE0000021FFF715FE039A0A490346284605B080
:100AF000BDE8304000F0E8B905B030BDE037000097
:100B0000C8370000C03700004C380000E53700004F
:100B100070380000E837000007B503460846197A28
:100B2000052911D05B7A2BB1094A0A49019000F0DE
:100B3000CBF901980849019000F0C6F9019803B07B
:100B40005DF804EB00F0B5B9002AF8D0F2E700BF79
:100B5000E0370000E5370000DD3700002DE9F04305
:100B600085B01F460C9D002395F80C902B7306460C
:100B70000C46904629463846FFF790FFB8F1060F1D
:100B800009D8DFE808F00412181F28334000314666
:100B9000284600F099F9002229463846FFF7BCFFA5
:100BA00085F80C9005B0BDE8F083226831462846F0
:100BB00000F08AF9EFE7D4E900233146284600F037
:100BC00083F9E8E7A36800933146D4E90023284677
:100BD00000F07AF9DFE7E3680193A36800933146F8
:100BE000D4E90023284600F06FF9D4E72369029383
:100BF000E3680193A36800933146D4E900232846B3
:100C000000F062F9C7E76369039323690293E3681D
:100C10000193A36800933146D4E90023284600F0ED
:100C200053F9B8E708292DE9F74F80460E461746D5
:100C30001C463DD800251B7B257321461046019399
:100C4000FFF72CFFDFF88CA0DFF88CB0AE4232D972
:100C500018F805205946204600F036F90135082DD0
:100C6000F4D11B49DFF874A0DFF874B0204600F01F
:100C70002BF94FF000094E4524D918F809507E2D64
:100C80001ED8284601F042FD002814BF2A462E2215
:100C90005946204600F018F909F10109B9F1080F89
:100CA000E9D1012221463846FFF736FF019B237325
:100CB00003B0BDE8F08F5146204600F005F9CDE7BE
:100CC0002E22E5E75146204600F0FEF8E4E700BF9B
:100CD000FC370000F8370000F2370000FA37000058
:100CE000FE3700001FB50021039001AA44F2010065
:100CF000CDE9011100F004F805B05DF804FB000037
:100D000038B572B6FFF7B6FEFFF73EFD0028FBD1FF
:100D1000104B114C114D1249E41AE408240444F01C
:100D20000100FFF777FED5F8F030DB0700D500BEF5
:100D30000C4944F00200FFF76DFEBFF34F8FEA68E5
:100D4000094B02F4E0621343EB60BFF34F8F00BF27
:100D5000FDE700BF1C3700003437000000ED00E065
:100D600084380000903800000400FA0572B6024A88
:100D7000136801331360704704060020034A1368A8
:100D8000013B136003B962B6704700BF0406002040
:100D9000FFF7ECBFFFF7F2BF10B5034653E8000FB3
:100DA0000A4643E8002494F0000FF7D110BD10B5B7
:100DB000034653E8002F42EA010043E8000494F0A0
:100DC000000FF6D110BD10B5034653E8000F00EA3E
:100DD000010243E8002494F0000FF6D110BD10B5D5
:100DE000034653E8002F02EB010043E8000494F0AF
:100DF000000FF6D110BD10B5034653E8002FA2EB4B
:100E0000010043E8000494F0000FF6D110BD012169
:100E1000FFF7CDBF0021FFF7D6BF10B590B1D0E9E5
:100E2000012301689B1ADBB20A60013BDBB2FF2B96
:100E3000026802D10020107110BD11684C1C1460B2
:100E40000B70F2E70E20F7E738B504460020FFF7F5
:100E50009FFF226863681168994213D9481E106089
:100E600011F8013CE568218A01FB0355A36811795B
:100E70001B1ADBB2994200D213710020FFF78AFFE0
:100E8000284638BD0025F8E738B5054600200C4651
:100E9000FFF77EFF2A681368591C1160E968641A1D
:100EA000298AB4FBF1F41C70BDE838400020FFF73C
:100EB00071BF826810B504462AB1436901680069B0
:100EC00098470023A36010BD0EB403B5039921B168
:100ED00004AB01AA019300F077F802B05DF804EBCF
:100EE00003B070470A2938B504460D4602D10D21DA
:100EF000FFF7F8FFA3682268591CA160D554D4E914
:100F000001329A4204D32046BDE83840FFF7D1BFF2
:100F100038BD00002DE9F84F9846DDE90A43154633
:100F200082460F460A464FF00109AA420FD2C14538
:100F300038BFC14613F0010B01D16CB90024012662
:100F4000B8F1010F1BD908F1FF386E43F8E709F13A
:100F50000109B2FBF5F2E8E79B070ED5B8F1000FE7
:100F60000CBF30262026A145E9D2013C314650462F
:100F7000FFF7B8FF002CF6D1E0E72026F3E7B7FB38
:100F8000F6F39D42E1D9DFF83C80B7FBF6F350461B
:100F900018F8031006FB1377FFF7A4FF3346AB42A4
:100FA000B6FBF5F6F1D2BBF1000F02D00CB1A145B2
:100FB00001D3BDE8F88F20215046013CFFF792FF96
:100FC000F4E700BF9D3800002DE9F74F05461746AE
:100FD0008846002900F03E8118F8011B49B92B7B97
:100FE000002B00F03781284603B0BDE8F04FFFF733
:100FF00060BF252940F0B780002698F800302D2BDF
:10100000424608F1010823D0302B24D02B2B25D0C9
:1010100000242A2B02F1010123D13B681A1D1B6811
:101020003A601C440A4613782E2B26D101324FF029
:10103000000A104610F8011BA1F1300CBCF1090F99
:101040001DD80A2303FB0A13A3F1300A0246F0E776
:1010500046F00106D1E746F00206CEE746F0040668
:10106000CBE711F8013CA3F130000928DBD80A22B4
:1010700002FB0434303C0A46CBE74FF0000A12F87A
:10108000011B01F0FB0068289046F8D0782909D8A8
:101090006F290CD8632962D022D8252963D058291A
:1010A00000F0888098F80030002B95D197E77039D0
:1010B0000829F7D801A353F821F000BF2F12000030
:1010C000A5100000A5100000C5110000A51000002B
:1010D000A3110000A5100000A5100000B51100002C
:1010E000642901D06929DDD13A68D2F80090111D38
:1010F00089EAE9723960A2EBE9724FF0010B092A23
:1011000035DCD34538BFD3462CB1B9F1000F01DB34
:10111000720700D5013CB30702D5BAF1000F03D026
:10112000F00701D44CBB0024B9F1000F2DDAC9F14E
:1011300000092D212846FFF7D5FE06F00302022AFA
:1011400004D1BAF1000F01D11CBB0024CDE9004647
:1011500053460A2249462846FFF7DCFEA2E73B68D1
:101160001A1D19783A602846FFF7BCFE9AE70A2351
:101170000BF1010BB2FBF3F2C1E7A345D4D220215E
:101180002846013CFFF7AEFECCE77107D5D52B21F1
:10119000D0E7A345DAD230212846013CFFF7A2FE72
:1011A000D2E73968CDE900460A1D3A6053460A2263
:1011B0000968D0E739680A1D3A60CDE90046534610
:1011C0001022F5E73B681A1D3A6016F00106D3F8C5
:1011D000009024D1B9F1000F03D0484601F0F5FA90
:1011E0000646B4421DD809F1FF3919F8011F00293C
:1011F0003FF458AF2846FFF775FEF6E7284601365C
:10120000FFF770FE19F806100029F7D1A642BFF4C7
:1012100049AF20212846013CFFF764FEF6E700268F
:10122000F0E720212846013CFFF75CFED9E73B6848
:101230001A1D3A60302128461C68FFF753FE7821BA
:101240002846FFF74FFE00220823CDE90032214651
:10125000102280E703B0BDE8F08F00BF2DE9F84F02
:10126000B0F806A04579D2F800B09DF828900AFBA6
:1012700005F5043D88460BEB0301A94203F1040484
:1012800088BFA5EB030BB4FBFAF607460AFB16442E
:10129000C2F800B04EB9AAEB04055D4528BF5D4613
:1012A000BBF1000F04D1BDE8F88F3F68013EF1E7C4
:1012B000043408EB06003C442A46B9F1000F0DD077
:1012C0002146ABEB050B01F057FADA452E443F6897
:1012D00055464FF0000428BF5D46E1E70146204631
:1012E000EFE7FFF79ABDF8B546790146721E05464D
:1012F000002393422D6803D30024A64202D8F8BDF0
:101300000133F6E70F682846FFF7BEFD0134394682
:10131000F3E72DE9F843068ACD1C0746FFF794FD55
:10132000043E35440446B5FBF6F5F0B14FF4807346
:10133000EDB28380C680013D076081464FF0000812
:10134000A84512D23846FFF77FFD064648B16379BB
:101350000133637108F10108C9F800000760814694
:10136000EEE72046FFF7BFFF34462046BDE8F8838E
:1013700001210430FFF733BD10B5012104460430CC
:10138000FFF739FDC0B220B92046BDE81040FFF795
:10139000AABF10BD1FB503920022009203AAFFF757
:1013A0005DFF05B05DF804FB1FB5039201220092BA
:1013B00003AAFFF753FF05B05DF804FB8368002222
:1013C0005A60C3E904229A60DA601A60704700002C
:1013D0001FB503788DF800304368019383688DF85A
:1013E0000830C368054A0393054B684653F821301B
:1013F00052F82110984705B05DF804FB080600205C
:10140000100600201FB503788DF800304368019363
:1014100083688DF80830C368054A0393054B684616
:1014200053F8213052F82110984705B05DF804FBBD
:101430000806002010060020F0B5194B90F800C0F7
:10144000DFF86CE043F82C20164B16460A6943F887
:101450002C204B7F0EF80C300C4607460FCC89B081
:101460006D460FC594E80F0085E80F003B78CDF876
:1014700010C01EF803304BB1002E0B4A694608BF5E
:101480003246381D00F06EFB09B0F0BD002E074A51
:10149000694608BF324607F10C0000F027F9F3E770
:1014A0001006002008060020D113000005140000DB
:1014B00018060020014B1B68184700BF1C060020BF
:1014C00038B50B4B98420C4601D0002038BD0020A7
:1014D000FFF75EFC074B1D7915B901221C601A71DC
:1014E0000020FFF757FC002DEFD01120EEE700BFE2
:1014F000002000401C060020034B984201BF034B14
:1015000000221A601A717047002000401C0600205B
:101510000023435082B043580193019B02B07047AF
:101520000A4610B54FF48E71FFF7F2FF136A916807
:10153000C95C136A01331362C0F81C1510BD8B69B6
:101540000A4610B54FF4847123B9FFF7E1FFD0F8D4
:10155000183510BDFFF7DCFF536AD168D0F81805C5
:10156000C854536A01335362F3E700001FB50123E7
:101570008DF80030044BCDE90110D3E90012684624
:10158000904705B05DF804FB2406002030B54D4DB2
:10159000D5F804339A0585B051D5D5F82431002B00
:1015A0004DD04FF492712846FFF7B2FF4FF401730C
:1015B000C5F80833444B93F829200AB901226A6020
:1015C000404902228DF80020D1F88024C1F88024FF
:1015D00003929A690292DA6801920022C3E9062214
:1015E0006846D3E9001290473648D0F81C315BB109
:1015F000354A5169136A99424DD992F82830002B27
:1016000049D11146FFF78CFF2E48D0F84431002B0A
:1016100056D04FF4A271FFF77BFF2B4B93F8292094
:101620000AB1012202609A69002A49D0586AD96831
:1016300000229A6105B0BDE83040FFF797BFD5F8AA
:1016400004335B07D0D5D5F80831002BCCD01E4C25
:101650001C482146FFF773FF636AA2699A42C3D10F
:10166000E369E1684BB1A3612369E3600023606A29
:10167000E3616362FFF77AFFB6E794F829300BB9AC
:1016800001236B600F4B4FF40172C3F80823002352
:10169000606AA361EEE70B484FF48E71FFF738FFE5
:1016A0005369002BB0D051690291002391688DF8E5
:1016B0000030019153616846D2E900139847A3E7CF
:1016C00005B030BD00200040240600201F2886BF42
:1016D00000F01F00044B4FF0A04300F5E070022221
:1016E00043F82020704700BF000300502DE9F84365
:1016F000604D90F804802C2303FB0853064693F8B2
:101700002A300C469146002B40F0AF805A490068C1
:10171000FFF7D6FE0746002840F0A9802268531C38
:1017200010D01F2A87BF554902F01F0313464FF000
:10173000A0410120984003F5E073C1F8080503209B
:1017400041F823006168481C0DD01F298BBF01F0B0
:101750001F030B4649484FF0A04003F5E0734FF0DC
:10176000000C40F823C03068A369C0F8243594F811
:1017700014C0637DBCF1010F4CEA0303C0F86C3563
:10178000C0F81415C0F80C252BD1A368591C0DD036
:101790001F2B8BBF03F01F021A4638494FF0A041A0
:1017A00002F5E0724FF0000C41F822C0E1684A1CDB
:1017B00013D01F2987BF314A01F01F0C8C464FF010
:1017C000A0424FF0010E0EFA0CFE0CF5E07CC2F8C0
:1017D00008E54FF0030E42F82CE0C0F80815C0F8F9
:1017E00010352C2202FB08F2AB18C3F804902369D1
:1017F000AB50B9F1000F20D04FF48E71247FFFF76A
:1018000087FE4FF4A2713068FFF782FE32681C4BEE
:10181000C2F80433130B42F307326101002AC9B244
:101820001EDB1848841884F800130121520903F0C4
:101830001F0301FA03F340F8223033680422C3F88F
:1018400000252C2303FB08530022C3E9062283F85A
:1018500029205A61012283F82A203846BDE8F883FE
:10186000094A03F00F03D154E7E70827F5E71127EA
:10187000F3E700BF240600208D1500000003005090
:101880008000020000E100E014ED00E02DE9F041ED
:1018900003680579284C0022C3F800252C2202FB9E
:1018A000054201465268A2B1244AC3F808231A0B24
:1018B00043F30733002B0CDB02F01F005B0901220E
:1018C000824020331E4840F82320BFF34F8FBFF3E0
:1018D0006F8F0B68D3F80C05D3F81485D3F808651F
:1018E000D3F810754FF0FF329042C3F81425C3F8B7
:1018F0000C25C3F80825C3F8102501D0FFF7E6FE34
:10190000B8F1FF3F02D04046FFF7E0FE7A1C02D05C
:101910003846FFF7DBFE731C02D03046FFF7D6FED9
:101920000868FFF7E9FD2C2303FB0544002384F836
:101930002A306360BDE8F0812406002084020200A2
:1019400000E100E00279044B2C2101FB02335869CD
:10195000003818BF01207047240600202DE9F84FF9
:10196000064690F8048089469246FFF7EBFF04464E
:1019700000283CD1204F2C2508FB057B4FF48E71AD
:10198000CBF814A0CBF80890CBF820008BF82800F7
:101990003068FFF7BDFD3068012383605946FFF7CB
:1019A000BFFDDBF804305D461BBB3068DBF814403C
:1019B0002B6A9C4211D83368D3F81C21002AFBD033
:1019C0000122DA6000202C2303FB087700237B61CF
:1019D000BDE8F88F95F828303BB9D0F81C31002BC2
:1019E000F8D05946FFF79CFDE2E70F20EBE7112006
:1019F000EEE72046ECE700BF24060020002343501A
:101A000082B043580193019B02B070471FB5012378
:101A10008DF80030044BCDE90110D3E9001268467F
:101A2000904705B05DF804FB500600207FB5434A9F
:101A3000D2F82461002E60D010464FF49271FFF767
:101A4000DDFF02238DF80030D2F88034C2F88034F4
:101A50000393D2F83C350293394BDA6801920022A5
:101A6000C3E906226846D3E9001290473348D0F80C
:101A7000443173B14FF4A271FFF7C0FF304B9A6944
:101A80003AB10022C3E90622D968D0F83C05FFF735
:101A9000BDFF2A48D0F82031ABB14FF49071FFF769
:101AA000ADFF0123C360264B5A6962B1D0F84C15D3
:101AB0000291002299688DF8002001915A616846D0
:101AC000D3E9001290471D48D0F858319BB14FF42C
:101AD000AC71FFF793FF1A4B5A6962B1D0F84C15FD
:101AE0000291002299688DF8002001915A616846A0
:101AF000D3E90012904704B070BDD2F81031002B2A
:101B0000B4D04FF488711046FFF778FF0C4BD2F831
:101B10003C0599698842A9D1DC69D96864B1D2F8D9
:101B2000005225F02005C2F800521A699C61DA6063
:101B3000DE61FFF76BFF99E79C61FAE70020004048
:101B4000500600201F2886BF00F01F00044B4FF0F6
:101B5000A04300F5E070022243F82020704700BF48
:101B6000000300502DE9F843664E90F804802423CA
:101B700003FB0863044693F820300D469146002B82
:101B800040F0BC8060490068FFF79AFC07460028D7
:101B900040F0B68029684B1C10D01F2987BF5B4AD4
:101BA00001F01F030B464FF0A0420120984003F5BF
:101BB000E073C2F80805032042F823006A68501C4D
:101BC0000DD01F2A8BBF02F01F0313464F484FF062
:101BD000A04003F5E0734FF0000C40F823C02068EC
:101BE000AB69C0F8243595F814C06B7DBCF1010FCA
:101BF0004CEA0303C0F86C35C0F80C15C0F8142586
:101C00002BD1AB68591C0DD01F2B8BBF03F01F02CB
:101C10001A463E494FF0A04102F5E0724FF0000C29
:101C200041F822C0E9684A1C13D01F2987BF374AF0
:101C300001F01F0C8C464FF0A0424FF0010E0EFA3F
:101C40000CFE0CF5E07CC2F808E54FF0030E42F8FC
:101C50002CE0C0F80815C0F81035242202FB08F269
:101C6000B318C3F804902B69B350B9F1000F2FD00B
:101C70004FF488712A7FFFF7C1FE20684FF49071FE
:101C8000FFF7BCFE20684FF49271FFF7B7FE2068A3
:101C90004FF4A271FFF7B2FE4FF4AC712068FFF76A
:101CA000ADFE23681A49C3F80413190B43F3073335
:101CB0005201002BD2B21CDB1648C51885F8002350
:101CC00001225B0901F01F0102FA01F140F8231023
:101CD00023680822C3F80025242303FB0866002399
:101CE000C6E906337361012386F820303846BDE823
:101CF000F883094B01F00F015A54E9E70827F5E78B
:101D00001127F3E7500600202D1A000000030050B1
:101D10001003420000E100E014ED00E02DE9F04185
:101D20003D4D06790468242303FB065302465B6895
:101D3000ABB13A4BC4F8083344F30733002B4FEAF6
:101D400014310CDB01F01F005B09012181402033BD
:101D5000334840F82310BFF34F8FBFF36F8FD4F891
:101D6000003223F02003C4F80032242303FB06537F
:101D70009B6933B14FF4A2712046FFF73FFE012368
:101D800063604FF4AC712046FFF738FE0123E36037
:101D9000242303FB0653D4F858110029FBD099697A
:101DA00019B1D4F844110029F5D00023C4F8003546
:101DB0001368D3F80C05D3F81485D3F80815D3F8B5
:101DC00010754FF0FF329042C3F80C25C3F814256C
:101DD000C3F80825C3F8102501D0FFF7B3FEB8F10A
:101DE000FF3F02D04046FFF7ADFE7A1C02D03846D6
:101DF000FFF7A8FE4B1C02D00846FFF7A3FE2046C3
:101E0000FFF77AFB242303FB0655002385F82030D7
:101E10006B60BDE8F08100BF500600201003420057
:101E200000E100E00279044B242101FB02335869F0
:101E3000003818BF012070475006002001F06043B1
:101E4000B3F1005F2DE9F0470646884692463BD144
:101E500090F80490FFF7E6FF0446002836D11D4FA6
:101E60003068242505FB09754FF49071C5F814A05E
:101E7000C5F80880FFF7C2FD4FF4AC713068FFF77A
:101E8000BDFD33686A69A968C3F84415C3F84825DD
:101E900001229A606A68DAB9D3F82021D3F8580190
:101EA0001AB90028F8D00F2007E00028FBD1012242
:101EB000DA60D3F85821002AFBD0242303FB0977EA
:101EC00000237B61BDE8F0871020FBE71120F9E7D4
:101ED0002046F7E7500600202DE9F04F3D4B3E4CE1
:101EE0003E4FDFF81C912DED028BE41AE408240428
:101EF000B5B044F0030405264FF0000847F0010791
:101F0000374BC9F8008083F800801A78002AFCD08B
:101F10000020344D83464FF0FF3A012140F2E9336F
:101F200055F82120524538BF55F821A055F82120F9
:101F30005A4588BF55F821B055F821200131994202
:101F40001044EDD107EE900A9FED277ADFED276A66
:101F5000F8EE677A4FF4487587EE878AC8EE267ADE
:101F6000C7EE278A9FED227AFFEE007AE8EE877AA5
:101F70009FED207A67EE877A17EE900A00F036FA26
:101F8000CDE9040118EE900A00F030FACDE9020123
:101F900018EE100A00F02AFA5B46CDE9000152461D
:101FA000154907A800F0C2FB144907AA2046FEF70E
:101FB00035FD4FF47A40B847013DFAD1FEF7E4FB16
:101FC0000028FBD1013E9BD135B0BDEC028BBDE8B2
:101FD000F08F00BF1C37000034370000A03900002C
:101FE0001C0000207806002000007A4400007A4699
:101FF0000000003800247449BC380000E5370000B8
:102000001C1600200021F8B50846FEF76DFB08B14C
:10201000FEF768FEFEF7ACFA434C44484449241AE4
:10202000E408240444F003042046FEF7F3FC4FF0D8
:10203000804540492046FEF7EDFC01230022EB607D
:10204000C5F81825C5F80421AB60D5F80431002B7C
:10205000FBD039492046FEF7DDFC384A00235360A7
:10206000C5F8003101232B604FF08046D6F80031CF
:10207000002BFBD020463249FEF7CCFC314A3249D6
:1020800000270323C2F81075C2F808352F4B01252D
:10209000C3F81015A1F54351C3F81415C3F804553E
:1020A0002B49A3F5A033E020C3F84453C3F80453ED
:1020B000C3F8087581F80B034FF4006008601560E1
:1020C0009D601D60FFF708FFC6F80C7135614FF089
:1020D0008045D5F80C31002BFBD01E492046FEF779
:1020E00099FCFFF7F9FE1C492046FEF793FC0123FB
:1020F0000022EB60C5F81835C5F80421AB604FF03D
:102100008042D2F80431002BFBD014492046FEF760
:1021100081FCFFF7E1FE12492046FEF77BFCFEF74B
:1021200033FB0028FBD1FEE7343700001C370000EA
:10213000DE370000FA3800001C39000000B0004013
:102140002D3900000080004000B1004000F0014047
:1021500000E100E0473900005939000081390000F2
:10216000863900000F4BD3F8002170B5CAB10E4973
:102170000022C3F800210B789BB90C4B0C48D3F814
:1021800040450C4B02681D686E1C1E600A4EA21A68
:1021900046F8252004601B68B3F57A7F84BF0123CD
:1021A0000B7070BD00B000401C000020008000409B
:1021B000740600201C160020780600204FF0805383
:1021C000D3F83001A0F1080358425841704700008D
:1021D0004FF08053D3F83021082A06D1D3F8343198
:1021E000052B02D8024AD05C70470020704700BF20
:1021F000AC390000024AD2F80034002BFBD0704703
:1022000000E0014010B5FFF7D9FF40B14FF0804327
:102210000022C3F80C21C3F81021C3F83825FFF7BA
:10222000CDFF002846D04FF08052654BD2F8041401
:10223000C3F82015D2F80814C3F82415D2F80C14EA
:10224000C3F82815D2F81014C3F82C15D2F81414BA
:10225000C3F83015D2F81814C3F83415D2F81C148A
:10226000C3F84015D2F82014C3F84415D2F824144A
:10227000C3F84815D2F82814C3F84C15D2F82C141A
:10228000C3F85015D2F83014C3F85415D2F83414EA
:10229000C3F86015D2F83814C3F86415D2F83C14AA
:1022A000C3F86815D2F84014C3F86C15D2F844246A
:1022B000C3F87025FFF78CFF18B1424B424AC3F8B0
:1022C0008C26FFF785FF18B1404BFB22C3F8182579
:1022D000FFF77EFF70B14FF080414FF08053D1F88F
:1022E000E42ED3F8583222F00F0203F00F03134309
:1022F000C1F8E43EFFF76CFF20B1354B4FF400729C
:10230000C3F84026FFF75AFF48B14FF08043D3F897
:102310000024D20744BF6FF00102C3F800242D4A05
:10232000D2F8883043F47003C2F88830BFF34F8F7F
:10233000BFF36F8F4FF08053D3F83021082A0ED1AE
:10234000D3F83431052B02D8234AD35C3BB14FF08C
:102350001023D3F808224FF08043C3F858254FF0DC
:102360001023D3F80022002A03DBD3F80432002B19
:1023700022DA1A4901234FF01020C1F80435122443
:10238000FFF738FFC0F80042FFF734FFC0F80442FF
:10239000FFF730FF0023C1F80435FFF72BFFBFF331
:1023A0004F8F0C490E4BCA6802F4E0621343CB60B6
:1023B000BFF34F8F00BFFDE70A4B0B4A1A6010BDF9
:1023C00000C00040005000404881030000F0004081
:1023D0000090024000ED00E0A639000000E001405E
:1023E0000400FA05200000200090D003C0F3C7517C
:1023F00091B142004FEA40704FEAD2014FEA3101F9
:1024000001F16051B2F17F4F38BF704701F1605167
:1024100018BF41F40021704710F0004100207047C0
:1024200001F000428B1AA3F16051B1F5801F0ADB65
:10243000B1F17F6F09D242EAC102C10071F10041DE
:1024400042EB507070471046704701285B4113F50E
:10245000001F04D842F0FE4040F400007047C9005D
:1024600041EA507040EA020040F4800040F08040B1
:10247000704700BF10EE100A4FEA4000B0F17F4FE6
:102480000CBF01200020704710EE100A4100002010
:10249000B1F17F4F18BF50EB0000704710EE100AEB
:1024A00000F00040704700BFB0EEC00A704700BFA8
:1024B00000B510EE100A00F003F800EE100A00BD9F
:1024C0004FF07F43B3EB400F22D9410008BF704764
:1024D00003EA4002120E7F3A14DB172AA8BF7047A6
:1024E0004FF6FF73C0F27F03D340184220EA030087
:1024F00018BF10F0004F08BF70474FF40001D140E3
:102500004018704710F0004F0CBF00200248704781
:1025100018BF024870470000000080BF0000C07F65
:1025200000B5014610EE100A00F003F800EE100AA4
:1025300000BD4FF07F43B3EB400F98BF704713EAE5
:10254000400207D0120E7E3A0A6020EA530040F0A3
:102550007C5070470A6000F00040704700B50146AB
:1025600010EE100A00F003F800EE100A00BD4FF064
:102570007F43B3EB400F98BF704713EA400204BF9C
:1025800000F00040704711EB1262DCBF00F0004029
:102590007047FF2A3CBF00EBC150704740004FEA34
:1025A000330070477F2805D8034B185C034B5B5CF6
:1025B0001840704700207047C0390000403A0000C2
:1025C000A0F16103192B98BF20387047A0F1410397
:1025D000192B98BF203070477F2805D8034B185C13
:1025E000034B5B5C1840704700207047C039000007
:1025F000403A0000A0F16103192B98BF20387047C2
:10260000A0F14103192B98BF203070477F299ABF52
:10261000017001206FF02E0070475AB10A787F2AAE
:102620000AD800B10260002119605960501A18BF21
:1026300001207047002070476FF02E0070470000A7
:10264000002816DB002817DD0022B7EE000A0C4B2D
:1026500010F0010F1CBFD3ED007A20EE270A4010C6
:1026600004330028F4DC4AB1F7EE007A87EE800AE2
:10267000704740420122E8E7B7EE000A704700BF0A
:10268000183C000010B504460846A2684AB1236809
:10269000616803F1010C8C4508BF00208B4208D211
:1026A000D054E3682BB121686268914201D221467F
:1026B000984723680133236010BD70B54C1E09D4C0
:1026C0001646C5B229463046FFF7DCFF013CB4F19F
:1026D000FF3FF7D170BD10F0100F08D108B510F40E
:1026E000007F14BF30202020FFF7E7FF08BD7047B0
:1026F0000028B8BF4042704708B5034B5B689B6831
:102700001B68984708BD00BF2400002008B50921B8
:10271000FFF7F2FF08BD000000B5FDF759FE024BC0
:1027200018445DF804FB00BF080000000EB400B5BB
:1027300086B007AA52F8041B059203900023049365
:102740006FF00043029301A800F070F806B05DF846
:1027500004EB03B07047037853B159B10144034609
:1027600013F8012F12B18B42FAD10B46181A704799
:102770000346FBE70346F9E7844640EA010313F00A
:10278000030F18D18446202A0BD32DE9F007B1E8B6
:10279000F807A0E8F807A2F12002202AF7D2BDE846
:1027A000F007042A07D351F8043B40F8043BA2F198
:1027B0000402042AF7D2002A05D011F8013B00F8E0
:1027C000013B013AF9D16046704700F1010110F078
:1027D000030F11D010F8012B002A23D010F0030FA3
:1027E0000AD010F8012B002A1CD010F0030F03D0E0
:1027F00010F8012B002A15D02DE970004FF001329E
:102800004FF0803350F8044BA4EB020525EA040591
:102810001D4000D1F6E7A0F1040070BC10F8012BB8
:10282000002AFBD1A0EB0100704700002DE9F04F1A
:102830002DED048B8BB083460592002303600D467B
:1028400015F8011B002900F09986DFED988A4E46A5
:1028500000F086BE4FF0000807E05E2866D148F41D
:10286000805801E048F040081D462B4613F8010B44
:102870003028F2D81F2838D9A0F12002102A34D8E5
:1028800001A151F822F000BF65280000EB280000EC
:10289000EB280000CD280000EB280000EB2800000A
:1028A000EB280000D3280000EB280000EB280000F4
:1028B000EB280000D9280000EB280000DF280000EA
:1028C000EB280000EB280000E528000048F0800815
:1028D000CAE748F40048C7E748F02008C4E748F0D2
:1028E0001008C1E748F40078BEE72A281ED1059AEF
:1028F000111D05911768002FBCBF7F4248F01008DA
:102900001878AB1C27EAE7772E2824D000257428F6
:1029100045D07A2843D06C2800F0C2804C2800F0C3
:10292000C780682800F0D58003933BE0A0F1300217
:10293000D2B2092A88BF0027E4D8002707EB87070F
:10294000303800EB470713F8010BA0F13002D2B288
:10295000092AF3D9D6E718782A280AD1059A111D31
:102960000591156858780233002DD0DB48F4807843
:10297000CDE70133A0F13002D2B2092A88BF002589
:10298000F4D8002505EB8505303800EB450513F834
:10299000010BA0F13002D2B2092AF3D9E4E713F80F
:1029A000010B0393782800F28680DFE810F0F90528
:1029B00084008400840084008400840084008400F7
:1029C00084008400840084008400840084008400E7
:1029D00084008400840084008400840084008400D7
:1029E00084008400840084008400840084008400C7
:1029F0008400840084008400A0008400840084009B
:102A000084008400840084008400840084008400A6
:102A10008400840084008400840084008400840096
:102A20008400840084008400840084008400840086
:102A30008400840084008400BE01DB01E001840086
:102A40008400840084008400840084008400840066
:102A500084008400840084008400840084001901C0
:102A60008400840084008400840084008400840046
:102A700084008400A6004E01C001DD01E201840053
:102A80004E018400840084008400B6003C010001F3
:102A900084008400CB0084004701840084001B0173
:102AA00013F8010B039348F001087BE70000C842CC
:102AB00048F001080393B04B1C68002C00F04C85D3
:102AC00005AB019300953B4642465946A04700F0AE
:102AD00043BD1878682804D00133039348F00408F4
:102AE00060E748F008089A1C039258785AE72521B5
:102AF0005846FFF7C7FD00F02FBD059B1A1D059234
:102B00001C78013F5A4639464046FFF7E4FD21460E
:102B10005846FFF7B7FDC14639E018F0080F08D056
:102B2000DBF80020059B191D05911B681A7000F049
:102B300013BD059B1A1D05921B68DBF800201A6067
:102B400000F00ABD059B1A1D05921B688B4C002BDB
:102B500018BF1C4628F4007918F4807F22D029463B
:102B60002046FFF7F8FD05467F1B5A463946484682
:102B7000FFF7B1FD6E1E55B126462C4416F8011B19
:102B80005846FFF77FFDB442F8D14FF0FF3619F0F9
:102B9000100F00F0E1845A4639462020FFF78DFDE2
:102BA00000F0DABC2046FFF710FE0546DCE7059B87
:102BB0001A1D05921B6818F0800F0CBF00262326F3
:102BC00048F4807808251A46002B00F0A58406AB4F
:102BD000002408F40050DFF8A8C1AE4600F05FBC46
:102BE00048F4005818F0800F1BD043F2780643F2E7
:102BF0005803782818BF1E4618F4807F01D028F4A7
:102C0000007818F4804F32D0059B1A1D05921B687E
:102C100018F0040F1FD01BB2002B20DA5B422D26C8
:102C20002DE00026E8E718F0800F0CBF00263026C4
:102C300018F4807FE5D028F40078E2E718F4807F6C
:102C400007D028F400780026DBE748F48048002607
:102C5000D7E70026D5E718F0080FDDD0DBB218F073
:102C6000200F60D118F0400F18BF202607E0059B09
:102C70001A1D05921B6818F0040F4FD09BB218F470
:102C8000807F00F0E18328F400785838202800F293
:102C9000308401A252F820F0C72B0000F33400006A
:102CA000F3340000F3340000F3340000F334000088
:102CB000F3340000F3340000F3340000F334000078
:102CC000F3340000F33400006F340000F3340000EC
:102CD000F3340000F3340000F33400006F340000DC
:102CE000F3340000F3340000F3340000F334000048
:102CF000F33400004D340000C72B0000F334000013
:102D0000F3340000F3340000F33400006F340000AB
:102D1000F3340000F3340000C72B000018F0080F54
:102D2000ADD0DBB2ABE72B26A9E748F4005848F456
:102D30008068059B073323F0070303F1080205921F
:102D4000D3E90001FFF76CFB08EE100A18F4807F4E
:102D500018D0C5B908F44065B5F5406F14BF00251B
:102D6000012510E048F4005848F40068E1E748F411
:102D7000005848F44068DCE720160020303C000092
:102D8000043C00000625B0EE480AFFF773FB00285C
:102D900040F0BC80B0EE480AFFF776FB8246002880
:102DA00040F0CD80B0EE480AFFF778FB002840F0F5
:102DB000CF8018EE103A08EE103A09A800EE103A4B
:102DC000FFF7AEFB099B03EB43039B4A82FB031215
:102DD000DB17C3EBA2030993B5EE408AF1EE10FABC
:102DE00040F0C08008F44064B4F5806F0AD0B4F5B8
:102DF000406F40F0E581099BAB4203DA13F1040F09
:102E000080F2DE8109984042FFF71AFC28EE008A22
:102E10008DED048AB5EE408AF1EE10FA36D0B0EEB0
:102E2000480AFFF727FB002840F0B280F2EE047A50
:102E3000B4EEE78AF1EE10FA0FDB099B0133F2EEF4
:102E4000047A1A4688EE278A0133B4EEE78AF1EE57
:102E500010FAF6DA8DED048A0992DDED047AB7EE08
:102E6000007AF4EEC77AF1EE10FA0FD5099B013B18
:102E7000F2EE046A1A4667EEA67A013BF4EEC77AD0
:102E8000F1EE10FAF6D4CDED047A099225B1B4F53D
:102E9000406F08BF05F1FF356842FFF7D1FBF6EE42
:102EA000007A60EE277A9DED047A77EE877AB2EEAB
:102EB000047AF4EEC77AF1EE10FA80F28280B0EE76
:102EC000678A002D00F0928008F40863B3F5006F64
:102ED0007FD028F400696B1DFF1A013F18F4805F52
:102EE00000F06B81099A554B83FB0213A3EBE2734D
:102EF00003EB4303D31A0233042B00F25C81DFE8B7
:102F000013F0AD0052019700AD005201B5EEC08A3A
:102F1000F1EE10FA0CD418F4005F494C494B08BF8D
:102F20001C4618F0200F08BF013428F4807811E601
:102F300018F4005F444C454B08BF1C46F5E718F4F5
:102F4000005F434C434B08BF1C4628F4807801E6E1
:102F500048F06008F1EE487A17EE903A2BE7099BAB
:102F60000133099309980130FFF76AFBB4EEC08A78
:102F7000F1EE10FAF3DC02E0099B013B099309989A
:102F8000FFF75EFBB4EEC08AF1EE10FAF4D429E745
:102F9000B5EEC08AF1EE10FA0CD418F4005F284C9C
:102FA000284B08BF1C4618F0200F08BF013428F436
:102FB0008078CFE518F4005F234C244B08BF1C46F3
:102FC000F5E7099B01330993B2EE047A87EE878A0D
:102FD00077E7092DA8BF09252846FFF731FB60EEEA
:102FE000087AFCEEE77A17EE903A43B928F40069C4
:102FF000053F18F080053FF471AF55466DE7164A5E
:10300000A2FB0312D20802EB8202B3EB420F7FF461
:1030100060AF1149A1FB0323DB08013DE6D0A1FB12
:103020000302D20802EB8202B3EB420FF2D050E768
:103030004FF0010A1BE000BF67666666565555559E
:10304000483C0000503C0000383C0000403C000080
:10305000583C00005C3C0000CDCCCCCCF2EE047AB5
:1030600027EE888A013A0992013F4FF0020A25EAC9
:10307000E57518F0600F18BF07F1FF370998FFF7E3
:1030800037FB6328C8BF07F1FF37F0EE487ABCEE84
:10309000C87A17EE104AB8EE478A37EEC88A27EA90
:1030A000E77619F4047F00F0248119F0200F00F076
:1030B0002C8119F0400F14BF2D212B215846FFF70A
:1030C000E1FA19F0100F00F029810AF10053013BD9
:1030D000C44A02EBC30800272B4655469A46013DD9
:1030E000D8F80030D8F80420A8F108089C4277EB03
:1030F0000201C0F01F8130210131C9B2E41A9C42A3
:1031000077EB0200F8D25846FFF7BCFA002DE6D163
:10311000554619F4006440F00F81002D40F01B81EA
:1031200019F0800F40F03F8219F4806F2FD019F40E
:10313000005F14BF452165215846FFF7A3FA099B9C
:10314000002BC0F263812B215846FFF79BFA0999A7
:10315000632900F363810999A34C84FB0132C917E9
:10316000C1EBA2013031C9B25846FFF78BFA099B77
:1031700084FB0324D917C1EBA40101EB8101A3EB6C
:10318000410303F13001C9B25846FFF77BFA002E24
:1031900000F0E2812024013E21465846FFF772FAF2
:1031A000002EF8D1D8E128EE888A023A0992023F2F
:1031B0004FF0030A5BE7B24659E74FF0010A58E7C0
:1031C00018F4806F29D0099B0E2B25DC0133EC1AF3
:1031D000092CA8BF092418F0800F01D025461CE057
:1031E000AB426AD0F6EE009AB2EE049A2046FFF7A0
:1031F00027FA28EE000A30EE290AFFF759F9F0EE17
:10320000490A00F00DFAB5EE400AF1EE10FA56D177
:10321000013CEBD1254600E0554628F48069099B26
:103220006842A3F108028242C8BFA3F10900FFF778
:1032300007FA4FF0FF30FFF791F938EE008AB0EE51
:10324000489A09980130FFF7FBF9B4EEC08AF1EE15
:1032500010FA02DB099B013309930998002840DB2F
:1032600009282EDCFCEEC97A17EE904AB8EE678A80
:1032700039EE488A0023099300202646092C35D9C7
:103280005A4B4FF0010A0AF1010A53F8081F5A6815
:103290008E4270EB0202F6D205EB0A03099A134440
:1032A000FF1A08F080032B4318BF07F1FF3718F00F
:1032B000600F18BF07F1FF37F1E62546ADE7254659
:1032C000ABE7A0F109030993C0F10900FFF7B8F9D2
:1032D00029EE009AFCEEC97A17EE904A08EE10AA81
:1032E000CAE7002409944FF0010AD5E74FF0010A1C
:1032F000D2E7002F7FF7D9AE2027013E3946584646
:10330000FFF7C0F9002EF8D1CFE619F0400F3FF4D7
:10331000D8AE20215846FFF7B5F9D2E6002E3FF48B
:10332000D4AE3027013E39465846FFF7ABF9002EA0
:10333000F8D1CAE63021E6E6099B002B7FF7EDAE17
:103340003027013B099339465846FFF79BF9099B03
:10335000002BF6DCE1E62E215846FFF793F92F46C5
:10336000092DA8BF092727EAE777ED1BACB109981B
:10337000381AFFF765F920EE088AFCEEC87A17EED6
:10338000904ABFB3DFF85CA007F10057013F0AEB9A
:10339000C7080027CDF8109015E03846FFF750F920
:1033A00020EE088AFCEEC87A17EE904AE9E7013170
:1033B000C9B2E41A9C4277EB0200F8D25846FFF7F4
:1033C00061F9D14514D0D8F80030D8F80420C146AE
:1033D000A8F108089C4277EB020101D33021E6E70F
:1033E0003021EBE7603C000067666666683C0000E1
:1033F000DDF81090002D3FF497AE3024013D2146BA
:103400005846FFF73FF9002DF8D18DE62D2158469B
:10341000FFF738F9099B5B42099398E6664C84FBF9
:103420000132C917C1EB62113031C9B25846FFF7FA
:1034300029F9099B84FB0321DA17C2EB611264218D
:1034400001FB1233099386E601251EE41A46002487
:10345000002B4FD006A9002403F00703303301F8F6
:10346000013B0134D2081346002AF5D142E0194647
:103470000024002B3ED0002408F4004E4FF02C090D
:10348000DFF83CC17346AE461D4623E002F00F0153
:103490004A4D695C03F8011B0134120906D000286B
:1034A000F4D002F00F011CF80110F3E7754621E09B
:1034B00004F128030DEB0300ACFB0132D20802EB50
:1034C0008203A1EB4303303300F8103C0134092997
:1034D0000DD91146002DEBD004F00303032BE7D1E7
:1034E00004F128036B4403F8109C0134E0E77546AF
:1034F00000E000242D1B25EAE5757F1B3F1BFF2EF6
:103500000CD9023FC6F307215846FFF7BBF8F1B2CA
:103510005846FFF7B7F803E00024EBE7002E48D148
:103520005A4639464046FFF7D6F85A4629463020D3
:10353000FFF7C3F8661E0CD406AE013C3444217874
:103540005846FFF79FF8A64204F1FF34F7D14FF039
:10355000FF3618F0100F0BD1039D15F8011B69B150
:1035600025293FF477A95846FFF78CF80395F3E730
:103570005A4639462020FFF7A0F8EDE7DBF808307F
:103580003BB1DBF80020DBF804108A423CBF00218D
:103590009954DBF800000BB0BDEC048BBDE8F08F54
:1035A0004FF0FF30F7E72E215846FFF76BF82F4614
:1035B000DBE6013FABE700BF1F85EB51F43B0000AA
:1035C000CDCCCCCC9FED147AB4EE470AF1EE10FAD4
:1035D000F0EE407A12D010EE102AC2F3C7537F3BB0
:1035E00011D4162B12DC0D4921FA03F322EA03024F
:1035F00007EE102A026030EE470A7047B0EE470A25
:1036000080ED007A704780ED007A7047B0EE470A8F
:10361000C0ED007A704700BF00000000FFFF7F0090
:1036200000B52DED028BF5EE400AF1EE10FA83B0F5
:103630004BD0B0EE608AF0EE408AFEF725FF30B145
:10364000B0EE680A03B0BDEC028B5DF804FBB0EE8F
:10365000480AFEF719FF002843D1F5EE408AF1EE43
:1036600010FAEDD0B0EE680AFEF704FF00283FD153
:10367000B0EE480AFEF7FEFE0028E1D1B0EE480A9F
:10368000FEF712FFB0EE408A88EE880A01A8FFF725
:1036900099FFDDED017AF5EEC08AB0EE680AF1EE31
:1036A00010FAA8EE670AB1EE487A24DDB4EEC08ABB
:1036B000F1EE10FA98BF30EE480AB5EEC00AF1EE0E
:1036C00010FABFD530EE080ABCE7FFF725F8114B1A
:1036D0009FED110A1B68036003B0BDEC028B5DF81F
:1036E00004FBB0EE480A03B0BDEC028B5DF804FBAE
:1036F0009FED090AA6E7B4EEC70AF1EE10FA98BFEB
:1037000030EE080AB5EEC00AF1EE10FA9ADD30EE9E
:0C371000480A97E7143C00000000C07F4E
:10371C00AD38000000000000B138000000000000CF
:10372C00B638000000000000AE37000000000303B4
:10373C0080370000000000008C37000014000020CF
:10374C007C000020440100204C010020840000205B
:04375C001800000051
:10376000FFFFFFFFFFFFFFFFFFFFFFFFFFFFFFFF69
:1037700000000000000000000000D601060100006B
:103780009D040000410500009B04000075617274F7
:103790005F6C6F675F6261636B656E64004261635B
:1037A0006B656E647320666C757368656400617028
:1037B000700000006C0500207F000000EC05002078
:1037C0001B5B313B33316D0025734C6F6773206495
:1037D000726F70706564202825642925730D0A00B6
:1037E0001B5B306D002573003C25733E2025733A2A
:1037F0002000202530327800202020007C00256326
:10380000001B5B313B33306D001B5B313B33326D52
:10381000001B5B313B33336D001B5B313B33346D3D
:10382000001B5B313B33356D001B5B313B33366D29
:10383000001B5B313B33376D007761726E696E67D9
:1038400000696E666F00646562756700E0370000AE
:1038500001380000C03700000938000011380000AE
:1038600019380000213800002938000031380000E4
:10387000000000008A38000039380000413800009C
:1038800046380000466174616C206572726F720088
:1038900053797374656D20726573657400303132CD
:1038A0003334353637383941424344454650525314
:1038B00000554152540055415254450052657375AC
:1038C0006C74733A204D696E2F4D61783A202569EA
:1038D0002F25692C204176673A20252E32662C2030
:1038E000467265713A20252E31662C204465765F3C
:1038F00070706D3A20252E3166005243206163635B
:1039000075726163792074657374206578616D7078
:103910006C6520737461727465640A004C462063A0
:103920006C6F636B2073746172746564004C462025
:10393000636C6F636B2073746172746564202852CA
:1039400043206F736329005243206F7363206361C8
:103950006C69627261746564004368616E67696E68
:103960006720746F2065787465726E616C205243B5
:1039700020636C6F636B20736F757263652E2E2EE0
:1039800000446F6E6500546573747320646F6E65D8
:103990000000000000000000000000000000000027
:1039A0000338FDD87047000000000101010000004D
:1039B0000000000043000000504F53495800000031
:1039C000202020202020202020682828282820208F
:1039D00020202020202020202020202020202020E7
:1039E000481010101010101010101010101010109F
:1039F000848484848484848484841010101010103F
:103A00001081818181818101010101010101010197
:103A1000010101010101010101010110101010104B
:103A20001082828282828202020202020202020268
:103A30000202020202020202020202101010102010
:103A400000070320041702010857104080000000FF
:103A5000B4390000B83A0000CC3B000053756E004A
:103A60004D6F6E00547565005765640054687500AD
:103A70004672690053617400000000004A616E00E4
:103A8000466562004D617200417072004D617900BF
:103A90004A756E004A756C00417567005365700089
:103AA0004F6374004E6F76004465630000000000B1
:103AB000414D00504D000000F03B0000EC3B000089
:103AC000EC3B0000EC3B0000EC3B0000EC3B00005A
:103AD000EC3B0000EC3B0000EC3B0000EC3B00004A
:103AE000FFFFFFFFFFFFFFFFFFFFFFFFFFFF0000E4
:103AF0002C3B00005C3A0000683B00007C3A000070
:103B0000B03A0000103B0000C03B00001C3B00002E
:103B1000256D2F25642F25790000000025612025C3
:103B200062202565202554202559000053756E64B8
:103B30006179004D6F6E64617900547565736461DD
:103B400079005765646E65736461790054687572B5
:103B500073646179004672696461790053617475B8
:103B600072646179000000004A616E7561727900CB
:103B70004665627275617279004D617263680041D9
:103B80007072696C004D6179004A756E65004A7506
:103B90006C79004175677573740053657074656D59
:103BA000626572004F63746F626572004E6F766576
:103BB0006D62657200446563656D62657200000048
:103BC00025483A254D3A255300000000A525000060
:103BD000C1250000CD250000D9250000F5250000F5
:103BE000012600000D2600001B260000000000003A
:103BF0002E000000303132333435363738396162C7
:103C00006364656630313233343536373839414292
:103C10004344454621000000000020410000C84206
:103C200000401C4620BCBE4CCA1B0E5AAEC59D743B
:103C3000286E756C6C2900002D494E46000000006E
:103C40002D696E66000000002B494E460000000002
:103C50002B696E66000000004E414E006E616E00E2
:103C600001000000000000000A0000000000000049
:103C70006400000000000000E803000000000000F5
:103C80001027000000000000A086010000000000D6
:103C900040420F00000000008096980000000000E5
:103CA00000E1F5050000000000CA9A3B000000009A
:103CB00000E40B540200000000E876481700000002
:103CC0000010A5D4E800000000A0724E1809000002
:103CD00000407A10F35A00000080C6A47E8D0300D5
:103CE0000000C16FF286230000008A5D7845630101
:103CF000000064A7B3B6E00D0000E8890423C78A7A
:103D000000000000002000400000000000200040F3
:103D10000000000000000000FF00000001000000A3
:103D20000090D003503A0000503A0000503A000092
:083D3000503A0000503A000077
:040000030000037581
:00000001FF
