:1000000000000120750300005D0300005F03000095
:1000100061030000630300006503000000000000AE
:100020000000000000000000000000006703000066
:1000300069030000000000006B0300006D03000076
:100040006F0300006F030000B51400006F03000091
:100050006F0300006F0300006F0300006F030000D8
:100060006F0300006F0300006F030000ED2000002D
:100070006F0300006F0300006F0300006F030000B8
:100080006F0300006F0300006F0300006F030000A8
:100090006F0300006F0300006F0300006F03000098
:1000A0006F0300006F0300006F0300006F03000088
:1000B0006F0300006F03000000000000000000005C
:1000C0006F0300006F0300006F0300006F03000068
:1000D0006F0300006F0300006F03000000000000CA
:1000E0000000000000000000000000000000000010
:1000F0000000000000000000000000000000000000
:1001000000000000000000000000000000000000EF
:1001100000000000000000000000000000000000DF
:1001200000000000000000000000000000000000CF
:1001300000000000000000000000000000000000BF
:1001400000000000000000000000000000000000AF
:10015000000000000000000000000000000000009F
:10016000000000000000000000000000000000008F
:10017000000000000000000000000000000000007F
:10018000000000000000000000000000000000006F
:10019000000000000000000000000000000000005F
:1001A000000000000000000000000000000000004F
:1001B000000000000000000000000000000000003F
:1001C000000000000000000000000000000000002F
:1001D000000000000000000000000000000000001F
:1001E000000000000000000000000000000000000F
:1001F00000000000000000000000000000000000FF
:10020000354936480A1A02D0072291438D463449AF
:1002100034480A1A06D00722914381F30988022242
:1002200082F3148830483149314A00F044F83148AB
:100230003149324A00F03FF831483249324A00F041
:100240003AF832483249334A00F035F832483349F7
:10025000334A00F030F833483349344A00F02BF881
:1002600033483449344A00F026F8344834490022EF
:1002700000F02CF833483449002200F027F83348C6
:100280003349091A082902DB002202604160314A21
:1002900090471F481F49884205D00268043003B4C4
:1002A000904703BCF7E700208646EC46002000217B
:1002B000294A9047FEE7884207D0521A05D00378B2
:1002C00001300B700131013AF9D17047884202D0F8
:1002D00002700130FAE770470000012000E00020C2
:1002E0000000012000000120483D00000000002027
:1002F00038000020D0030000D00300006037000069
:10030000483D00000000002000000020A43700004D
:10031000A4370000A4370000A4370000A437000071
:10032000A4370000A4370000A4370000483D0000B7
:10033000803D0000380000203800002038000020F8
:100340001C1600201C16002020160020201600205D
:10035000203600209D0300008D1F0000FEE7FEE711
:10036000FEE7FEE7FEE7FEE7FEE7FEE7FEE7FEE765
:1003700000F002B8FFF7FCBF0F484FF007018843B9
:1003800085460E4880470E48016841F470010160BF
:10039000BFF34F8FBFF36F8FFFF732BF09480A4992
:1003A0000A4A884207D0521A05D0037801300B70F0
:1003B0000131013AF9D17047000001209921000074
:1003C00088ED00E0A43700000000002000000020BD
:1003D0000048704714160020F0B595B01D4616462B
:1003E00008460C4600F0C4FF1A9B0D93CDE9086542
:1003F00000252B46082205A920460A958DF82C5089
:100400000C9500F0D1FF079B0293069B03939DF888
:1004100014308DF8115003F00302012A1DD1BDF8EC
:100420001420059DC3F3C203C2F383168DF8103068
:10043000B20008230EA9204600F0B6FFC5F39525AB
:1004400008AB0093324602AB0EA9284600F086FBAB
:10045000204600F091FF15B0F0BD022AF8D1BDF89A
:100460001650C3F3C203C5F389158DF81030082761
:10047000082D2E4628BF08263B4632460EA92046A8
:1004800000F092FFAD1B08AB02AA31460EA837441C
:1004900000F0C8FB002DEBD1DAE7704707B5044B3D
:1004A0000093044A4023FFF797FF03B05DF804FB75
:1004B000F90400003900002030B50C4D0FCD89B093
:1004C0006C460FC495E80F0084E80F000623084827
:1004D00000930022694600F0AFFF08B100F002FC73
:1004E000044B00221A7009B030BD00BFA4370000D1
:1004F000000000203800002038B50D480D4C0E4D8E
:10050000002323700378EB5CD2B263B1043001F0B6
:1005100059FC08B100F0E6FB084B1A7812B12378B9
:10052000002BFBD038BD0C3001F0FAF9F1E700BF29
:100530000000002079000020100600203800002074
:1005400008B50848084A0378D35C33B1043001F099
:100550009DFBBDE80840FFF7AFBF0C3001F06AF922
:10056000F7E700BF0000002010060020FFF7A4BF3F
:1005700008B5FFF7FBFF0448042100F059FA034BCC
:1005800001225A7108BD00BF80370000140000200E
:10059000037813F0040216D003F00303012B03D0F9
:1005A000022B09D0012070470A6800880232C0F38C
:1005B000831002440A60F5E70B684288023303EBBC
:1005C00092130B60EEE71046704700002DE9F04FE4
:1005D000DFF810A10F4685B00446861C00201546A2
:1005E00000F0D6FBDAF804203A60DAF8083003F5B8
:1005F00080739B1A0AF21C470AF583690AF21448B1
:10060000B34219D30020002D68D004F00F039B01E2
:1006100043F0050363F30F00DAF80430DAB2033273
:1006200033444AF822000020CAF8043000F0B2FB3C
:10063000012005B0BDE8F08F0121384600F0CFFB66
:10064000484600F0E4FB404600F0E1FBDAF8080021
:100650000090C0B203300AEB80006946FFF798FFB4
:10066000009B30BBDAB20AEB8202D16801919A1C7E
:100670000133DBB20AEB83030092D3F80CB001F034
:100680000303012B22D0022B15D08346404600F0F5
:10069000C1FB10B1009BCAF808305946384600F03B
:1006A0009EFBDAF80830DAF8042003F580739B1A11
:1006B000A6E7D8B2CEE7BDF80630C3F389130333FB
:1006C0004FEA1B4B02EB93030093DFE7BDF80430C6
:1006D000C3F383134FEA1B4B1344F5E7A40544F01F
:1006E000060099E74C010020064B074810B501228F
:1006F0001A7000F0F6FD044610B9044800F05EFEE2
:10070000204610BD4C01002090370000F837000053
:1007100030B50A4C71B10A4A0A49121BD2080023AB
:100720009A4201D1002030BD31F82350854202D0D9
:100730000133F5E7034654F83300F4E7603700006F
:100740008037000000000020094B013903EBC00096
:10075000032909D8DFE801F00A02040604207047E3
:100760000079704740797047002070470220704739
:1007700060370000034BD3E90130C31A5842584197
:10078000704700BF4C0100202DE9FF41FFF7F2FF49
:100790000546002840F0E980754CC4F81804BFF302
:1007A0004F8FA3680093DBB2033304EB83006946E9
:1007B000FFF7EEFE009B18B1D4F81824002A5AD097
:1007C000DAB2991C013304EB8202DBB204EB83033F
:1007D000D268DB68029302F00303022B01920091BE
:1007E00054D1BDF806306348C3F38917502F3E46F5
:1007F00028BF502606F1080166F38F13C1F30901E3
:10080000ADF8063000F085FD0546002800F0988020
:1008100000F0AEFD0023082201A9284600F0BAFD31
:100820000099CB43DBB20133C9B20331B6EB830F7E
:100830004FEA830204EB810125D95FFA82F808238D
:10084000A6EB0806284600F0A5FDF6B208F108035D
:10085000494903F0FC033246284600F09BFD009B0B
:10086000033703EB97070097D4F81834002B43D1D4
:10087000D4F8106453E062689A4294D8A260284683
:1008800004B0BDE8F08108233246E5E7012B57D1DB
:10089000BDF804303748C3F38311062928BF062169
:1008A00061F38913023101F00F018900ADF80430C2
:1008B00000F02FFD0546002842D000F059FD00232E
:1008C000082201A9284600F065FD0026BDF8042095
:1008D000C2F38312B300964203F10803C4D2009915
:1008E0004A1CC9B20331009204EB8101042228465C
:1008F00000F050FD0136E9E7284600F03DFDFFF726
:1009000039FF80F00100C5B2B9E7F3685B7923B124
:10091000336829461B6830469847F3681E68002EE6
:10092000F3D1284600F028FD304600F031FAD4F823
:1009300018340BB9009BA360002000F02BFADEE70F
:10094000D4F8104454B90D4B0D480E49C01AC008D4
:10095000000440F0020000F05DF8D0E72368204674
:100960009B689847E3681C68ECE7002587E700BFB1
:100970004C01002090370000580100206037000033
:1009800078370000E13700002DE9F34704460E46B2
:10099000924601A9012218469946FFF717FE1B4F00
:1009A00010B3019D4FF00008AA1CC84508EB0201D6
:1009B00023D11748002100F0EFF980F31000000464
:1009C00040EA1440E4006B1C04F03804DBB2EDB2E2
:1009D00044F0010407EB8303033544EA881444EA36
:1009E0008624D86047F825403B781BB1FFF7CCFE42
:1009F0000028FBD102B0BDE8F087C9B207EB810146
:100A00005AF82830CB6008F10108CEE74C010020ED
:100A10006805002000231A46FFF7B6BF07B501237B
:100A2000019201AAFFF7B0FF03B05DF804FB0000DC
:100A300030B50F4CD4F8102403460020114631B9CC
:100A4000D96808714AB9C4F810340A6030BDC96861
:100A50000D79854206D00968F1E7D26814680C6008
:100A60001360F3E701300A28E8D14FF0FF30EDE7DB
:100A70004C01002038B5084B0125D3F810441D70F7
:100A800004B938BDE3685D71236820465B68984708
:100A9000E3681C68F4E700BF4C01002030B5C38850
:100AA00085B004460D4633B1144A00921449154AE4
:100AB000284600F009FA217A05291DD0637A4BB146
:100AC000A088FFF741FE104B104953F8202028461C
:100AD00000F0FAF9227A0E4BA08853F822200392F4
:100AE0000021FFF715FE039A0A490346284605B080
:100AF000BDE8304000F0E8B905B030BD2438000052
:100B00000C3800000438000090380000293800003C
:100B1000B43800002C38000007B503460846197A9F
:100B2000052911D05B7A2BB1094A0A49019000F0DE
:100B3000CBF901980849019000F0C6F9019803B07B
:100B40005DF804EB00F0B5B9002AF8D0F2E700BF79
:100B50002438000029380000213800002DE9F04336
:100B600085B01F460C9D002395F80C902B7306460C
:100B70000C46904629463846FFF790FFB8F1060F1D
:100B800009D8DFE808F00412181F28334000314666
:100B9000284600F099F9002229463846FFF7BCFFA5
:100BA00085F80C9005B0BDE8F083226831462846F0
:100BB00000F08AF9EFE7D4E900233146284600F037
:100BC00083F9E8E7A36800933146D4E90023284677
:100BD00000F07AF9DFE7E3680193A36800933146F8
:100BE000D4E90023284600F06FF9D4E72369029383
:100BF000E3680193A36800933146D4E900232846B3
:100C000000F062F9C7E76369039323690293E3681D
:100C10000193A36800933146D4E90023284600F0ED
:100C200053F9B8E708292DE9F74F80460E461746D5
:100C30001C463DD800251B7B257321461046019399
:100C4000FFF72CFFDFF88CA0DFF88CB0AE4232D972
:100C500018F805205946204600F036F90135082DD0
:100C6000F4D11B49DFF874A0DFF874B0204600F01F
:100C70002BF94FF000094E4524D918F809507E2D64
:100C80001ED8284601F064FD002814BF2A462E22F3
:100C90005946204600F018F909F10109B9F1080F89
:100CA000E9D1012221463846FFF736FF019B237325
:100CB00003B0BDE8F08F5146204600F005F9CDE7BE
:100CC0002E22E5E75146204600F0FEF8E4E700BF9B
:100CD000403800003C380000363800003E38000044
:100CE000423800001FB50021039001AA44F2010020
:100CF000CDE9011100F004F805B05DF804FB000037
:100D000038B572B6FFF7B6FEFFF73EFD0028FBD1FF
:100D1000104B114C114D1249E41AE408240444F01C
:100D20000100FFF777FED5F8F030DB0700D500BEF5
:100D30000C4944F00200FFF76DFEBFF34F8FEA68E5
:100D4000094B02F4E0621343EB60BFF34F8F00BF27
:100D5000FDE700BF603700007837000000ED00E0DD
:100D6000C8380000D43800000400FA0572B6024A00
:100D7000136801331360704704060020034A1368A8
:100D8000013B136003B962B6704700BF0406002040
:100D9000FFF7ECBFFFF7F2BF10B5034653E8000FB3
:100DA0000A4643E8002494F0000FF7D110BD10B5B7
:100DB000034653E8002F42EA010043E8000494F0A0
:100DC000000FF6D110BD10B5034653E8000F00EA3E
:100DD000010243E8002494F0000FF6D110BD10B5D5
:100DE000034653E8002F02EB010043E8000494F0AF
:100DF000000FF6D110BD10B5034653E8002FA2EB4B
:100E0000010043E8000494F0000FF6D110BD012169
:100E1000FFF7CDBF0021FFF7D6BF10B590B1D0E9E5
:100E2000012301689B1ADBB20A60013BDBB2FF2B96
:100E3000026802D10020107110BD11684C1C1460B2
:100E40000B70F2E70E20F7E738B504460020FFF7F5
:100E50009FFF226863681168994213D9481E106089
:100E600011F8013CE568218A01FB0355A36811795B
:100E70001B1ADBB2994200D213710020FFF78AFFE0
:100E8000284638BD0025F8E738B5054600200C4651
:100E9000FFF77EFF2A681368591C1160E968641A1D
:100EA000298AB4FBF1F41C70BDE838400020FFF73C
:100EB00071BF826810B504462AB1436901680069B0
:100EC00098470023A36010BD0EB403B5039921B168
:100ED00004AB01AA019300F077F802B05DF804EBCF
:100EE00003B070470A2938B504460D4602D10D21DA
:100EF000FFF7F8FFA3682268591CA160D554D4E914
:100F000001329A4204D32046BDE83840FFF7D1BFF2
:100F100038BD00002DE9F84F9846DDE90A43154633
:100F200082460F460A464FF00109AA420FD2C14538
:100F300038BFC14613F0010B01D16CB90024012662
:100F4000B8F1010F1BD908F1FF386E43F8E709F13A
:100F50000109B2FBF5F2E8E79B070ED5B8F1000FE7
:100F60000CBF30262026A145E9D2013C314650462F
:100F7000FFF7B8FF002CF6D1E0E72026F3E7B7FB38
:100F8000F6F39D42E1D9DFF83C80B7FBF6F350461B
:100F900018F8031006FB1377FFF7A4FF3346AB42A4
:100FA000B6FBF5F6F1D2BBF1000F02D00CB1A145B2
:100FB00001D3BDE8F88F20215046013CFFF792FF96
:100FC000F4E700BFE13800002DE9F74F054617466A
:100FD0008846002900F03E8118F8011B49B92B7B97
:100FE000002B00F03781284603B0BDE8F04FFFF733
:100FF00060BF252940F0B780002698F800302D2BDF
:10100000424608F1010823D0302B24D02B2B25D0C9
:1010100000242A2B02F1010123D13B681A1D1B6811
:101020003A601C440A4613782E2B26D101324FF029
:10103000000A104610F8011BA1F1300CBCF1090F99
:101040001DD80A2303FB0A13A3F1300A0246F0E776
:1010500046F00106D1E746F00206CEE746F0040668
:10106000CBE711F8013CA3F130000928DBD80A22B4
:1010700002FB0434303C0A46CBE74FF0000A12F87A
:10108000011B01F0FB0068289046F8D0782909D8A8
:101090006F290CD8632962D022D8252963D058291A
:1010A00000F0888098F80030002B95D197E77039D0
:1010B0000829F7D801A353F821F000BF2F12000030
:1010C000A5100000A5100000C5110000A51000002B
:1010D000A3110000A5100000A5100000B51100002C
:1010E000642901D06929DDD13A68D2F80090111D38
:1010F00089EAE9723960A2EBE9724FF0010B092A23
:1011000035DCD34538BFD3462CB1B9F1000F01DB34
:10111000720700D5013CB30702D5BAF1000F03D026
:10112000F00701D44CBB0024B9F1000F2DDAC9F14E
:1011300000092D212846FFF7D5FE06F00302022AFA
:1011400004D1BAF1000F01D11CBB0024CDE9004647
:1011500053460A2249462846FFF7DCFEA2E73B68D1
:101160001A1D19783A602846FFF7BCFE9AE70A2351
:101170000BF1010BB2FBF3F2C1E7A345D4D220215E
:101180002846013CFFF7AEFECCE77107D5D52B21F1
:10119000D0E7A345DAD230212846013CFFF7A2FE72
:1011A000D2E73968CDE900460A1D3A6053460A2263
:1011B0000968D0E739680A1D3A60CDE90046534610
:1011C0001022F5E73B681A1D3A6016F00106D3F8C5
:1011D000009024D1B9F1000F03D0484601F017FB6D
:1011E0000646B4421DD809F1FF3919F8011F00293C
:1011F0003FF458AF2846FFF775FEF6E7284601365C
:10120000FFF770FE19F806100029F7D1A642BFF4C7
:1012100049AF20212846013CFFF764FEF6E700268F
:10122000F0E720212846013CFFF75CFED9E73B6848
:101230001A1D3A60302128461C68FFF753FE7821BA
:101240002846FFF74FFE00220823CDE90032214651
:10125000102280E703B0BDE8F08F00BF2DE9F84F02
:10126000B0F806A04579D2F800B09DF828900AFBA6
:1012700005F5043D88460BEB0301A94203F1040484
:1012800088BFA5EB030BB4FBFAF607460AFB16442E
:10129000C2F800B04EB9AAEB04055D4528BF5D4613
:1012A000BBF1000F04D1BDE8F88F3F68013EF1E7C4
:1012B000043408EB06003C442A46B9F1000F0DD077
:1012C0002146ABEB050B01F079FADA452E443F6875
:1012D00055464FF0000428BF5D46E1E70146204631
:1012E000EFE7FFF79ABDF8B546790146721E05464D
:1012F000002393422D6803D30024A64202D8F8BDF0
:101300000133F6E70F682846FFF7BEFD0134394682
:10131000F3E72DE9F843068ACD1C0746FFF794FD55
:10132000043E35440446B5FBF6F5F0B14FF4807346
:10133000EDB28380C680013D076081464FF0000812
:10134000A84512D23846FFF77FFD064648B16379BB
:101350000133637108F10108C9F800000760814694
:10136000EEE72046FFF7BFFF34462046BDE8F8838E
:1013700001210430FFF733BD10B5012104460430CC
:10138000FFF739FDC0B220B92046BDE81040FFF795
:10139000AABF10BD1FB503920022009203AAFFF757
:1013A0005DFF05B05DF804FB1FB5039201220092BA
:1013B00003AAFFF753FF05B05DF804FB8368002222
:1013C0005A60C3E904229A60DA601A60704700002C
:1013D0001FB503788DF800304368019383688DF85A
:1013E0000830C368054A0393054B684653F821301B
:1013F00052F82110984705B05DF804FB080600205C
:101400000C0600201FB503788DF800304368019367
:1014100083688DF80830C368054A0393054B684616
:1014200053F8213052F82110984705B05DF804FBBD
:10143000080600200C060020F0B5194B90F800C0FB
:1014400091F81DE043F82C20164B16460A6943F824
:101450002C20154B03F80CE00C4607460FCC89B046
:101460006D460FC594E80F0085E80F00CDF810C059
:10147000BEF1000F09D0002E0C4A694608BF324663
:10148000381D00F041FB09B0F0BD002E084A694646
:1014900008BF324607F10C0000F018F9F3E700BF6F
:1014A0000C0600200806002010060020D1130000C2
:1014B00005140000014B1B68184700BF14060020EC
:1014C00038B50B4B98420C4601D0002038BD0020A7
:1014D000FFF75EFC074B1D7915B901221C601A71DC
:1014E0000020FFF757FC002DEFD01120EEE700BFE2
:1014F0000020004014060020034B984201BF034B1C
:1015000000221A601A717047002000401406002063
:101510000023435082B043580193019B02B07047AF
:101520000A4610B54FF48E71FFF7F2FF136A916807
:10153000C95C136A01331362C0F81C1510BD8B69B6
:101540000A4610B54FF4847123B9FFF7E1FFD0F8D4
:10155000183510BDFFF7DCFF536AD168D0F81805C5
:10156000C854536A01335362F3E700001FB50123E7
:101570008DF80030044BCDE90110D3E90012684624
:10158000904705B05DF804FB1C06002030B54D4DBA
:10159000D5F804339A0585B051D5D5F82431002B00
:1015A0004DD04FF492712846FFF7B2FF4FF401730C
:1015B000C5F80833444B93F829200AB901226A6020
:1015C000404902228DF80020D1F88024C1F88024FF
:1015D00003929A690292DA6801920022C3E9062214
:1015E0006846D3E9001290473648D0F81C315BB109
:1015F000354A5169136A99424DD992F82830002B27
:1016000049D11146FFF78CFF2E48D0F84431002B0A
:1016100056D04FF4A271FFF77BFF2B4B93F8292094
:101620000AB1012202609A69002A49D0586AD96831
:1016300000229A6105B0BDE83040FFF797BFD5F8AA
:1016400004335B07D0D5D5F80831002BCCD01E4C25
:101650001C482146FFF773FF636AA2699A42C3D10F
:10166000E369E1684BB1A3612369E3600023606A29
:10167000E3616362FFF77AFFB6E794F829300BB9AC
:1016800001236B600F4B4FF40172C3F80823002352
:10169000606AA361EEE70B484FF48E71FFF738FFE5
:1016A0005369002BB0D051690291002391688DF8E5
:1016B0000030019153616846D2E900139847A3E7CF
:1016C00005B030BD002000401C0600202DE9F84385
:1016D000534D90F804802C2303FB0853064693F8DF
:1016E0002A300C469146002B40F096804D49006808
:1016F000FFF7E6FE0746002840F090802268306839
:10170000511C0BD04FF0A04101239340C1F8083584
:1017100002F5E0734FF0030C41F823C061684B1CE5
:101720001FBF01F5E0734FF0A04C4FF0000E4CF8D6
:1017300023E0A369C0F8243594F814C0637DBCF19C
:10174000010F4CEA0303C0F86C35C0F81415C0F85B
:101750000C251DD1A268531C1FBF02F5E0734FF08A
:10176000A0414FF0000C41F823C0E368591C0BD096
:101770004FF0A04C01219940CCF8081503F5E07119
:101780004FF0030E4CF821E0C0F80835C0F81025E2
:101790002C2202FB08F2AB18C3F804902369AB506B
:1017A000B9F1000F20D04FF48E71247FFFF7B0FE07
:1017B0004FF4A2713068FFF7ABFE32681A4BC2F8E3
:1017C0000433130B42F307326101002AC9B21EDB56
:1017D0001648841884F800130121520903F01F03EE
:1017E00001FA03F340F8223033680422C3F80025DD
:1017F0002C2303FB08530022C3E9062283F8292087
:101800005A61012283F82A203846BDE8F883084A45
:1018100003F00F03D154E7E70827F5E71127F3E7B3
:101820001C0600208D1500008000020000E100E091
:1018300014ED00E0F8B503680579304C0022C3F8D8
:1018400000252C2202FB05425268A2B12C4AC3F8A3
:1018500008231A0B43F30733002B0CDB02F01F01A4
:101860005B0901228A402033264941F82320BFF337
:101870004F8FBFF36F8F0068D0F80C65D0F8141548
:10188000D0F80835D0F810254FF0FF37BE42C0F829
:10189000147518BF06F5E076C0F80C75C0F8087529
:1018A000C0F810751EBF4FF0A0474FF0020C47F86C
:1018B00026C04E1C1FBF4FF0A04601F5E071022765
:1018C00046F82170511C1FBF4FF0A04102F5E07295
:1018D000022641F822605A1C1FBF03F5E0734FF047
:1018E000A042022142F82310FFF706FE2C2303FB3F
:1018F0000544002384F82A306360F8BD1C060020EC
:101900008402020000E100E00279044B2C2101FB7B
:1019100002335869003818BF012070471C060020A8
:101920002DE9F84F064690F8048089469246FFF765
:10193000EBFF044600283CD1204F2C2508FB057BFB
:101940004FF48E71CBF814A0CBF80890CBF82000A0
:101950008BF828003068FFF7DBFD306801238360D7
:101960005946FFF7DDFDDBF804305D461BBB3068F0
:10197000DBF814402B6A9C4211D83368D3F81C2141
:10198000002AFBD00122DA6000202C2303FB087719
:1019900000237B61BDE8F88F95F828303BB9D0F87B
:1019A0001C31002BF8D05946FFF7BAFDE2E70F20B3
:1019B000EBE71120EEE72046ECE700BF1C06002015
:1019C0000023435082B043580193019B02B07047FB
:1019D0001FB501238DF80030044BCDE90110D3E988
:1019E00000126846904705B05DF804FB48060020E9
:1019F0007FB5434AD2F82461002E60D010464FF4E0
:101A00009271FFF7DDFF02238DF80030D2F88034A9
:101A1000C2F880340393D2F83C350293394BDA682C
:101A200001920022C3E906226846D3E900129047DA
:101A30003348D0F8443173B14FF4A271FFF7C0FFBF
:101A4000304B9A693AB10022C3E90622D968D0F82E
:101A50003C05FFF7BDFF2A48D0F82031ABB14FF469
:101A60009071FFF7ADFF0123C360264B5A6962B145
:101A7000D0F84C150291002299688DF80020019150
:101A80005A616846D3E9001290471D48D0F8583192
:101A90009BB14FF4AC71FFF793FF1A4B5A6962B1D7
:101AA000D0F84C150291002299688DF80020019120
:101AB0005A616846D3E90012904704B070BDD2F86D
:101AC0001031002BB4D04FF488711046FFF778FF27
:101AD0000C4BD2F83C0599698842A9D1DC69D968D8
:101AE00064B1D2F8005225F02005C2F800521A69FC
:101AF0009C61DA60DE61FFF76BFF99E79C61FAE7B2
:101B000000200040480600202DE9F8435A4E90F886
:101B10000480242303FB0863044693F820300D4619
:101B20009146002B40F0A38054490068FFF7C8FCA1
:101B30000746002840F09D802A682068511C0BD081
:101B40004FF0A04101239340C1F8083502F5E0733E
:101B50004FF0030C41F823C069684B1C1FBF01F50F
:101B6000E0734FF0A04C4FF0000E4CF823E0AB694F
:101B7000C0F8243595F814C06B7DBCF1010F4CEA18
:101B80000303C0F86C35C0F80C25C0F814151DD13E
:101B9000AA68531C1FBF02F5E0734FF0A0414FF03D
:101BA000000C41F823C0EB68591C0BD04FF0A04C3F
:101BB00001219940CCF8081503F5E0714FF0030EB0
:101BC0004CF821E0C0F80835C0F81025242202FBAB
:101BD00008F2B318C3F804902B69B350B9F1000FA1
:101BE0002FD04FF488712A7FFFF7EAFE20684FF468
:101BF0009071FFF7E5FE20684FF49271FFF7E0FE69
:101C000020684FF4A271FFF7DBFE4FF4AC7120683F
:101C1000FFF7D6FE23681A49C3F80413190B43F3E0
:101C200007335201002BD2B21CDB1648C51885F8C9
:101C3000002301225B0901F01F0102FA01F140F8C3
:101C4000231023680822C3F80025242303FB086619
:101C50000023C6E906337361012386F82030384635
:101C6000BDE8F883084B01F00F015A54E9E7082753
:101C7000F5E71127F3E700BF48060020F11900003F
:101C80001003420000E100E014ED00E0F8B5444C20
:101C90000579242303FB054302465B680068ABB16A
:101CA000404BC0F8083340F30733002B4FEA1031A4
:101CB0000CDB01F01F065B090121B14020333A4ED5
:101CC00046F82310BFF34F8FBFF36F8FD0F8003269
:101CD00023F02003C0F80032242303FB05439B6953
:101CE0002BB14FF4A271FFF76BFE012343604FF459
:101CF000AC71FFF765FE0123C360242303FB05439A
:101D0000D0F858110029FBD0996919B1D0F84411C5
:101D10000029F5D00023C0F800351368D3F80C75FE
:101D2000D3F81465D3F80825D3F810154FF0FF3C0D
:101D30006745C3F80CC518BF07F5E077C3F814C5AD
:101D4000C3F808C5C3F810C51EBF4FF0A0434FF03D
:101D5000020C43F827C0771C1FBF4FF0A04306F5C5
:101D6000E076022743F826704E1C1FBF01F5E07194
:101D70004FF0A043022643F82160531C1FBF4FF0D1
:101D8000A04302F5E072022143F82210FFF7B4FBF2
:101D9000242303FB0544002384F820306360F8BD4E
:101DA000480600201003420000E100E00279044BE5
:101DB000242101FB02335869003818BF0120704705
:101DC0004806002001F06043B3F1005F2DE9F047C1
:101DD0000646884692463BD190F80490FFF7E6FF0E
:101DE0000446002836D11D4F3068242505FB0975AF
:101DF0004FF49071C5F814A0C5F80880FFF7E0FD16
:101E00004FF4AC713068FFF7DBFD33686A69A9688D
:101E1000C3F84415C3F8482501229A606A68DAB904
:101E2000D3F82021D3F858011AB90028F8D00F2090
:101E300007E00028FBD10122DA60D3F85821002AFC
:101E4000FBD0242303FB097700237B61BDE8F087E7
:101E50001020FBE71120F9E72046F7E748060020AD
:101E60002DE9F04F3D4B3E4C3E4FDFF81C912DEDE0
:101E7000028BE41AE4082404B5B044F003040526F8
:101E80004FF0000847F00107374BC9F8008083F88E
:101E900000801A78002AFCD00020344D83464FF091
:101EA000FF3A012140F2E93355F82120524538BF6D
:101EB00055F821A055F821205A4588BF55F821B082
:101EC00055F82120013199421044EDD107EE900AD6
:101ED0009FED277ADFED276AF8EE677A4FF44875B1
:101EE00087EE878AC8EE267AC7EE278A9FED227A88
:101EF000FFEE007AE8EE877A9FED207A67EE877A28
:101F000017EE900A00F094FACDE9040118EE900A59
:101F100000F08EFACDE9020118EE100A00F088FAFE
:101F20005B46CDE900015246154907A800F020FCA8
:101F3000144907AA2046FEF771FD4FF47A40B847CE
:101F4000013DFAD1FEF720FC0028FBD1013E9BD1D8
:101F500035B0BDEC028BBDE8F08F00BF60370000EC
:101F600078370000E03900001C00002070060020D7
:101F700000007A4400007A460000003800247449CA
:101F80000039000029380000141600200021F8B59F
:101F90000846FEF7A9FB08B1FEF7A4FEFEF7E8FA33
:101FA000434C44484449241AE408240444F00304FC
:101FB0002046FEF72FFD4FF0804540492046FEF7B2
:101FC00029FD01230022EB60C5F81825C5F804217E
:101FD000AB60D5F80431002BFBD039492046FEF721
:101FE00019FD384A00235360C5F8003101232B60E6
:101FF0004FF08046D6F80031002BFBD02046324906
:10200000FEF708FD314A324900270323C2F8107554
:10201000C2F808352F4B0125C3F81015A1F543511F
:10202000C3F81415C3F804552B49A3F5A033E020D9
:10203000C3F84453C3F80453C3F8087581F80B037D
:102040004FF40060086015609D601D60FFF708FF99
:10205000C6F80C7135614FF08045D5F80C31002B76
:10206000FBD01E492046FEF7D5FCFFF7F9FE1C49C0
:102070002046FEF7CFFC01230022EB60C5F818359F
:10208000C5F80421AB604FF08042D2F80431002B38
:10209000FBD014492046FEF7BDFCFFF7E1FE1249D4
:1020A0002046FEF7B7FCFEF76FFB0028FBD1FEE7EA
:1020B0007837000060370000223800003E39000009
:1020C0006039000000B0004071390000008000401D
:1020D00000B1004000F0014000E100E08B39000059
:1020E0009D390000C5390000CA3900000F4BD3F8F4
:1020F000002170B5CAB10E490022C3F800210B7847
:102100009BB90C4B0C48D3F840450C4B02681D683A
:102110006E1C1E600A4EA21A46F8252004601B6839
:10212000B3F57A7F84BF01230B7070BD00B000400F
:102130001C000020008000406C06002014160020C7
:10214000700600204FF08053D3F83001421C04BFCA
:102150004FF0704393F8E00F831F58425841704787
:102160004FF0704393F8E02F062A09D1D3F8E83FE7
:10217000C3F30313033B042B02D8024AD05C70471D
:1021800000207047F5390000024AD2F80034002BD5
:10219000FBD0704700E0014010B5FFF7D3FF40B11E
:1021A0004FF08053944AD3F82433C3F30423C2F886
:1021B0004035FFF7D5FF10B1904B914A5A67FFF7B2
:1021C000C1FF48B14FF080534FF08042D3F8443202
:1021D000C3F34233C2F83C35FFF7C2FF30B1894A3E
:1021E000D2F8FC3023F08073C2F8FC30FFF7AAFF6E
:1021F00040B14FF080430022C3F80C21C3F81021F6
:10220000C3F83825FFF7ACFF20B14FF0804303221D
:10221000C3F8A025FFF7A4FF60B17B4B0522C3F8EC
:1022200010260122C3F888260022C3F818263F2270
:10223000C3F814264FF08053D3F83021511C09BF46
:102240004FF07043D3F8343193F8E02FD3F8E83FE0
:1022500008BFC3F30313062A4DD1033B042B03D855
:102260006A4AD35C002B46D04FF08052684BD2F8BC
:102270000414C3F82015D2F80814C3F82415D2F8B2
:102280000C14C3F82815D2F81014C3F82C15D2F882
:102290001414C3F83015D2F81814C3F83415D2F852
:1022A0001C14C3F84015D2F82014C3F84415D2F812
:1022B0002414C3F84815D2F82814C3F84C15D2F8E2
:1022C0002C14C3F85015D2F83014C3F85415D2F8B2
:1022D0003414C3F86015D2F83814C3F86415D2F872
:1022E0003C14C3F86815D2F84014C3F86C15D2F842
:1022F0004424C3F87025FFF725FF48B14FF0805301
:102300004FF08042D3F8583203F04F03C2F8E43E56
:10231000FFF718FF48B14FF08043D3F80024D207ED
:1023200044BF6FF00102C3F800244FF08053D3F88C
:102330003021062A0ED1D3F83431033B042B02D8C6
:10234000344AD35C33B1344AD2F83C3743F4806327
:10235000C2F83C372B4AD2F8883043F47003C2F8F5
:102360008830BFF34F8FBFF36F8F4FF08053D3F898
:102370003021062A0FD1D3F83431033B042B02D885
:10238000264AD35C3BB14FF01023D3F808224FF01C
:102390008043C3F858254FF01023D3F80022002AB9
:1023A00003DBD3F80432002B22DA1D4901234FF05E
:1023B0001020C1F804351524FFF7E6FEC0F80042EE
:1023C000FFF7E2FEC0F80442FFF7DEFE0023C1F88B
:1023D0000435FFF7D9FEBFF34F8F0A49114BCA6886
:1023E00002F4E0621343CB60BFF34F8F00BFFDE701
:1023F0000D4B0E4A1A6010BD0030014000C007406E
:102400000DF0ADBA00ED00E000500040E6390000EC
:1024100000C00040EB39000000100040F03900001F
:1024200000E001400400FA05200000200090D003E5
:10243000C0F3C75191B142004FEA40704FEAD20158
:102440004FEA310101F16051B2F17F4F38BF70475F
:1024500001F1605118BF41F40021704710F00041B4
:102460000020704701F000428B1AA3F16051B1F5D2
:10247000801F0ADBB1F17F6F09D242EAC102C100BD
:1024800071F1004142EB50707047104670470128CF
:102490005B4113F5001F04D842F0FE4040F40000F9
:1024A0007047C90041EA507040EA020040F48000E1
:1024B00040F08040704700BF10EE100A4FEA400025
:1024C000B0F17F4F0CBF01200020704710EE100AC2
:1024D00041000020B1F17F4F18BF50EB0000704762
:1024E00010EE100A00F00040704700BFB0EEC00AC6
:1024F000704700BF00B510EE100A00F003F800EEC0
:10250000100A00BD4FF07F43B3EB400F22D94100CA
:1025100008BF704703EA4002120E7F3A14DB172A05
:10252000A8BF70474FF6FF73C0F27F03D340184235
:1025300020EA030018BF10F0004F08BF70474FF4A7
:102540000001D1404018704710F0004F0CBF002030
:102550000248704718BF024870470000000080BF63
:102560000000C07F00B5014610EE100A00F003F82D
:1025700000EE100A00BD4FF07F43B3EB400F98BF51
:10258000704713EA400207D0120E7E3A0A6020EA32
:10259000530040F07C5070470A6000F000407047E4
:1025A00000B5014610EE100A00F003F800EE100A24
:1025B00000BD4FF07F43B3EB400F98BF704713EA65
:1025C000400204BF00F00040704711EB1262DCBF14
:1025D00000F000407047FF2A3CBF00EBC15070473D
:1025E00040004FEA330070477F2805D8034B185C42
:1025F000034B5B5C1840704700207047083A0000AE
:10260000883A0000A0F16103192B98BF2038704769
:10261000A0F14103192B98BF203070477F2805D8BF
:10262000034B185C034B5B5C1840704700207047FD
:10263000083A0000883A0000A0F16103192B98BF06
:1026400020387047A0F14103192B98BF2030704704
:102650007F299ABF017001206FF02E0070475AB198
:102660000A787F2A0AD800B10260002119605960F7
:10267000501A18BF01207047002070476FF02E00DD
:1026800070470000002816DB002817DD0022B7EE97
:10269000000A0C4B10F0010F1CBFD3ED007A20EEA6
:1026A000270A401004330028F4DC4AB1F7EE007A20
:1026B00087EE800A704740420122E8E7B7EE000A41
:1026C000704700BF603C000010B504460846A26891
:1026D0004AB12368616803F1010C8C4508BF0020F2
:1026E0008B4208D2D054E3682BB1216862689142D2
:1026F00001D22146984723680133236010BD70B58D
:102700004C1E09D41646C5B229463046FFF7DCFFF9
:10271000013CB4F1FF3FF7D170BD10F0100F08D1AC
:1027200008B510F4007F14BF30202020FFF7E7FF2A
:1027300008BD70470028B8BF4042704708B5034B3A
:102740005B689B681B68984708BD00BF2400002099
:1027500008B50921FFF7F2FF08BD000000B5FDF73D
:1027600037FE024B18445DF804FB00BF0800000070
:102770000EB400B586B007AA52F8041B0592039068
:10278000002304936FF00043029301A800F070F857
:1027900006B05DF804EB03B07047037853B159B14C
:1027A0000144034613F8012F12B18B42FAD10B46B4
:1027B000181A70470346FBE70346F9E7844640EAE8
:1027C000010313F0030F18D18446202A0BD32DE9FF
:1027D000F007B1E8F807A0E8F807A2F12002202AE4
:1027E000F7D2BDE8F007042A07D351F8043B40F8BC
:1027F000043BA2F10402042AF7D2002A05D011F802
:10280000013B00F8013B013AF9D16046704700F105
:10281000010110F0030F11D010F8012B002A23D072
:1028200010F0030F0AD010F8012B002A1CD010F072
:10283000030F03D010F8012B002A15D02DE97000EA
:102840004FF001324FF0803350F8044BA4EB0205F7
:1028500025EA04051D4000D1F6E7A0F1040070BC94
:1028600010F8012B002AFBD1A0EB010070470000FB
:102870002DE9F04F2DED048B8BB08346059200239C
:1028800003600D4615F8011B002900F09986DFED65
:10289000988A4E4600F086BE4FF0000807E05E289A
:1028A00066D148F4805801E048F040081D462B46A8
:1028B00013F8010B3028F2D81F2838D9A0F12002D4
:1028C000102A34D801A151F822F000BFA928000035
:1028D0002F2900002F290000112900002F290000B6
:1028E0002F2900002F290000172900002F290000A0
:1028F0002F2900002F2900001D2900002F2900008A
:10290000232900002F2900002F2900002929000079
:1029100048F08008CAE748F40048C7E748F02008B4
:10292000C4E748F01008C1E748F40078BEE72A2859
:102930001ED1059A111D05911768002FBCBF7F425B
:1029400048F010081878AB1C27EAE7772E2824D027
:102950000025742845D07A2843D06C2800F0C28026
:102960004C2800F0C780682800F0D58003933BE036
:10297000A0F13002D2B2092A88BF0027E4D800278C
:1029800007EB8707303800EB470713F8010BA0F17E
:102990003002D2B2092AF3D9D6E718782A280AD108
:1029A000059A111D0591156858780233002DD0DB6A
:1029B00048F48078CDE70133A0F13002D2B2092A81
:1029C00088BF0025F4D8002505EB8505303800EBDD
:1029D000450513F8010BA0F13002D2B2092AF3D950
:1029E000E4E713F8010B0393782800F28680DFE810
:1029F00010F0F905840084008400840084008400C1
:102A000084008400840084008400840084008400A6
:102A10008400840084008400840084008400840096
:102A20008400840084008400840084008400840086
:102A3000840084008400840084008400A00084005A
:102A40008400840084008400840084008400840066
:102A50008400840084008400840084008400840056
:102A60008400840084008400840084008400840046
:102A7000840084008400840084008400BE01DB01A3
:102A8000E0018400840084008400840084008400C9
:102A90008400840084008400840084008400840016
:102AA0008400190184008400840084008400840070
:102AB0008400840084008400A6004E01C001DD0172
:102AC000E20184004E018400840084008400B6008A
:102AD0003C01000184008400CB0084004701840095
:102AE00084001B0113F8010B039348F001087BE7F6
:102AF0000000C84248F001080393B04B1C68002C4A
:102B000000F04C8505AB019300953B464246594683
:102B1000A04700F043BD1878682804D00133039320
:102B200048F0040860E748F008089A1C03925878B7
:102B30005AE725215846FFF7C7FD00F02FBD059B3A
:102B40001A1D05921C78013F5A4639464046FFF748
:102B5000E4FD21465846FFF7B7FDC14639E018F0BD
:102B6000080F08D0DBF80020059B191D05911B6894
:102B70001A7000F013BD059B1A1D05921B68DBF847
:102B800000201A6000F00ABD059B1A1D05921B6803
:102B90008B4C002B18BF1C4628F4007918F4807F5A
:102BA00022D029462046FFF7F8FD05467F1B5A46EE
:102BB00039464846FFF7B1FD6E1E55B126462C44F6
:102BC00016F8011B5846FFF77FFDB442F8D14FF0CD
:102BD000FF3619F0100F00F0E1845A4639462020E4
:102BE000FFF78DFD00F0DABC2046FFF710FE05462A
:102BF000DCE7059B1A1D05921B6818F0800F0CBFBF
:102C00000026232648F4807808251A46002B00F079
:102C1000A58406AB002408F40050DFF8A8C1AE4636
:102C200000F05FBC48F4005818F0800F1BD043F24E
:102C3000780643F25803782818BF1E4618F4807FA0
:102C400001D028F4007818F4804F32D0059B1A1D6B
:102C500005921B6818F0040F1FD01BB2002B20DA5E
:102C60005B422D262DE00026E8E718F0800F0CBF10
:102C70000026302618F4807FE5D028F40078E2E7BB
:102C800018F4807F07D028F400780026DBE748F4AA
:102C900080480026D7E70026D5E718F0080FDDD0DA
:102CA000DBB218F0200F60D118F0400F18BF2026BB
:102CB00007E0059B1A1D05921B6818F0040F4FD002
:102CC0009BB218F4807F00F0E18328F40078583834
:102CD000202800F2308401A252F820F00B2C0000D2
:102CE0003735000037350000373500003735000034
:102CF0003735000037350000373500003735000024
:102D0000373500003735000037350000B334000098
:102D10003735000037350000373500003735000003
:102D2000B334000037350000373500003735000078
:102D30003735000037350000913400000B2C0000BF
:102D400037350000373500003735000037350000D3
:102D5000B334000037350000373500000B2C00007D
:102D600018F0080FADD0DBB2ABE72B26A9E748F48B
:102D7000005848F48068059B073323F0070303F1EC
:102D800008020592D3E90001FFF76CFB08EE100A78
:102D900018F4807F18D0C5B908F44065B5F5406FC8
:102DA00014BF0025012510E048F4005848F40068DD
:102DB000E1E748F4005848F44068DCE718160020C2
:102DC000783C00004C3C00000625B0EE480AFFF7B6
:102DD00073FB002840F0BC80B0EE480AFFF776FB9A
:102DE0008246002840F0CD80B0EE480AFFF778FB1D
:102DF000002840F0CF8018EE103A08EE103A09A8EB
:102E000000EE103AFFF7AEFB099B03EB43039B4A2E
:102E100082FB0312DB17C3EBA2030993B5EE408AD2
:102E2000F1EE10FA40F0C08008F44064B4F5806F11
:102E30000AD0B4F5406F40F0E581099BAB4203DA5C
:102E400013F1040F80F2DE8109984042FFF71AFC6B
:102E500028EE008A8DED048AB5EE408AF1EE10FA74
:102E600036D0B0EE480AFFF727FB002840F0B280CA
:102E7000F2EE047AB4EEE78AF1EE10FA0FDB099B6A
:102E80000133F2EE047A1A4688EE278A0133B4EE53
:102E9000E78AF1EE10FAF6DA8DED048A0992DDED9B
:102EA000047AB7EE007AF4EEC77AF1EE10FA0FD595
:102EB000099B013BF2EE046A1A4667EEA67A013BD3
:102EC000F4EEC77AF1EE10FAF6D4CDED047A099259
:102ED00025B1B4F5406F08BF05F1FF356842FFF733
:102EE000D1FBF6EE007A60EE277A9DED047A77EE5C
:102EF000877AB2EE047AF4EEC77AF1EE10FA80F235
:102F00008280B0EE678A002D00F0928008F408639A
:102F1000B3F5006F7FD028F400696B1DFF1A013FE5
:102F200018F4805F00F06B81099A554B83FB021304
:102F3000A3EBE27303EB4303D31A0233042B00F237
:102F40005C81DFE813F0AD0052019700AD00520143
:102F5000B5EEC08AF1EE10FA0CD418F4005F494CBB
:102F6000494B08BF1C4618F0200F08BF013428F455
:102F7000807811E618F4005F444C454B08BF1C46AE
:102F8000F5E718F4005F434C434B08BF1C4628F498
:102F9000807801E648F06008F1EE487A17EE903A42
:102FA0002BE7099B0133099309980130FFF76AFB6E
:102FB000B4EEC08AF1EE10FAF3DC02E0099B013BAB
:102FC00009930998FFF75EFBB4EEC08AF1EE10FAA0
:102FD000F4D429E7B5EEC08AF1EE10FA0CD418F457
:102FE000005F284C284B08BF1C4618F0200F08BF74
:102FF000013428F48078CFE518F4005F234C244B8B
:1030000008BF1C46F5E7099B01330993B2EE047A29
:1030100087EE878A77E7092DA8BF09252846FFF79D
:1030200031FB60EE087AFCEEE77A17EE903A43B98E
:1030300028F40069053F18F080053FF471AF55464C
:103040006DE7164AA2FB0312D20802EB8202B3EB31
:10305000420F7FF460AF1149A1FB0323DB08013D60
:10306000E6D0A1FB0302D20802EB8202B3EB420FCF
:10307000F2D050E74FF0010A1BE000BF67666666BA
:1030800056555555903C0000983C0000803C00008F
:10309000883C0000A03C0000A43C0000CDCCCCCC7F
:1030A000F2EE047A27EE888A013A0992013F4FF046
:1030B000020A25EAE57518F0600F18BF07F1FF371F
:1030C0000998FFF737FB6328C8BF07F1FF37F0EE19
:1030D000487ABCEEC87A17EE104AB8EE478A37EE47
:1030E000C88A27EAE77619F4047F00F0248119F0F2
:1030F000200F00F02C8119F0400F14BF2D212B213F
:103100005846FFF7E1FA19F0100F00F029810AF193
:103110000053013BC44A02EBC30800272B46554627
:103120009A46013DD8F80030D8F80420A8F10808E4
:103130009C4277EB0201C0F01F8130210131C9B2FE
:10314000E41A9C4277EB0200F8D25846FFF7BCFA2B
:10315000002DE6D1554619F4006440F00F81002D92
:1031600040F01B8119F0800F40F03F8219F4806F0E
:103170002FD019F4005F14BF452165215846FFF791
:10318000A3FA099B002BC0F263812B215846FFF75D
:103190009BFA0999632900F363810999A34C84FB85
:1031A0000132C917C1EBA2013031C9B25846FFF74D
:1031B0008BFA099B84FB0324D917C1EBA40101EB13
:1031C0008101A3EB410303F13001C9B25846FFF777
:1031D0007BFA002E00F0E2812024013E2146584671
:1031E000FFF772FA002EF8D1D8E128EE888A023A69
:1031F0000992023F4FF0030A5BE7B24659E74FF0EE
:10320000010A58E718F4806F29D0099B0E2B25DCA2
:103210000133EC1A092CA8BF092418F0800F01D043
:1032200025461CE0AB426AD0F6EE009AB2EE049A54
:103230002046FFF727FA28EE000A30EE290AFFF7AA
:1032400059F9F0EE490A00F00DFAB5EE400AF1EE38
:1032500010FA56D1013CEBD1254600E0554628F442
:103260008069099B6842A3F108028242C8BFA3F1AA
:103270000900FFF707FA4FF0FF30FFF791F938EE3A
:10328000008AB0EE489A09980130FFF7FBF9B4EED6
:10329000C08AF1EE10FA02DB099B01330993099809
:1032A000002840DB09282EDCFCEEC97A17EE904A94
:1032B000B8EE678A39EE488A002309930020264633
:1032C000092C35D95A4B4FF0010A0AF1010A53F87B
:1032D000081F5A688E4270EB0202F6D205EB0A0311
:1032E000099A1344FF1A08F080032B4318BF07F113
:1032F000FF3718F0600F18BF07F1FF37F1E62546DA
:10330000ADE72546ABE7A0F109030993C0F1090039
:10331000FFF7B8F929EE009AFCEEC97A17EE904A49
:1033200008EE10AACAE7002409944FF0010AD5E775
:103330004FF0010AD2E7002F7FF7D9AE2027013ED8
:1033400039465846FFF7C0F9002EF8D1CFE619F0FC
:10335000400F3FF4D8AE20215846FFF7B5F9D2E62A
:10336000002E3FF4D4AE3027013E39465846FFF7D1
:10337000ABF9002EF8D1CAE63021E6E6099B002B16
:103380007FF7EDAE3027013B099339465846FFF7EA
:103390009BF9099B002BF6DCE1E62E215846FFF74E
:1033A00093F92F46092DA8BF092727EAE777ED1BD8
:1033B000ACB10998381AFFF765F920EE088AFCEEDF
:1033C000C87A17EE904ABFB3DFF85CA007F1005748
:1033D000013F0AEBC7080027CDF8109015E03846EA
:1033E000FFF750F920EE088AFCEEC87A17EE904AF3
:1033F000E9E70131C9B2E41A9C4277EB0200F8D246
:103400005846FFF761F9D14514D0D8F80030D8F804
:103410000420C146A8F108089C4277EB020101D3C1
:103420003021E6E73021EBE7A83C000067666666DE
:10343000B03C0000DDF81090002D3FF497AE302432
:10344000013D21465846FFF73FF9002DF8D18DE6A2
:103450002D215846FFF738F9099B5B42099398E6FE
:10346000664C84FB0132C917C1EB62113031C9B21D
:103470005846FFF729F9099B84FB0321DA17C2EBB1
:103480006112642101FB1233099386E601251EE4D3
:103490001A460024002B4FD006A9002403F007038E
:1034A000303301F8013B0134D2081346002AF5D12C
:1034B00042E019460024002B3ED0002408F4004EC0
:1034C0004FF02C09DFF83CC17346AE461D4623E0A1
:1034D00002F00F014A4D695C03F8011B0134120927
:1034E00006D00028F4D002F00F011CF80110F3E719
:1034F000754621E004F128030DEB0300ACFB01321B
:10350000D20802EB8203A1EB4303303300F8103CF6
:10351000013409290DD91146002DEBD004F0030325
:10352000032BE7D104F128036B4403F8109C01340A
:10353000E0E7754600E000242D1B25EAE5757F1BBA
:103540003F1BFF2E0CD9023FC6F307215846FFF759
:10355000BBF8F1B25846FFF7B7F803E00024EBE7F9
:10356000002E48D15A4639464046FFF7D6F85A460B
:1035700029463020FFF7C3F8661E0CD406AE013C86
:10358000344421785846FFF79FF8A64204F1FF34EF
:10359000F7D14FF0FF3618F0100F0BD1039D15F83F
:1035A000011B69B125293FF477A95846FFF78CF82C
:1035B0000395F3E75A4639462020FFF7A0F8EDE7D8
:1035C000DBF808303BB1DBF80020DBF804108A425E
:1035D0003CBF00219954DBF800000BB0BDEC048B1C
:1035E000BDE8F08F4FF0FF30F7E72E215846FFF788
:1035F0006BF82F46DBE6013FABE700BF1F85EB51C1
:103600003C3C0000CDCCCCCC9FED147AB4EE470A04
:10361000F1EE10FAF0EE407A12D010EE102AC2F35A
:10362000C7537F3B11D4162B12DC0D4921FA03F34B
:1036300022EA030207EE102A026030EE470A7047C2
:10364000B0EE470A80ED007A704780ED007A70474F
:10365000B0EE470AC0ED007A704700BF00000000DE
:10366000FFFF7F0000B52DED028BF5EE400AF1EE75
:1036700010FA83B04BD0B0EE608AF0EE408AFEF7CD
:1036800025FF30B1B0EE680A03B0BDEC028B5DF8E7
:1036900004FBB0EE480AFEF719FF002843D1F5EE0F
:1036A000408AF1EE10FAEDD0B0EE680AFEF704FFA2
:1036B00000283FD1B0EE480AFEF7FEFE0028E1D117
:1036C000B0EE480AFEF712FFB0EE408A88EE880A94
:1036D00001A8FFF799FFDDED017AF5EEC08AB0EEA3
:1036E000680AF1EE10FAA8EE670AB1EE487A24DD16
:1036F000B4EEC08AF1EE10FA98BF30EE480AB5EE8B
:10370000C00AF1EE10FABFD530EE080ABCE7FFF7A9
:1037100025F8114B9FED110A1B68036003B0BDEC47
:10372000028B5DF804FBB0EE480A03B0BDEC028BDF
:103730005DF804FB9FED090AA6E7B4EEC70AF1EEB7
:1037400010FA98BF30EE080AB5EEC00AF1EE10FA92
:103750009ADD30EE480A97E75C3C00000000C07F2D
:10376000F138000000000000F53800000000000003
:10377000FA38000000000000F237000000000303E8
:10378000C437000000000000D03700001400002003
:103790007C000020440100204C0100208400002017
:0437A000180000000D
:1037A400FFFFFFFFFFFFFFFFFFFFFFFFFFFFFFFF25
:1037B40000000000000000000000D6010601000027
:1037C4009D040000410500009B04000075617274B3
:1037D4005F6C6F675F6261636B656E640042616317
:1037E4006B656E647320666C7573686564006170E4
:1037F400700000006C0500207F000000EC05002034
:103804001B5B313B33316D0025734C6F6773206450
:10381400726F70706564202825642925730D0A0071
:103824001B5B306D002573003C25733E2025733AE5
:103834002000202530327800202020007C002563E1
:10384400001B5B313B33306D001B5B313B33326D0E
:10385400001B5B313B33336D001B5B313B33346DF9
:10386400001B5B313B33356D001B5B313B33366DE5
:10387400001B5B313B33376D007761726E696E6795
:1038840000696E666F006465627567002438000025
:1038940045380000043800004D3800005538000059
:1038A4005D380000653800006D3800007538000090
:1038B40000000000CE3800007D380000853800008C
:1038C4008A380000466174616C206572726F720000
:1038D40053797374656D2072657365740030313289
:1038E40033343536373839414243444546505253D0
:1038F4000055415254005541525445005265737568
:103904006C74733A204D696E2F4D61783A202569A5
:103914002F25692C204176673A20252E32662C20EB
:10392400467265713A20252E31662C204465765FF7
:1039340070706D3A20252E31660052432061636316
:1039440075726163792074657374206578616D7034
:103954006C6520737461727465640A004C4620635C
:103964006C6F636B2073746172746564004C4620E1
:10397400636C6F636B207374617274656420285286
:1039840043206F736329005243206F736320636184
:103994006C69627261746564004368616E67696E24
:1039A4006720746F2065787465726E616C20524371
:1039B40020636C6F636B20736F757263652E2E2E9C
:1039C40000446F6E6500546573747320646F6E6594
:1039D4000000000000000000000000000338FDD8D3
:1039E4007047000001010100000001010000000017
:1039F400010100000000000043000000504F534943
:103A04005800000020202020202020202068282882
:103A14002828202020202020202020202020202092
:103A2400202020204810101010101010101010101A
:103A340010101010848484848484848484841010FA
:103A44001010101010818181818181010101010117
:103A54000101010101010101010101010101011043
:103A640010101010108282828282820202020202EC
:103A74000202020202020202020202020202021014
:103A840010101020000703200417020108571040EB
:103A940080000000FC390000003B0000143C0000E2
:103AA40053756E004D6F6E00547565005765640064
:103AB4005468750046726900536174000000000088
:103AC4004A616E00466562004D6172004170720089
:103AD4004D6179004A756E004A756C004175670046
:103AE400536570004F6374004E6F76004465630045
:103AF40000000000414D00504D000000383C000023
:103B0400343C0000343C0000343C0000343C0000F1
:103B1400343C0000343C0000343C0000343C0000E1
:103B2400343C0000FFFFFFFFFFFFFFFFFFFFFFFF2D
:103B3400FFFF0000743B0000A43A0000B03B00000B
:103B4400C43A0000F83A0000583B0000083C00006A
:103B5400643B0000256D2F25642F257900000000AB
:103B64002561202562202565202554202559000043
:103B740053756E646179004D6F6E6461790054759C
:103B84006573646179005765646E65736461790077
:103B9400546875727364617900467269646179006E
:103BA4005361747572646179000000004A616E7536
:103BB400617279004665627275617279004D617255
:103BC400636800417072696C004D6179004A756EDA
:103BD40065004A756C7900417567757374005365A7
:103BE4007074656D626572004F63746F6265720014
:103BF4004E6F76656D62657200446563656D6265DE
:103C04007200000025483A254D3A25530000000073
:103C1400E925000005260000112600001D260000ED
:103C24003926000045260000512600005F260000CA
:103C3400000000002E0000003031323334353637B6
:103C4400383961626364656630313233343536370E
:103C540038394142434445462100000000002041D8
:103C64000000C84200401C4620BCBE4CCA1B0E5A71
:103C7400AEC59D74286E756C6C2900002D494E46A6
:103C8400000000002D696E66000000002B494E46BE
:103C9400000000002B696E66000000004E414E00DB
:103CA4006E616E0001000000000000000A000000C8
:103CB400000000006400000000000000E8030000B1
:103CC400000000001027000000000000A086010092
:103CD4000000000040420F000000000080969800A1
:103CE4000000000000E1F5050000000000CA9A3B56
:103CF4000000000000E40B540200000000E87648D5
:103D0400170000000010A5D4E800000000A0724EC7
:103D14001809000000407A10F35A00000080C6A47D
:103D24007E8D03000000C16FF286230000008A5DCF
:103D340078456301000064A7B3B6E00D0000E8898C
:043D44000423C78A03
:103D480000000000002000400000000000200040AB
:103D58000000000000000000FF000000010000005B
:103D68000090D003983A0000983A0000983A000072
:083D7800983A0000983A00009F
:040000030000037581
:00000001FF
