:1000000000000420750300005D0300005F03000092
:1000100061030000630300006503000000000000AE
:100020000000000000000000000000006703000066
:1000300069030000000000006B0300006D03000076
:100040006F0300006F030000711300006F030000D6
:100050006F0300006F0300006F0300006F030000D8
:100060006F0300006F0300006F030000091600001B
:100070006F0300006F0300006F0300006F030000B8
:100080006F0300006F0300006F0300006F030000A8
:100090006F0300006F0300006F0300006F03000098
:1000A0006F0300006F0300006F0300006F03000088
:1000B0006F0300006F03000000000000000000005C
:1000C0006F0300006F0300006F0300006F03000068
:1000D0006F0300006F0300006F0300006F03000058
:1000E0006F0300006F0300006F03000000000000BA
:1000F000000000006F030000000000006F0300001C
:1001000000000000000000000000000000000000EF
:1001100000000000000000000000000000000000DF
:1001200000000000000000000000000000000000CF
:1001300000000000000000000000000000000000BF
:1001400000000000000000000000000000000000AF
:10015000000000000000000000000000000000009F
:10016000000000000000000000000000000000008F
:10017000000000000000000000000000000000007F
:10018000000000000000000000000000000000006F
:10019000000000000000000000000000000000005F
:1001A000000000000000000000000000000000004F
:1001B000000000000000000000000000000000003F
:1001C000000000000000000000000000000000002F
:1001D000000000000000000000000000000000001F
:1001E000000000000000000000000000000000000F
:1001F00000000000000000000000000000000000FF
:10020000354936480A1A02D0072291438D463449AF
:1002100034480A1A06D00722914381F30988022242
:1002200082F3148830483149314A00F044F83148AB
:100230003149324A00F03FF831483249324A00F041
:100240003AF832483249334A00F035F832483349F7
:10025000334A00F030F833483349344A00F02BF881
:1002600033483449344A00F026F8344834490022EF
:1002700000F02CF833483449002200F027F83348C6
:100280003349091A082902DB002202604160314A21
:1002900090471F481F49884205D00268043003B4C4
:1002A000904703BCF7E700208646EC46002000217B
:1002B000294A9047FEE7884207D0521A05D00378B2
:1002C00001300B700131013AF9D17047884202D0F8
:1002D00002700130FAE770470000042000E00320BC
:1002E000000004200000042048330000000000202B
:1002F00024000020D0030000D0030000642D000083
:10030000483300000000002000000020A82D00005D
:10031000A82D0000A82D0000A82D0000A82D000089
:10032000A82D0000A82D0000A82D000048330000D3
:100330006C33000024000020240000202400002052
:1003400034180020341800203818002038180020F5
:10035000383800209D030000A9140000FEE7FEE7E6
:10036000FEE7FEE7FEE7FEE7FEE7FEE7FEE7FEE765
:1003700000F002B8FFF7FCBF0F484FF007018843B9
:1003800085460E4880470E48016841F470010160BF
:10039000BFF34F8FBFF36F8FFFF732BF09480A4992
:1003A0000A4A884207D0521A05D0037801300B70F0
:1003B0000131013AF9D1704700000420091800000A
:1003C00088ED00E0A82D00000000002000000020C3
:1003D000004870472C1800207047000007B5044BF8
:1003E0000093044A402300F032F803B05DF804FBA8
:1003F000F9030000250000202DE9F8438846144643
:10040000B2B10F4B0F4E0325002743F001092246DE
:1004100008EB0701002001F0A1F90744241A48B9AC
:1004200033782BB14FF47A40C847013D02D1357083
:10043000BDE8F88301233370002CE8D1F8E700BF52
:10044000B02D000024000020704701F0B7B9F0B5CE
:1004500095B01D46164608460C4600F059FF1A9BFB
:100460000D93CDE9086500252B46082205A92046F5
:100470000A958DF82C500C9500F066FF079B0293AF
:10048000069B03939DF814308DF8115003F003027E
:10049000012A1DD1BDF81420059DC3F3C203C2F388
:1004A00083168DF81030B20008230EA9204600F004
:1004B0004BFFC5F3952508AB0093324602AB0EA95E
:1004C000284600F01BFB204600F026FF15B0F0BDCB
:1004D000022AF8D1BDF81650C3F3C203C5F389153B
:1004E0008DF810300827082D2E4628BF08263B46D9
:1004F00032460EA9204600F027FFAD1B08AB02AA2A
:1005000031460EA8374400F05DFB002DEBD1DAE751
:1005100008B5FFF79AFF0448042100F059FA034B8D
:1005200001225A7108BD00BF842D00000000002088
:10053000037813F0040216D003F00303012B03D059
:10054000022B09D0012070470A6800880232C0F3EC
:10055000831002440A60F5E70B684288023303EB1C
:1005600092130B60EEE71046704700002DE9F04F44
:10057000DFF810A10F4685B00446861C0020154602
:1005800000F0D6FBDAF804203A60DAF8083003F518
:1005900080739B1A0AF21C470AF583690AF2144811
:1005A000B34219D30020002D68D004F00F039B0143
:1005B00043F0050363F30F00DAF80430DAB20332D4
:1005C00033444AF822000020CAF8043000F0B2FB9D
:1005D000012005B0BDE8F08F0121384600F0CFFBC7
:1005E000484600F0E4FB404600F0E1FBDAF8080082
:1005F0000090C0B203300AEB80006946FFF798FF15
:10060000009B30BBDAB20AEB8202D16801919A1CDE
:100610000133DBB20AEB83030092D3F80CB001F094
:100620000303012B22D0022B15D08346404600F055
:10063000C1FB10B1009BCAF808305946384600F09B
:100640009EFBDAF80830DAF8042003F580739B1A71
:10065000A6E7D8B2CEE7BDF80630C3F3891303335B
:100660004FEA1B4B02EB93030093DFE7BDF8043026
:10067000C3F383134FEA1B4B1344F5E7A40544F07F
:10068000060099E738010020064B074810B5012203
:100690001A7000F0F6FD044610B9044800F05EFE42
:1006A000204610BD38010020942D0000EC2D0000E4
:1006B00030B50A4C71B10A4A0A49121BD20800230C
:1006C0009A4201D1002030BD31F82350854202D03A
:1006D0000133F5E7034654F83300F4E7642D0000D6
:1006E000842D000000000020094B013903EBC000FD
:1006F000032909D8DFE801F00A0204060420704744
:100700000079704740797047002070470220704799
:10071000642D0000034BD3E90130C31A58425841FD
:10072000704700BF380100202DE9FF41FFF7F2FFBD
:100730000546002840F0E980754CC4F81804BFF362
:100740004F8FA3680093DBB2033304EB8300694649
:10075000FFF7EEFE009B18B1D4F81824002A5AD0F7
:10076000DAB2991C013304EB8202DBB204EB83039F
:10077000D268DB68029302F00303022B019200911E
:1007800054D1BDF806306348C3F38917502F3E4655
:1007900028BF502606F1080166F38F13C1F3090143
:1007A000ADF8063000F085FD0546002800F0988081
:1007B00000F0AEFD0023082201A9284600F0BAFD92
:1007C0000099CB43DBB20133C9B20331B6EB830FDF
:1007D0004FEA830204EB810125D95FFA82F80823EE
:1007E000A6EB0806284600F0A5FDF6B208F10803BE
:1007F000494903F0FC033246284600F09BFD009B6C
:10080000033703EB97070097D4F81834002B43D134
:10081000D4F8106453E062689A4294D8A2602846E3
:1008200004B0BDE8F08108233246E5E7012B57D13B
:10083000BDF804303748C3F38311062928BF0621C9
:1008400061F38913023101F00F018900ADF8043022
:1008500000F02FFD0546002842D000F059FD00238E
:10086000082201A9284600F065FD0026BDF80420F5
:10087000C2F38312B300964203F10803C4D2009975
:100880004A1CC9B20331009204EB810104222846BC
:1008900000F050FD0136E9E7284600F03DFDFFF786
:1008A00039FF80F00100C5B2B9E7F3685B7923B185
:1008B000336829461B6830469847F3681E68002E47
:1008C000F3D1284600F028FD304600F031FAD4F884
:1008D00018340BB9009BA360002000F02BFADEE770
:1008E000D4F8104454B90D4B0D480E49C01AC00835
:1008F000000440F0020000F05DF8D0E723682046D5
:100900009B689847E3681C68ECE7002587E700BF11
:1009100038010020942D000044010020642D0000C7
:100920007C2D0000D42D00002DE9F34704460E462F
:10093000924601A9012218469946FFF717FE1B4F60
:1009400010B3019D4FF00008AA1CC84508EB020136
:1009500023D11748002100F0EFF980F310000004C4
:1009600040EA1440E4006B1C04F03804DBB2EDB242
:1009700044F0010407EB8303033544EA881444EA96
:100980008624D86047F825403B781BB1FFF7CCFEA2
:100990000028FBD102B0BDE8F087C9B207EB8101A6
:1009A0005AF82830CB6008F10108CEE73801002062
:1009B0005405002000231A46FFF7B6BF07B50123F0
:1009C000019201AAFFF7B0FF03B05DF804FB00003D
:1009D00030B50F4CD4F8102403460020114631B92D
:1009E000D96808714AB9C4F810340A6030BDC968C2
:1009F0000D79854206D00968F1E7D26814680C6069
:100A00001360F3E701300A28E8D14FF0FF30EDE73B
:100A10003801002038B5084B0125D3F810441D706B
:100A200004B938BDE3685D71236820465B68984768
:100A3000E3681C68F4E700BF3801002030B5C388C4
:100A400085B004460D4633B1144A00921449154A44
:100A5000284600F009FA217A05291DD0637A4BB1A6
:100A6000A088FFF741FE104B104953F8202028467C
:100A700000F0FAF9227A0E4BA08853F82220039254
:100A80000021FFF715FE039A0A490346284605B0E0
:100A9000BDE8304000F0E8B905B030BD182E0000C8
:100AA000002E0000F82D0000842E00001D2E0000F6
:100AB000A82E0000202E000007B503460846197A2C
:100AC000052911D05B7A2BB1094A0A49019000F03F
:100AD000CBF901980849019000F0C6F9019803B0DC
:100AE0005DF804EB00F0B5B9002AF8D0F2E700BFDA
:100AF000182E00001D2E0000152E00002DE9F043D9
:100B000085B01F460C9D002395F80C902B7306466C
:100B10000C46904629463846FFF790FFB8F1060F7D
:100B200009D8DFE808F00412181F283340003146C6
:100B3000284600F099F9002229463846FFF7BCFF05
:100B400085F80C9005B0BDE8F08322683146284650
:100B500000F08AF9EFE7D4E900233146284600F097
:100B600083F9E8E7A36800933146D4E900232846D7
:100B700000F07AF9DFE7E3680193A3680093314658
:100B8000D4E90023284600F06FF9D4E723690293E3
:100B9000E3680193A36800933146D4E90023284613
:100BA00000F062F9C7E76369039323690293E3687E
:100BB0000193A36800933146D4E90023284600F04E
:100BC00053F9B8E708292DE9F74F80460E46174636
:100BD0001C463DD800251B7B2573214610460193FA
:100BE000FFF72CFFDFF88CA0DFF88CB0AE4232D9D3
:100BF00018F805205946204600F036F90135082D31
:100C0000F4D11B49DFF874A0DFF874B0204600F07F
:100C10002BF94FF000094E4524D918F809507E2DC4
:100C20001ED8284601F074F8002814BF2A462E2248
:100C30005946204600F018F909F10109B9F1080FE9
:100C4000E9D1012221463846FFF736FF019B237385
:100C500003B0BDE8F08F5146204600F005F9CDE71E
:100C60002E22E5E75146204600F0FEF8E4E700BFFB
:100C7000342E0000302E00002A2E0000322E0000FC
:100C8000362E00001FB50021039001AA44F2010096
:100C9000CDE9011100F004F805B05DF804FB000097
:100CA00038B572B6FFF7B6FEFFF73EFD0028FBD160
:100CB000104B114C114D1249E41AE408240444F07D
:100CC0000100FFF777FED5F8F030DB0700D500BE56
:100CD0000C4944F00200FFF76DFEBFF34F8FEA6846
:100CE000094B02F4E0621343EB60BFF34F8F00BF88
:100CF000FDE700BF642D00007C2D000000ED00E04A
:100D0000BC2E0000C82E00000400FA0572B6024A8C
:100D10001368013313607047F0050020034A13681D
:100D2000013B136003B962B6704700BFF0050020B5
:100D3000FFF7ECBFFFF7F2BF10B5034653E8000F13
:100D40000A4643E8002494F0000FF7D110BD10B517
:100D5000034653E8002F42EA010043E8000494F000
:100D6000000FF6D110BD10B5034653E8000F00EA9E
:100D7000010243E8002494F0000FF6D110BD10B535
:100D8000034653E8002F02EB010043E8000494F00F
:100D9000000FF6D110BD10B5034653E8002FA2EBAB
:100DA000010043E8000494F0000FF6D110BD0121CA
:100DB000FFF7CDBF0021FFF7D6BF10B590B1D0E946
:100DC000012301689B1ADBB20A60013BDBB2FF2BF7
:100DD000026802D10020107110BD11684C1C146013
:100DE0000B70F2E70E20F7E738B504460020FFF756
:100DF0009FFF226863681168994213D9481E1060EA
:100E000011F8013CE568218A01FB0355A3681179BB
:100E10001B1ADBB2994200D213710020FFF78AFF40
:100E2000284638BD0025F8E738B5054600200C46B1
:100E3000FFF77EFF2A681368591C1160E968641A7D
:100E4000298AB4FBF1F41C70BDE838400020FFF79C
:100E500071BF826810B504462AB143690168006910
:100E600098470023A36010BD0EB403B5039921B1C8
:100E700004AB01AA019300F077F802B05DF804EB2F
:100E800003B070470A2938B504460D4602D10D213A
:100E9000FFF7F8FFA3682268591CA160D554D4E974
:100EA00001329A4204D32046BDE83840FFF7D1BF53
:100EB00038BD00002DE9F84F9846DDE90A43154694
:100EC00082460F460A464FF00109AA420FD2C14599
:100ED00038BFC14613F0010B01D16CB900240126C3
:100EE000B8F1010F1BD908F1FF386E43F8E709F19B
:100EF0000109B2FBF5F2E8E79B070ED5B8F1000F48
:100F00000CBF30262026A145E9D2013C314650468F
:100F1000FFF7B8FF002CF6D1E0E72026F3E7B7FB98
:100F2000F6F39D42E1D9DFF83C80B7FBF6F350467B
:100F300018F8031006FB1377FFF7A4FF3346AB4204
:100F4000B6FBF5F6F1D2BBF1000F02D00CB1A14512
:100F500001D3BDE8F88F20215046013CFFF792FFF6
:100F6000F4E700BFD52E00002DE9F74F05461746E0
:100F70008846002900F03E8118F8011B49B92B7BF7
:100F8000002B00F03781284603B0BDE8F04FFFF793
:100F900060BF252940F0B780002698F800302D2B3F
:100FA000424608F1010823D0302B24D02B2B25D02A
:100FB00000242A2B02F1010123D13B681A1D1B6872
:100FC0003A601C440A4613782E2B26D101324FF08A
:100FD000000A104610F8011BA1F1300CBCF1090FFA
:100FE0001DD80A2303FB0A13A3F1300A0246F0E7D7
:100FF00046F00106D1E746F00206CEE746F00406C9
:10100000CBE711F8013CA3F130000928DBD80A2214
:1010100002FB0434303C0A46CBE74FF0000A12F8DA
:10102000011B01F0FB0068289046F8D0782909D808
:101030006F290CD8632962D022D8252963D058297A
:1010400000F0888098F80030002B95D197E7703930
:101050000829F7D801A353F821F000BFCF110000F1
:10106000451000004510000065110000451000000B
:10107000431100004510000045100000551100000C
:10108000642901D06929DDD13A68D2F80090111D98
:1010900089EAE9723960A2EBE9724FF0010B092A83
:1010A00035DCD34538BFD3462CB1B9F1000F01DB95
:1010B000720700D5013CB30702D5BAF1000F03D087
:1010C000F00701D44CBB0024B9F1000F2DDAC9F1AF
:1010D00000092D212846FFF7D5FE06F00302022A5B
:1010E00004D1BAF1000F01D11CBB0024CDE90046A8
:1010F00053460A2249462846FFF7DCFEA2E73B6832
:101100001A1D19783A602846FFF7BCFE9AE70A23B1
:101110000BF1010BB2FBF3F2C1E7A345D4D22021BE
:101120002846013CFFF7AEFECCE77107D5D52B2151
:10113000D0E7A345DAD230212846013CFFF7A2FED2
:10114000D2E73968CDE900460A1D3A6053460A22C3
:101150000968D0E739680A1D3A60CDE90046534670
:101160001022F5E73B681A1D3A6016F00106D3F825
:10117000009024D1B9F1000F03D0484600F049FE99
:101180000646B4421DD809F1FF3919F8011F00299C
:101190003FF458AF2846FFF775FEF6E728460136BC
:1011A000FFF770FE19F806100029F7D1A642BFF428
:1011B00049AF20212846013CFFF764FEF6E70026F0
:1011C000F0E720212846013CFFF75CFED9E73B68A9
:1011D0001A1D3A60302128461C68FFF753FE78211B
:1011E0002846FFF74FFE00220823CDE900322146B2
:1011F000102280E703B0BDE8F08F00BF2DE9F84F63
:10120000B0F806A04579D2F800B09DF828900AFB06
:1012100005F5043D88460BEB0301A94203F10404E4
:1012200088BFA5EB030BB4FBFAF607460AFB16448E
:10123000C2F800B04EB9AAEB04055D4528BF5D4673
:10124000BBF1000F04D1BDE8F88F3F68013EF1E724
:10125000043408EB06003C442A46B9F1000F0DD0D7
:101260002146ABEB050B00F089FDDA452E443F68C3
:1012700055464FF0000428BF5D46E1E70146204691
:10128000EFE7FFF79ABDF8B546790146721E0546AD
:10129000002393422D6803D30024A64202D8F8BD50
:1012A0000133F6E70F682846FFF7BEFD01343946E3
:1012B000F3E72DE9F843068ACD1C0746FFF794FDB6
:1012C000043E35440446B5FBF6F5F0B14FF48073A7
:1012D000EDB28380C680013D076081464FF0000873
:1012E000A84512D23846FFF77FFD064648B163791C
:1012F0000133637108F10108C9F8000007608146F5
:10130000EEE72046FFF7BFFF34462046BDE8F883EE
:1013100001210430FFF733BD10B50121044604302C
:10132000FFF739FDC0B220B92046BDE81040FFF7F5
:10133000AABF10BD1FB503920022009203AAFFF7B7
:101340005DFF05B05DF804FB1FB50392012200921A
:1013500003AAFFF753FF05B05DF804FB8368002282
:101360005A60C3E904229A60DA601A60704700008C
:10137000014B1B68184700BFF40500202DE9F04F12
:101380003D4B3E4C3E4FDFF81C912DED028BE41A95
:10139000E4082404B5B044F0030405264FF0000827
:1013A00047F00107374BC9F8008083F800801A78AE
:1013B000002AFCD00020344D83464FF0FF3A012133
:1013C00040F2E93355F82120524538BF55F821A0A5
:1013D00055F821205A4588BF55F821B055F82120ED
:1013E000013199421044EDD107EE900A9FED277A22
:1013F000DFED276AF8EE677A4FF4487587EE878A43
:10140000C8EE267AC7EE278A9FED227AFFEE007A91
:10141000E8EE877A9FED207A67EE877A17EE900ADA
:1014200000F0E6FACDE9040118EE900A00F0E0FAC7
:10143000CDE9020118EE100A00F0DAFA5B46CDE9B8
:1014400000015246154907A800F072FC144907AA8A
:101450002046FFF7B3FA4FF47A40B847013DFAD17E
:10146000FFF762F90028FBD1013E9BD135B0BDECFE
:10147000028BBDE8F08F00BF642D00007C2D0000C2
:10148000D02F0000080000200006002000007A4451
:1014900000007A460000003800247449F42E000051
:1014A0001D2E0000A41500200021F8B50846FFF706
:1014B000EBF808B1FFF7E6FBFFF72AF8434C444886
:1014C0004449241AE408240444F003042046FFF7A6
:1014D00071FA4FF0804540492046FFF76BFA01232F
:1014E0000022EB60C5F81825C5F80421AB60D5F8DB
:1014F0000431002BFBD039492046FFF75BFA384A0C
:1015000000235360C5F8003101232B604FF0804663
:10151000D6F80031002BFBD020463249FFF74AFABB
:10152000314A324900270323C2F81075C2F8083542
:101530002F4B0125C3F81015A1F54351C3F814151D
:10154000C3F804552B49A3F5A033E020C3F8445356
:10155000C3F80453C3F8087581F80B034FF4006017
:10156000086015609D601D60FFF708FFC6F80C71EC
:1015700035614FF08045D5F80C31002BFBD01E496A
:101580002046FFF717FAFFF7F9FE1C492046FFF740
:1015900011FA01230022EB60C5F81835C5F80421C3
:1015A000AB604FF08042D2F80431002BFBD01449DD
:1015B0002046FFF7FFF9FFF7E1FE12492046FFF74B
:1015C000F9F9FFF7B1F80028FBD1FEE77C2D000008
:1015D000642D0000162E0000322F0000542F000052
:1015E00000B00040652F00000080004000B10040C6
:1015F00000F0014000E100E07F2F0000912F00008B
:10160000B92F0000BE2F00000F4BD3F8002170B59A
:10161000CAB10E490022C3F800210B789BB90C4BCC
:101620000C48D3F840450C4B02681D686E1C1E60C8
:101630000A4EA21A46F8252004601B68B3F57A7F8B
:1016400084BF01230B7070BD00B000400800002073
:1016500000800040FC050020A415002000060020AA
:101660000369C26893429CBF80681B18013B981AAB
:1016700070472DE9F843D0E902940546A9EB040828
:101680004068904520440F46144404D900F076FB8E
:10169000EC60BDE8F8834246A4EB090400F06EFB61
:1016A0006868224607EB0801F0E72DE9F843C568B2
:1016B0000646894617464FF000083469B3687068DB
:1016C000A54228BFE418013C621B5C1BBC4228BF3A
:1016D0003C46944228BF144649462844224600F01E
:1016E0004DFBB3682544AB4208BF00253F1BA04417
:1016F000A144F560E1D14046BDE8F88310B5114C36
:10170000114AA2610223C4E90433104BE361A264CD
:101710004FF400730E4A0F492362E2640023102243
:10172000E01DA3626362E362A3656365E36522650E
:1017300000F04DFB0849204600F049FB2023A3712F
:1017400010BD00BFA8150020D62F000030160020C5
:1017500020160020DF2F0000E32F000070B5164B8D
:10176000182400FB04451D4404FB00331646DC6AC4
:10177000012C0ED0022C18D0E4B92846FFF770FFD8
:10178000864204D832462846FFF773FF3446204687
:1017900070BD2846FFF764FF8642344628BF0446E2
:1017A00022462846FFF765FFF1E72846BDE870406E
:1017B000FFF77BBF0024EAE7A8150020FFF79EBFD4
:1017C0004FF08053D3F83001A0F10803584258413C
:1017D000704700004FF08053D3F83021082A06D11B
:1017E000D3F83431052B02D8024AD05C7047002070
:1017F000704700BFF02F0000024AD2F80034002BDF
:10180000FBD0704700E0014010B5FFF7D9FF40B1B1
:101810004FF080430022C3F80C21C3F81021C3F815
:101820003825FFF7CDFF002846D04FF08052654B9A
:10183000D2F80414C3F82015D2F80814C3F82415FC
:10184000D2F80C14C3F82815D2F81014C3F82C15CC
:10185000D2F81414C3F83015D2F81814C3F834159C
:10186000D2F81C14C3F84015D2F82014C3F844155C
:10187000D2F82414C3F84815D2F82814C3F84C152C
:10188000D2F82C14C3F85015D2F83014C3F85415FC
:10189000D2F83414C3F86015D2F83814C3F86415BC
:1018A000D2F83C14C3F86815D2F84014C3F86C158C
:1018B000D2F84424C3F87025FFF78CFF18B1424BCF
:1018C000424AC3F88C26FFF785FF18B1404BFB2234
:1018D000C3F81825FFF77EFF70B14FF080414FF03D
:1018E0008053D1F8E42ED3F8583222F00F0203F0DF
:1018F0000F031343C1F8E43EFFF76CFF20B1354BF3
:101900004FF40072C3F84026FFF75AFF48B14FF07A
:101910008043D3F80024D20744BF6FF00102C3F81C
:1019200000242D4AD2F8883043F47003C2F888307E
:10193000BFF34F8FBFF36F8F4FF08053D3F8302139
:10194000082A0ED1D3F83431052B02D8234AD35CB0
:101950003BB14FF01023D3F808224FF08043C3F877
:1019600058254FF01023D3F80022002A03DBD3F8C8
:101970000432002B22DA1A4901234FF01020C1F85B
:1019800004351224FFF738FFC0F80042FFF734FF98
:10199000C0F80442FFF730FF0023C1F80435FFF719
:1019A0002BFFBFF34F8F0C490E4BCA6802F4E06265
:1019B0001343CB60BFF34F8F00BFFDE70A4B0B4AC9
:1019C0001A6010BD00C00040005000404881030074
:1019D00000F000400090024000ED00E0EA2F00001F
:1019E00000E001400400FA050C0000200090D00344
:1019F000C0F3C75191B142004FEA40704FEAD201A3
:101A00004FEA310101F16051B2F17F4F38BF7047A9
:101A100001F1605118BF41F40021704710F00041FE
:101A20000020704701F000428B1AA3F16051B1F51C
:101A3000801F0ADBB1F17F6F09D242EAC102C10007
:101A400071F1004142EB5070704710467047012819
:101A50005B4113F5001F04D842F0FE4040F4000043
:101A60007047C90041EA507040EA020040F480002B
:101A700040F08040704700BF10EE100A4FEA40006F
:101A8000B0F17F4F0CBF01200020704710EE100A0C
:101A900041000020B1F17F4F18BF50EB00007047AC
:101AA00010EE100A00F00040704700BFB0EEC00A10
:101AB000704700BF00B510EE100A00F003F800EE0A
:101AC000100A00BD4FF07F43B3EB400F22D9410015
:101AD00008BF704703EA4002120E7F3A14DB172A50
:101AE000A8BF70474FF6FF73C0F27F03D340184280
:101AF00020EA030018BF10F0004F08BF70474FF4F2
:101B00000001D1404018704710F0004F0CBF00207A
:101B10000248704718BF024870470000000080BFAD
:101B20000000C07F00B5014610EE100A00F003F877
:101B300000EE100A00BD4FF07F43B3EB400F98BF9B
:101B4000704713EA400207D0120E7E3A0A6020EA7C
:101B5000530040F07C5070470A6000F0004070472E
:101B600000B5014610EE100A00F003F800EE100A6E
:101B700000BD4FF07F43B3EB400F98BF704713EAAF
:101B8000400204BF00F00040704711EB1262DCBF5E
:101B900000F000407047FF2A3CBF00EBC150704787
:101BA00040004FEA330070477F2805D8034B185C8C
:101BB000034B5B5C18407047002070470430000006
:101BC00084300000A0F16103192B98BF20387047C2
:101BD000A0F14103192B98BF203070477F2805D80A
:101BE000034B185C034B5B5C184070470020704748
:101BF0000430000084300000A0F16103192B98BF6D
:101C000020387047A0F14103192B98BF203070474E
:101C10007F299ABF017001206FF02E0070475AB1E2
:101C20000A787F2A0AD800B1026000211960596041
:101C3000501A18BF01207047002070476FF02E0027
:101C400070470000002816DB002817DD0022B7EEE1
:101C5000000A0C4B10F0010F1CBFD3ED007A20EEF0
:101C6000270A401004330028F4DC4AB1F7EE007A6A
:101C700087EE800A704740420122E8E7B7EE000A8B
:101C8000704700BF5C32000010B504460846A268E9
:101C90004AB12368616803F1010C8C4508BF00203C
:101CA0008B4208D2D054E3682BB12168626891421C
:101CB00001D22146984723680133236010BD70B5D7
:101CC0004C1E09D41646C5B229463046FFF7DCFF44
:101CD000013CB4F1FF3FF7D170BD10F0100F08D1F7
:101CE00008B510F4007F14BF30202020FFF7E7FF75
:101CF00008BD70470028B8BF4042704708B5034B85
:101D00005B689B681B68984708BD00BF10000020F7
:101D100008B50921FFF7F2FF08BD000000B5FEF786
:101D200057FB024B18445DF804FB00BF080000009D
:101D30000EB400B586B007AA52F8041B05920390B2
:101D4000002304936FF00043029301A800F092F87F
:101D500006B05DF804EB03B07047037853B159B196
:101D60000144034613F8012F12B18B42FAD10B46FE
:101D7000181A70470346FBE70346F9E7844640EA32
:101D8000010313F0030F18D18446202A0BD32DE949
:101D9000F007B1E8F807A0E8F807A2F12002202A2E
:101DA000F7D2BDE8F007042A07D351F8043B40F806
:101DB000043BA2F10402042AF7D2002A05D011F84C
:101DC000013B00F8013B013AF9D1604670470246F9
:101DD00010F0030F16D111F0030F13D12DE9F0000D
:101DE0004FF001374FF0803351F8044BA4EB070557
:101DF00025EA04051D4002D142F8044BF4E7A1F1A5
:101E00000401F0BC11F8013B02F8013B002BF9D1B1
:101E1000704700F1010110F0030F11D010F8012BF1
:101E2000002A23D010F0030F0AD010F8012B002A4B
:101E30001CD010F0030F03D010F8012B002A15D08E
:101E40002DE970004FF001324FF0803350F8044B11
:101E5000A4EB020525EA04051D4000D1F6E7A0F138
:101E6000040070BC10F8012B002AFBD1A0EB01008C
:101E7000704700002DE9F04F2DED048B8BB08346A9
:101E80000592002303600D4615F8011B002900F0A0
:101E90009986DFED988A4E4600F086BE4FF0000826
:101EA00007E05E2866D148F4805801E048F0400819
:101EB0001D462B4613F8010B3028F2D81F2838D9BD
:101EC000A0F12002102A34D801A151F822F000BF5D
:101ED000AD1E0000331F0000331F0000151F00005F
:101EE000331F0000331F0000331F00001B1F0000C2
:101EF000331F0000331F0000331F0000211F0000AC
:101F0000331F0000271F0000331F0000331F000095
:101F10002D1F000048F08008CAE748F40048C7E7D2
:101F200048F02008C4E748F01008C1E748F40078FA
:101F3000BEE72A281ED1059A111D05911768002FAA
:101F4000BCBF7F4248F010081878AB1C27EAE7773F
:101F50002E2824D00025742845D07A2843D06C2818
:101F600000F0C2804C2800F0C780682800F0D580BF
:101F700003933BE0A0F13002D2B2092A88BF0027C8
:101F8000E4D8002707EB8707303800EB470713F842
:101F9000010BA0F13002D2B2092AF3D9D6E71878A2
:101FA0002A280AD1059A111D05911568587802331F
:101FB000002DD0DB48F48078CDE70133A0F130026A
:101FC000D2B2092A88BF0025F4D8002505EB850583
:101FD000303800EB450513F8010BA0F13002D2B206
:101FE000092AF3D9E4E713F8010B0393782800F2E8
:101FF0008680DFE810F0F905840084008400840006
:1020000084008400840084008400840084008400B0
:1020100084008400840084008400840084008400A0
:102020008400840084008400840084008400840090
:102030008400840084008400840084008400840080
:10204000A000840084008400840084008400840054
:102050008400840084008400840084008400840060
:102060008400840084008400840084008400840050
:102070008400840084008400840084008400840040
:10208000BE01DB01E0018400840084008400840040
:102090008400840084008400840084008400840020
:1020A000840084008400190184008400840084007A
:1020B000840084008400840084008400A6004E0113
:1020C000C001DD01E20184004E018400840084002F
:1020D0008400B6003C01000184008400CB00840031
:1020E0004701840084001B0113F8010B039348F09F
:1020F00001087BE70000C84248F001080393B04B99
:102100001C68002C00F04C8505AB019300953B4604
:1021100042465946A04700F043BD1878682804D0CD
:102120000133039348F0040860E748F008089A1C5C
:10213000039258785AE725215846FFF7A5FD00F08D
:102140002FBD059B1A1D05921C78013F5A46394642
:102150004046FFF7C2FD21465846FFF795FDC146B0
:1021600039E018F0080F08D0DBF80020059B191D96
:1021700005911B681A7000F013BD059B1A1D05928E
:102180001B68DBF800201A6000F00ABD059B1A1DD1
:1021900005921B688B4C002B18BF1C4628F4007955
:1021A00018F4807F22D029462046FFF7D6FD054649
:1021B0007F1B5A4639464846FFF78FFD6E1E55B1C4
:1021C00026462C4416F8011B5846FFF75DFDB44225
:1021D000F8D14FF0FF3619F0100F00F0E1845A46A5
:1021E00039462020FFF76BFD00F0DABC2046FFF7F0
:1021F00010FE0546DCE7059B1A1D05921B6818F0CA
:10220000800F0CBF0026232648F4807808251A4644
:10221000002B00F0A58406AB002408F40050DFF882
:10222000A8C1AE4600F05FBC48F4005818F0800F1B
:102230001BD043F2780643F25803782818BF1E4695
:1022400018F4807F01D028F4007818F4804F32D041
:10225000059B1A1D05921B6818F0040F1FD01BB2B6
:10226000002B20DA5B422D262DE00026E8E718F04F
:10227000800F0CBF0026302618F4807FE5D028F4AC
:102280000078E2E718F4807F07D028F40078002671
:10229000DBE748F480480026D7E70026D5E718F0AA
:1022A000080FDDD0DBB218F0200F60D118F0400F1E
:1022B00018BF202607E0059B1A1D05921B6818F021
:1022C000040F4FD09BB218F4807F00F0E18328F414
:1022D00000785838202800F2308401A252F820F00B
:1022E0000F2200003B2B00003B2B00003B2B00008B
:1022F0003B2B00003B2B00003B2B00003B2B000046
:102300003B2B00003B2B00003B2B00003B2B000035
:10231000B72A00003B2B00003B2B00003B2B0000AA
:102320003B2B0000B72A00003B2B00003B2B00009A
:102330003B2B00003B2B00003B2B0000952A0000AC
:102340000F2200003B2B00003B2B00003B2B00002A
:102350003B2B0000B72A00003B2B00003B2B00006A
:102360000F22000018F0080FADD0DBB2ABE72B2630
:10237000A9E748F4005848F48068059B073323F028
:10238000070303F108020592D3E90001FFF74AFBB6
:1023900008EE100A18F4807F18D0C5B908F440651B
:1023A000B5F5406F14BF0025012510E048F4005832
:1023B00048F40068E1E748F4005848F44068DCE776
:1023C0003018002074320000483200000625B0EEBC
:1023D000480AFFF751FB002840F0BC80B0EE480AE5
:1023E000FFF754FB8246002840F0CD80B0EE480A4B
:1023F000FFF756FB002840F0CF8018EE103A08EEA9
:10240000103A09A800EE103AFFF78CFB099B03EB8A
:1024100043039B4A82FB0312DB17C3EBA20309931E
:10242000B5EE408AF1EE10FA40F0C08008F4406446
:10243000B4F5806F0AD0B4F5406F40F0E581099B98
:10244000AB4203DA13F1040F80F2DE8109984042B7
:10245000FFF7F8FB28EE008A8DED048AB5EE408A7E
:10246000F1EE10FA36D0B0EE480AFFF705FB00286F
:1024700040F0B280F2EE047AB4EEE78AF1EE10FAA0
:102480000FDB099B0133F2EE047A1A4688EE278AA5
:102490000133B4EEE78AF1EE10FAF6DA8DED048A34
:1024A0000992DDED047AB7EE007AF4EEC77AF1EE28
:1024B00010FA0FD5099B013BF2EE046A1A4667EE4B
:1024C000A67A013BF4EEC77AF1EE10FAF6D4CDED20
:1024D000047A099225B1B4F5406F08BF05F1FF35C4
:1024E0006842FFF7AFFBF6EE007A60EE277A9DEDCB
:1024F000047A77EE877AB2EE047AF4EEC77AF1EED8
:1025000010FA80F28280B0EE678A002D00F092808F
:1025100008F40863B3F5006F7FD028F400696B1DE1
:10252000FF1A013F18F4805F00F06B81099A554B48
:1025300083FB0213A3EBE27303EB4303D31A0233CF
:10254000042B00F25C81DFE813F0AD00520197002C
:10255000AD005201B5EEC08AF1EE10FA0CD418F4B9
:10256000005F494C494B08BF1C4618F0200F08BFBC
:10257000013428F4807811E618F4005F444C454B90
:1025800008BF1C46F5E718F4005F434C434B08BFF7
:102590001C4628F4807801E648F06008F1EE487A9D
:1025A00017EE903A2BE7099B013309930998013004
:1025B000FFF748FBB4EEC08AF1EE10FAF3DC02E05C
:1025C000099B013B09930998FFF73CFBB4EEC08AD5
:1025D000F1EE10FAF4D429E7B5EEC08AF1EE10FA64
:1025E0000CD418F4005F284C284B08BF1C4618F088
:1025F000200F08BF013428F48078CFE518F4005F7D
:10260000234C244B08BF1C46F5E7099B0133099373
:10261000B2EE047A87EE878A77E7092DA8BF0925ED
:102620002846FFF70FFB60EE087AFCEEE77A17EE1C
:10263000903A43B928F40069053F18F080053FF44B
:1026400071AF55466DE7164AA2FB0312D20802EBA2
:102650008202B3EB420F7FF460AF1149A1FB032369
:10266000DB08013DE6D0A1FB0302D20802EB8202A7
:10267000B3EB420FF2D050E74FF0010A1BE000BF6E
:1026800067666666565555558C32000094320000D8
:102690007C320000843200009C320000A032000036
:1026A000CDCCCCCCF2EE047A27EE888A013A09929E
:1026B000013F4FF0020A25EAE57518F0600F18BFD8
:1026C00007F1FF370998FFF715FB6328C8BF07F12B
:1026D000FF37F0EE487ABCEEC87A17EE104AB8EE33
:1026E000478A37EEC88A27EAE77619F4047F00F0B4
:1026F000248119F0200F00F02C8119F0400F14BF35
:102700002D212B215846FFF7BFFA19F0100F00F0CA
:1027100029810AF10053013BC44A02EBC308002798
:102720002B4655469A46013DD8F80030D8F804208B
:10273000A8F108089C4277EB0201C0F01F8130210C
:102740000131C9B2E41A9C4277EB0200F8D2584634
:10275000FFF79AFA002DE6D1554619F4006440F0CF
:102760000F81002D40F01B8119F0800F40F03F8257
:1027700019F4806F2FD019F4005F14BF4521652133
:102780005846FFF781FA099B002BC0F263812B2189
:102790005846FFF779FA0999632900F3638109998B
:1027A000A34C84FB0132C917C1EBA2013031C9B27D
:1027B0005846FFF769FA099B84FB0324D917C1EB3C
:1027C000A40101EB8101A3EB410303F13001C9B284
:1027D0005846FFF759FA002E00F0E2812024013E0E
:1027E00021465846FFF750FA002EF8D1D8E128EEDE
:1027F000888A023A0992023F4FF0030A5BE7B24629
:1028000059E74FF0010A58E718F4806F29D0099B67
:102810000E2B25DC0133EC1A092CA8BF092418F073
:10282000800F01D025461CE0AB426AD0F6EE009A3C
:10283000B2EE049A2046FFF705FA28EE000A30EEC1
:10284000290AFFF737F9F0EE490A00F00DFAB5EE64
:10285000400AF1EE10FA56D1013CEBD1254600E0DA
:10286000554628F48069099B6842A3F10802824218
:10287000C8BFA3F10900FFF7E5F94FF0FF30FFF7FC
:102880006FF938EE008AB0EE489A09980130FFF7E8
:10289000D9F9B4EEC08AF1EE10FA02DB099B0133DC
:1028A00009930998002840DB09282EDCFCEEC97A40
:1028B00017EE904AB8EE678A39EE488A00230993EA
:1028C00000202646092C35D95A4B4FF0010A0AF14F
:1028D000010A53F8081F5A688E4270EB0202F6D2C2
:1028E00005EB0A03099A1344FF1A08F080032B43EF
:1028F00018BF07F1FF3718F0600F18BF07F1FF3757
:10290000F1E62546ADE72546ABE7A0F109030993BB
:10291000C0F10900FFF796F929EE009AFCEEC97A9A
:1029200017EE904A08EE10AACAE7002409944FF067
:10293000010AD5E74FF0010AD2E7002F7FF7D9AEA1
:102940002027013E39465846FFF79EF9002EF8D160
:10295000CFE619F0400F3FF4D8AE20215846FFF7DC
:1029600093F9D2E6002E3FF4D4AE3027013E39462B
:102970005846FFF789F9002EF8D1CAE63021E6E67D
:10298000099B002B7FF7EDAE3027013B09933946B9
:102990005846FFF779F9099B002BF6DCE1E62E217A
:1029A0005846FFF771F92F46092DA8BF092727EAD6
:1029B000E777ED1BACB10998381AFFF743F920EE21
:1029C000088AFCEEC87A17EE904ABFB3DFF85CA025
:1029D00007F10057013F0AEBC7080027CDF8109018
:1029E00015E03846FFF72EF920EE088AFCEEC87A8B
:1029F00017EE904AE9E70131C9B2E41A9C4277EB3D
:102A00000200F8D25846FFF73FF9D14514D0D8F864
:102A10000030D8F80420C146A8F108089C4277EBA2
:102A2000020101D33021E6E73021EBE7A8320000B4
:102A300067666666B0320000DDF81090002D3FF446
:102A400097AE3024013D21465846FFF71DF9002D71
:102A5000F8D18DE62D215846FFF716F9099B5B4208
:102A6000099398E6664C84FB0132C917C1EB6211E9
:102A70003031C9B25846FFF707F9099B84FB03219F
:102A8000DA17C2EB6112642101FB1233099386E667
:102A900001251EE41A460024002B4FD006A900246D
:102AA00003F00703303301F8013B0134D208134629
:102AB000002AF5D142E019460024002B3ED0002424
:102AC00008F4004E4FF02C09DFF83CC17346AE46C7
:102AD0001D4623E002F00F014A4D695C03F8011B1B
:102AE0000134120906D00028F4D002F00F011CF8BE
:102AF0000110F3E7754621E004F128030DEB030014
:102B0000ACFB0132D20802EB8203A1EB430330336A
:102B100000F8103C013409290DD91146002DEBD0E5
:102B200004F00303032BE7D104F128036B4403F8FB
:102B3000109C0134E0E7754600E000242D1B25EAD7
:102B4000E5757F1B3F1BFF2E0CD9023FC6F3072103
:102B50005846FFF799F8F1B25846FFF795F803E0A9
:102B60000024EBE7002E48D15A4639464046FFF78D
:102B7000B4F85A4629463020FFF7A1F8661E0CD457
:102B800006AE013C344421785846FFF77DF8A64252
:102B900004F1FF34F7D14FF0FF3618F0100F0BD1CE
:102BA000039D15F8011B69B125293FF477A9584603
:102BB000FFF76AF80395F3E75A4639462020FFF7F6
:102BC0007EF8EDE7DBF808303BB1DBF80020DBF8FE
:102BD00004108A423CBF00219954DBF800000BB07E
:102BE000BDEC048BBDE8F08F4FF0FF30F7E72E21EE
:102BF0005846FFF749F82F46DBE6013FABE700BF39
:102C00001F85EB5138320000CDCCCCCC9FED147A2F
:102C1000B4EE470AF1EE10FAF0EE407A12D010EE60
:102C2000102AC2F3C7537F3B11D4162B12DC0D4977
:102C300021FA03F322EA030207EE102A026030EEC3
:102C4000470A7047B0EE470A80ED007A704780ED82
:102C5000007A7047B0EE470AC0ED007A704700BFB7
:102C600000000000FFFF7F0000B52DED028BF5EEA8
:102C7000400AF1EE10FA83B04BD0B0EE608AF0EE6D
:102C8000408AFEF703FF30B1B0EE680A03B0BDEC36
:102C9000028B5DF804FBB0EE480AFEF7F7FE002851
:102CA00043D1F5EE408AF1EE10FAEDD0B0EE680AAD
:102CB000FEF7E2FE00283FD1B0EE480AFEF7DCFE48
:102CC0000028E1D1B0EE480AFEF7F0FEB0EE408AEF
:102CD00088EE880A01A8FFF799FFDDED017AF5EE8D
:102CE000C08AB0EE680AF1EE10FAA8EE670AB1EEFB
:102CF000487A24DDB4EEC08AF1EE10FA98BF30EEC7
:102D0000480AB5EEC00AF1EE10FABFD530EE080A57
:102D1000BCE7FFF703F8114B9FED110A1B68036036
:102D200003B0BDEC028B5DF804FBB0EE480A03B0C3
:102D3000BDEC028B5DF804FB9FED090AA6E7B4EE3B
:102D4000C70AF1EE10FA98BF30EE080AB5EEC00AD5
:102D5000F1EE10FA9ADD30EE480A97E7583200009B
:042D60000000C07F30
:102D6400E52E000000000000E92E00000000000035
:102D7400EE2E000000000000E52D0000000003031B
:102D8400B82D000000000000C42D00000000002049
:102D9400680000203001002038010020700000206D
:042DA4001800000013
:102DA80000000000000000000338FDD87047000054
:102DB800DD03000049040000D90300007274745F49
:102DC8006C6F675F6261636B656E64004261636B21
:102DD800656E647320666C757368656400617070F5
:102DE80000000000580500207F000000D8050020E2
:102DF8001B5B313B33316D0025734C6F6773206467
:102E0800726F70706564202825642925730D0A0087
:102E18001B5B306D002573003C25733E2025733AFB
:102E28002000202530327800202020007C002563F7
:102E3800001B5B313B33306D001B5B313B33326D24
:102E4800001B5B313B33336D001B5B313B33346D0F
:102E5800001B5B313B33356D001B5B313B33366DFB
:102E6800001B5B313B33376D007761726E696E67AB
:102E780000696E666F00646562756700182E000051
:102E8800392E0000F82D0000412E0000492E0000C8
:102E9800512E0000592E0000612E0000692E0000FE
:102EA80000000000C22E0000712E0000792E0000E4
:102EB8007E2E0000466174616C206572726F72002C
:102EC80053797374656D207265736574003031329F
:102ED80033343536373839414243444546505253E6
:102EE800005541525400554152544500526573757E
:102EF8006C74733A204D696E2F4D61783A202569BC
:102F08002F25692C204176673A20252E32662C2001
:102F1800467265713A20252E31662C204465765F0D
:102F280070706D3A20252E3166005243206163632C
:102F380075726163792074657374206578616D704A
:102F48006C6520737461727465640A004C46206372
:102F58006C6F636B2073746172746564004C4620F7
:102F6800636C6F636B20737461727465642028529C
:102F780043206F736329005243206F73632063619A
:102F88006C69627261746564004368616E67696E3A
:102F98006720746F2065787465726E616C20524387
:102FA80020636C6F636B20736F757263652E2E2EB2
:102FB80000446F6E6500546573747320646F6E65AA
:102FC80000000000000000000338FDD87047546579
:102FD800726D696E616C0052545400534547474501
:102FE8005200000000000101010000000000000084
:102FF80043000000504F5349580000002020202073
:103008002020202020682828282820202020202050
:1030180020202020202020202020202048101010B0
:1030280010101010101010101010101084848484C8
:10303800848484848484101010101010108181817D
:1030480081818101010101010101010101010101E8
:10305800010101010101011010101010108282827B
:1030680082828202020202020202020202020202B8
:1030780002020202020202101010102000070320B0
:10308800041702010857104080000000F82F0000C4
:10309800FC3000001032000053756E004D6F6E005A
:1030A8005475650057656400546875004672690078
:1030B80053617400000000004A616E0046656200BA
:1030C8004D617200417072004D6179004A756E0061
:1030D8004A756C0041756700536570004F63740052
:1030E8004E6F76004465630000000000414D0050BB
:1030F8004D00000034320000303200003032000051
:10310800303200003032000030320000303200002F
:10311800303200003032000030320000FFFFFFFF85
:10312800FFFFFFFFFFFFFFFFFFFF00007031000000
:10313800A0300000AC310000C0300000F4300000C6
:10314800543100000432000060310000256D2F2545
:10315800642F25790000000025612025622025655F
:10316800202554202559000053756E646179004D5F
:103178006F6E646179005475657364617900576591
:10318800646E6573646179005468757273646179FB
:10319800004672696461790053617475726461797B
:1031A800000000004A616E756172790046656272BE
:1031B80075617279004D6172636800417072696C63
:1031C800004D6179004A756E65004A756C79004159
:1031D80075677573740053657074656D6265720008
:1031E8004F63746F626572004E6F76656D626572CB
:1031F80000446563656D62657200000025483A25E4
:103208004D3A255300000000A91B0000C51B000013
:10321800D11B0000DD1B0000F91B0000051C00008D
:10322800111C00001F1C0000000000002E00000000
:103238003031323334353637383961626364656624
:1032480030313233343536373839414243444546D4
:1032580021000000000020410000C84200401C4638
:1032680020BCBE4CCA1B0E5AAEC59D74286E756C28
:103278006C2900002D494E46000000002D696E663D
:10328800000000002B494E46000000002B696E66C6
:10329800000000004E414E006E616E00000000000C
:1032A80001000000000000000A000000000000000B
:1032B8006400000000000000E803000000000000B7
:1032C8001027000000000000A08601000000000098
:1032D80040420F00000000008096980000000000A7
:1032E80000E1F5050000000000CA9A3B000000005C
:1032F80000E40B540200000000E8764817000000C4
:103308000010A5D4E800000000A0724E18090000C3
:1033180000407A10F35A00000080C6A47E8D030096
:103328000000C16FF286230000008A5D78456301C2
:10333800000064A7B3B6E00D0000E8890423C78A3B
:1033480000000000FF000000010000000090D00312
:103358009430000094300000943000009430000055
:04336800943000009D
:040000030000037581
:00000001FF
